:020000040000FA
:0400000007EF00F016
:0A000800558230ED25F0ADEF25F034
:1008000000256373646978586F7566674765456E40
:10081000070006004D6F746F7220676972616E6425
:100820006F2061206C6120497A717569657264611D
:100830000A0A004D6F746F7220676972616E646F8F
:100840002061206C6120446572656368610A0A005A
:100850004249454E56454E49444F0A0A002000255C
:100860000000380E0101E66F000EE76F21EE00F088
:100870007F0EDE6AE806FDE2000E816F000E806FDB
:10088000000E836F000E826F000ED16F000ED06FCE
:1008900020EE60F011EE8EF03F0EDBCFE3FFE806B6
:1008A000FCE2000ED56F000ED46FCDEF09F0250EDF
:1008B000D019D8A45EEF04F060EF04F0C0EF09F0A7
:1008C0008E0E086E010E096E96EC26F0840E086EF0
:1008D000010E096E96EC26F00101DA69DB69E86920
:1008E000E969250E846F000ED96F000ED86F000ED7
:1008F000E16F010EE06FC2EF04F036C0F6FF37C0C3
:10090000F7FF840EE025D96E010EE121DA6E0800B2
:10091000F5CFDFFF364A372A000EDD6F000EDC6FA1
:10092000DDBF9CEF04F0DD5109E10F0EDC5DD8A0C6
:100930009CEF04F09EEF04F0A0EF04F0C0EF04F091
:10094000840EE025D96E010EE121DA6EDF50386E9B
:10095000010EDC25F66E080EDD21F76E0800F5505D
:100960003818D8A4B6EF04F0B8EF04F0BCEF04F0E8
:10097000E0C1D8F1E1C1D9F1DC4BDD2B90EF04F0FF
:10098000E04BE12BD851D911D8B4C9EF04F0CBEF2B
:1009900004F07DEF04F0000EE16F000EE06F000E3A
:1009A000DD6F000EDC6F34EF05F0840EDC25D96EB0
:1009B000010EDD21DA6E2A0EDE18D8A4E2EF04F073
:1009C000E4EF04F0FBEF04F0E051E111D8A4EBEF09
:1009D00004F0EDEF04F0FBEF04F0E6C1D9FFE7C14E
:1009E000DAFFDECFDAF1DDCFDBF1020EE627000E13
:1009F000E72332EF05F0840EDC25D96E010EDD21F0
:100A0000DA6E2A0EDE18D8A408EF05F00AEF05F01A
:100A100021EF05F0E005E111D8A411EF05F013EF87
:100A200005F021EF05F0E6C1D9FFE7C1DAFFDECF1F
:100A3000E8F1DDCFE9F1020EE627000EE72332EF01
:100A400005F0840EDC25D96E010EDD21DA6E2E0E46
:100A5000DE18D8A42EEF05F030EF05F032EF05F0E8
:100A6000E04BE12BDC4BDD2BD851DC5DDD51800A06
:100A7000386ED951800A3858D8A041EF05F043EFBD
:100A800005F0D5EF04F0840E166E010E176EDA0E27
:100A9000186E010E196EE80E1A6E010E1B6E57ECE1
:100AA00017F00101DBBF5EEF05F0DB5109E1400EFD
:100AB000DA5DD8A05EEF05F060EF05F064EF05F0B9
:100AC000000EDB6F000EDA6FE9BF70EF05F0E95141
:100AD00009E1400EE85DD8A070EF05F072EF05F077
:100AE00050EF09F0000EE96F000EE86F50EF09F0CB
:100AF0008E0E086E010E096E5F0E0A6E080E0B6EEA
:100B000011EC26F09FEF09F0E6C1D9FFE7C1DAFF4B
:100B1000DF50826F020EE627000EE7238E0E086E6E
:100B2000010E096E820E0A6E010E0B6E11EC26F09C
:100B30009FEF09F0E6C1D9FFE7C1DAFFDECFCEF1C2
:100B4000DDCFCFF1020EE627000EE7238E0E086EF2
:100B5000010E096ECEC10AF0CFC10BF011EC26F0E8
:100B60008E0E086E010E096EE80E0A6E010E0B6EF7
:100B700071EC25F09FEF09F0E6C1D9FFE7C1DAFF7C
:100B8000DECFDEF1DDCFDFF1020EE627000EE72338
:100B90008E0E166E010E176EDEC118F0DFC119F051
:100BA000000E19BEFF0E1A6E1B6E000E1D6E0A0E91
:100BB0001C6E31EC1DF08E0E086E010E096EE80EF3
:100BC0000A6E010E0B6EE6EC1FF08E0E126E010E19
:100BD000136EDEC104F0DFC105F0000E05BEFF0E8E
:100BE000066E076E010E57EC1CF004C014F005C031
:100BF00015F006C016F007C017F0ADEC1EF09FEF21
:100C000009F0E6C1D9FFE7C1DAFFDECFDEF1DDCFC3
:100C1000DFF1020EE627000EE7238E0E166E010EA0
:100C2000176EDEC118F0DFC119F0000E19BEFF0EFD
:100C30001A6E1B6E000E1D6E0A0E1C6E31EC1DF03E
:100C40008E0E086E010E096EE80E0A6E010E0B6E16
:100C5000E6EC1FF08E0E126E010E136EDEC104F074
:100C6000DFC105F0000E05BEFF0E066E076E010E19
:100C700057EC1CF004C014F005C015F006C016F0C7
:100C800007C017F0ADEC1EF09FEF09F0E6C1D9FFE9
:100C9000E7C1DAFFDECFD2F1DDCFD3F1020EE627D6
:100CA000000EE7238E0E166E010E176ED2C118F0DD
:100CB000D3C119F01A6A1B6A000E1D6E0A0E1C6E53
:100CC00031EC1DF08E0E086E010E096EE80E0A6EF4
:100CD000010E0B6EE6EC1FF09FEF09F0E6C1D9FFA5
:100CE000E7C1DAFFDECFDEF1DDCFDFF1020EE6276E
:100CF000000EE7238E0E166E010E176EDEC118F081
:100D0000DFC119F0000E19BEFF0E1A6E1B6E000E29
:100D10001D6E100E1C6E31EC1DF08E0E086E010E55
:100D2000096EE80E0A6E010E0B6EE6EC1FF08E0ED9
:100D3000086E010E096EDEC10AF0DFC10BF0780EFD
:100D40000C6EF1EC1DF08E0E086E010E096EAAEC11
:100D500024F09FEF09F0E6C1D9FFE7C1DAFFDECF4B
:100D6000DEF1DDCFDFF1020EE627000EE7238E0E67
:100D7000166E010E176EDEC118F0DFC119F0000EFD
:100D800019BEFF0E1A6E1B6E000E1D6E100E1C6E2D
:100D900031EC1DF08E0E086E010E096EE80E0A6E23
:100DA000010E0B6EE6EC1FF08E0E086E010E096E42
:100DB000DEC10AF0DFC10BF0780E0C6EF1EC1DF015
:100DC0009FEF09F0E6C1D9FFE7C1DAFFDECFDEF120
:100DD000DDCFDFF1020EE627000EE7238E0E166E42
:100DE000010E176EDEC118F0DFC119F0000E19BE3A
:100DF000FF0E1A6E1B6E000E1D6E080E1C6E31EC7F
:100E00001DF08E0E086E010E096EE80E0A6E010EC0
:100E10000B6EE6EC1FF08E0E086E010E096EDEC141
:100E20000AF0DFC10BF06F0E0C6EF1EC1DF09FEFBE
:100E300009F0E6C1D9FFE7C1DAFFDECFE2F1DECF8C
:100E4000E3F1DECFE4F1DECFE5F1040EE627000E9C
:100E5000E7238E0E276E010E286EE2C129F0E3C152
:100E60002AF0E4C12BF0E5C12CF0D3EC12F08E0E89
:100E70001F6E010E206EE80E216E010E226E94ECA4
:100E80001AF08E0E126E010E136EE2C114F0E3C161
:100E900015F0E4C116F0E5C117F0ADEC1EF09FEFC0
:100EA00009F0E6C1D9FFE7C1DAFFDECFE2F1DECF1C
:100EB000E3F1DECFE4F1DECFE5F1040EE627000E2C
:100EC000E7238E0E0001F86F010EF96FE2C1FAF010
:100ED000E3C1FBF0E4C1FCF0E5C1FDF0E7EC15F087
:100EE0008E0E1F6E010E206EE80E216E010E226E18
:100EF0008FEC19F041EF07F0E6C1D9FFE7C1DAFF47
:100F0000DECFE2F1DECFE3F1DECFE4F1DECFE5F1DB
:100F1000040EE627000EE7238E0E0001F86F010E87
:100F2000F96FE2C1FAF0E3C1FBF0E4C1FCF0E5C106
:100F3000FDF0E7EC15F08E0E1F6E010E206EE80E30
:100F4000216E010E226E8FEC19F08E0E126E010EC4
:100F5000136EE2C114F0E3C115F0E4C116F0E5C16F
:100F600017F0ADEC1EF0A3EF06F0E6C1D9FFE7C124
:100F7000DAFFDECFE2F1DECFE3F1DECFE4F1DECF68
:100F8000E5F1040EE627000EE7238E0E0001F86F50
:100F9000010EF96FE2C1FAF0E3C1FBF0E4C1FCF02D
:100FA000E5C1FDF0E7EC15F0F8C0D6F1F9C0D7F1D6
:100FB0008E0E276E010E286EE2C129F0E3C12AF0E1
:100FC000E4C12BF0E5C12CF0D3EC12F0000E0101CE
:100FD000DD6F000EDC6F000EE16F000EE06F22EFA0
:100FE00008F08E0EE025D96E010EE121DA6E2E0E8C
:100FF000DE18D8A4FEEF07F000EF08F002EF08F0CB
:1010000034EF08F08E0EE025D96E010EE121DA6E84
:101010002F0EDF640EEF08F010EF08F020EF08F05D
:101020008E0EE025D96E010EE121DA6E3A0EDF60F8
:101030001CEF08F01EEF08F020EF08F0DC4BDD2B72
:10104000E04BE12B8E0E046E010E056ECFEC27F007
:1010500004500101E05D0550E159D8A032EF08F0DD
:1010600034EF08F0F1EF07F0E82906E1E929D8A408
:101070003CEF08F03EEF08F042EF08F0000EE96F99
:10108000060EE86FD7AF50EF08F0FD0ED65DFF0EED
:10109000D759D8A04EEF08F050EF08F05FEF08F0F6
:1010A000DC51E85DE951800A386EDD51800A38581C
:1010B000D8B05DEF08F05FEF08F06EEF08F08E0E2D
:1010C0000001F86F010EF96FE2C1FAF0E3C1FBF025
:1010D000E4C1FCF0E5C1FDF0E7EC15F08E0E1F6EEB
:1010E000010E206EE80E216E010E226EE5EC09F075
:1010F00041EF07F0E6C1D9FFE7C1DAFFDECFE2F149
:10110000DECFE3F1DECFE4F1DECFE5F1040EE6273A
:10111000000EE7238E0E0001F86F010EF96FE2C199
:10112000FAF0E3C1FBF0E4C1FCF0E5C1FDF0E7EC4F
:1011300015F0F8C0D6F1F9C0D7F18E0E276E010E6A
:10114000286EE2C129F0E3C12AF0E4C12BF0E5C129
:101150002CF0D3EC12F0000E0101DD6F000EDC6FFD
:10116000000EE16F000EE06FE7EF08F08E0EE02555
:10117000D96E010EE121DA6E2E0EDE18D8A4C3EF6F
:1011800008F0C5EF08F0C7EF08F0F9EF08F08E0E91
:10119000E025D96E010EE121DA6E2F0EDF64D3EF68
:1011A00008F0D5EF08F0E5EF08F08E0EE025D96ED7
:1011B000010EE121DA6E3A0EDF60E1EF08F0E3EFB5
:1011C00008F0E5EF08F0DC4BDD2BE04BE12B8E0E59
:1011D000046E010E056ECFEC27F004500101E05DB6
:1011E0000550E159D8A0F7EF08F0F9EF08F0B6EF95
:1011F00008F0E82906E1E929D8A401EF09F003EF96
:1012000009F007EF09F0000EE96F060EE86FD7AF9F
:1012100015EF09F0FD0ED65DFF0ED759D8A013EFDC
:1012200009F015EF09F024EF09F0DC51E85DE95110
:10123000800A386EDD51800A3858D8B022EF09F0A4
:1012400024EF09F033EF09F08E0E0001F86F010E64
:10125000F96FE2C1FAF0E3C1FBF0E4C1FCF0E5C1D3
:10126000FDF0E7EC15F08E0E1F6E010E206EE80EFD
:10127000216E010E226EE5EC09F0A5EF07F08E0E4F
:10128000086E010E096E5D0E0A6E080E0B6E11ECF3
:1012900026F09FEF09F0D407D8A0D5079FEF09F0FB
:1012A000840ED825D96E010ED921DA6EDF50386E42
:1012B000396A3950000AD8B460EF09F04BEF09F0F1
:1012C0003850250AD8B478EF05F0600AD8B47CEF1E
:1012D00007F0020AD8B47AEF08F01F0AD8B46EEF0C
:1012E00006F03B0AD8B484EF05F0070AD8B4BCEF87
:1012F00005F0010AD8B451EF07F0030AD8B419EF8A
:1013000007F0010AD8B4B5EF07F00E0AD8B401EF20
:1013100006F0070AD8B43FEF09F0010AD8B4E2EFAB
:1013200006F01C0AD8B49AEF05F0060AD8B446EFC6
:1013300006F00D0AD8B4ABEF06F04BEF09F08E0EB5
:10134000086E010E096EDA0E0A6E010E0B6E7AEC53
:1013500018F0000E126E010E136E8E0E146E010E3A
:10136000156EEAEC27F08E0E046E010E056ECFECC2
:1013700027F004500101802705508123CDEF09F0AB
:10138000000E126E010E136ED00E146E010E156E4D
:10139000EAEC27F00101804B812B36C0F6FF37C005
:1013A000F7FF364A372A0800F5CFD0F1D051D8A43C
:1013B000DCEF09F0DEEF09F057EF04F0000E086EE5
:1013C000010E096E2FEC27F012001FC004F020C0A0
:1013D00005F0CFEC27F004C02EF005C02FF01FC0A1
:1013E00008F020C009F0650E0A6EE0EC25F008C098
:1013F0002CF009C02DF01FC008F020C009F02E0EFF
:101400000A6EE0EC25F008C026F009C027F0000EB7
:10141000296E000E286E000E2B6E000E2A6E21C063
:10142000D9FF22C0DAFFDE2806E1DE28D8A41BEFB0
:101430000AF01DEF0AF025EF0AF021C0D9FF22C003
:10144000DAFF060EDE6E000EDD6E2DBE32EF0AF004
:101450002D5006E12C04D8B030EF0AF032EF0AF03C
:1014600038EF0AF02EC032F02FC033F03CEF0AF014
:101470002CC032F02DC033F0000E356E000E346EED
:101480009AEF0AF034501F24D96E35502020DA6EBE
:101490002F0EDF644EEF0AF050EF0AF087EF0AF0EC
:1014A00034501F24D96E35502020DA6E3A0EDF609A
:1014B0005CEF0AF05EEF0AF087EF0AF034501F2469
:1014C000D96E35502020DA6E300EDE18D8A46BEFBE
:1014D0000AF06DEF0AF076EF0AF02A502B10D8B41C
:1014E00074EF0AF076EF0AF098EF0AF02A4A2B2AF6
:1014F0002A042B10D8A47FEF0AF081EF0AF098EFAE
:101500000AF034C028F035C029F098EF0AF03450C2
:101510001F24D96E35502020DA6E650EDE18D8A44F
:1015200094EF0AF096EF0AF098EF0AF0A9EF0AF0AC
:10153000344A352A34502E5C2F50800A236E3550A1
:10154000800A2358D8B0A7EF0AF0A9EF0AF042EFBB
:101550000AF0FF0E3224346EFF0E3320356E35BE96
:10156000B6EF0AF0B4EF0AF0B8EF0AF003EF0BF0B1
:1015700034501F24D96E35502020DA6E300EDE181C
:10158000D8A4C5EF0AF0C7EF0AF0CCEF0AF02A069C
:10159000D8A02B06F9EF0AF034501F24D96E35502D
:1015A0002020DA6E300EDF64D8EF0AF0DAEF0AF0AE
:1015B000E8EF0AF034501F24D96E35502020DA6E3F
:1015C000390EDF64E6EF0AF0E8EF0AF003EF0BF004
:1015D00034501F24D96E35502020DA6E2E0EDE18BE
:1015E000D8A4F5EF0AF0F7EF0AF0F9EF0AF003EFED
:1015F0000BF03406D8A0350635BE03EF0BF001EF33
:101600000BF0B8EF0AF021C0D9FF22C0DAFF2A5050
:10161000DE5CDE50800A256E2B50800A2558D8B03B
:1016200014EF0BF016EF0BF090EF0CF021C0D9FF88
:1016300022C0DAFFDECF23F0DDCF24F028502324B0
:10164000346E29502420356E2650285C2950800A9B
:10165000236E2750800A2358D8B031EF0BF033EFB8
:101660000BF044EF0BF02650345C3550800A236EAB
:101670002750800A2358D8A040EF0BF042EF0BF020
:1016800044EF0BF0344A352A3450325C306E35501A
:101690003358316E31BE55EF0BF0315008E1300454
:1016A000D8A055EF0BF057EF0BF0E2EF0BF01FC097
:1016B0000EF020C00FF02CC010F02DC011F034C07F
:1016C00012F035C013F06CEC14F00E040F10D8A417
:1016D0006CEF0BF06EEF0BF0B7EF0BF0000E336E0C
:1016E000000E326E98EF0BF032501F24D96E33503B
:1016F0002020DA6E300EDF6480EF0BF082EF0BF00B
:1017000096EF0BF032501F24D96E33502020DA6E42
:101710003A0EDF608EEF0BF090EF0BF096EF0BF0D0
:1017200032C028F033C029F0A9EF0BF0344A352A33
:101730001FC004F020C005F0CFEC27F03250045C4D
:1017400033500558D8B0A7EF0BF0A9EF0BF074EFAA
:101750000BF021C0D9FF22C0DAFFDECF23F0DDCFAE
:1017600024F028502324346E29502420356E34C0B0
:1017700032F035C033F0D3EF0BF032501F24236E1C
:1017800033502020246E30502324D96E3150242031
:10179000DA6E32501F24E16E33502020E26EDFCF2C
:1017A000E7FF324A332A2E50325C3350800A236ED0
:1017B0002F50800A2358D8A0E0EF0BF0E2EF0BF097
:1017C000BDEF0BF04D50D8A4E8EF0BF0EAEF0BF0B3
:1017D00090EF0CF01FC008F020C009F02E0E0A6E2A
:1017E000E0EC25F008C026F009C027F01FC004F087
:1017F00020C005F0CFEC27F004C02EF005C02FF07C
:101800001FC008F020C009F0650E0A6EE0EC25F05C
:1018100008C02CF009C02DF02DBE19EF0CF02D5092
:1018200006E12C04D8B017EF0CF019EF0CF01FEF05
:101830000CF02EC032F02FC033F023EF0CF02CC090
:1018400032F02DC033F0FF0E3224306EFF0E332005
:10185000316E81EF0CF030501F24D96E31502020B2
:10186000DA6E300EDF6437EF0CF039EF0CF049EF31
:101870000CF030501F24D96E31502020DA6E3A0E11
:10188000DF6045EF0CF047EF0CF049EF0CF090EF04
:101890000CF01FC004F020C005F0CFEC27F004C00E
:1018A0002EF005C02FF030C034F031C035F06FEFAE
:1018B0000CF034501F24236E35502020246E010E6E
:1018C0002324D96E000E2420DA6E34501F24E16EDA
:1018D00035502020E26EDFCFE7FF344A352A3450FE
:1018E0002E5C2F50800A236E3550800A2358D8B0C2
:1018F0007CEF0CF07EEF0CF059EF0CF03006D8A026
:1019000031062650305C3150800A236E2750800A01
:101910002358D8B08EEF0CF090EF0CF02BEF0CF0BA
:1019200012000750800B106E07500724126E06AE8F
:101930009CEF0CF09EEF0CF09FEF0CF01280125019
:10194000D8B4A5EF0CF0A7EF0CF0BCEF0CF0122808
:10195000D8A4ADEF0CF0AFEF0CF0B7EF0CF0000E29
:10196000046E000E056E000E066E000E076E068EEB
:10197000000E076EC4EF0CF0000E046E000E056E34
:10198000000E066E000E076E0B50800B116E10508D
:101990001118D8B4CEEF0CF0D0EF0CF0D1EF0CF062
:1019A000108C0B500B24116E0AAED9EF0CF0DBEF4C
:1019B0000CF0DCEF0CF011801150D8B4E2EF0CF019
:1019C000E4EF0CF0F9EF0CF01128D8A4EAEF0CF0DA
:1019D000ECEF0CF0F4EF0CF0000E086E000E096E48
:1019E000000E0A6E000E0B6E0A8E000E0B6E01EFDB
:1019F0000DF0000E086E000E096E000E0A6E000E4D
:101A00000B6E1250115CD8B008EF0DF00AEF0DF01C
:101A100031EF0DF010AC0FEF0DF011EF0DF013EFF3
:101A20000DF0800E101A12C013F011C012F013C086
:101A300011F004C013F008C004F013C008F005C092
:101A400013F009C005F013C009F006C013F00AC076
:101A500006F013C00AF007C013F00BC007F013C064
:101A60000BF0000E136E125011C00CF00D6A0C5EDC
:101A7000000E0D5A0DBE46EF0DF00D5009E11A0E85
:101A80000C5CD8A046EF0DF048EF0DF07FEF0DF0A5
:101A90000450051006100710D8A451EF0DF054EFB4
:101AA0000DF0010E55EF0DF0000E136E000E046EDA
:101AB000000E056E000E066E000E076E11C012F0CD
:101AC00088EF0DF013A067EF0DF069EF0DF06FEFE9
:101AD0000DF0D89013300109136E71EF0DF0D8900E
:101AE000133204A076EF0DF078EF0DF079EF0DF0E2
:101AF000138E07340732063205320432122A11508F
:101B0000125CD8A086EF0DF088EF0DF062EF0DF0BB
:101B100010BC8DEF0DF08FEF0DF0CFEF0DF01250E8
:101B2000D8A495EF0DF097EF0DF0A1EF0DF0000E9A
:101B3000046E000E056E000E066E000E076EF0EFCE
:101B40000EF008500426095005220A5006220B50B8
:101B5000072207A0AEEF0DF0B0EF0DF05CEF0EF036
:101B600013A0B5EF0DF0B7EF0DF0BDEF0DF0D8906D
:101B700013300109136EBFEF0DF0D890133204A09B
:101B8000C4EF0DF0C6EF0DF0C7EF0DF0138E073464
:101B90000732063205320432122A5CEF0EF008508A
:101BA000045C095005580A5006580750800A0C6E0C
:101BB0000B50800A0C58D8B0E0EF0DF0E2EF0DF0BA
:101BC0000DEF0EF00450085C0C6E055009580D6EB8
:101BD00006500A580E6E07500B580F6EFF0E0C245D
:101BE000046EFF0E0D20056EFF0E0E20066EFF0E1A
:101BF0000F20076E800E101A136C1350D8A403EF39
:101C00000EF005EF0EF015EF0EF0010E0426000E9B
:101C100005220622072215EF0EF00850045E095037
:101C2000055A0A50065A0B50075A04500510061060
:101C30000710D8A41EEF0EF020EF0EF055EF0EF0B7
:101C40001350D8A426EF0EF028EF0EF055EF0EF04B
:101C5000000E046E000E056E000E066E000E076E7E
:101C6000F0EF0EF0D890043605360636073613AE80
:101C70003CEF0EF03EEF0EF03FEF0EF0048013A0AD
:101C800044EF0EF046EF0EF04AEF0EF0D880133618
:101C90004CEF0EF0D89013361250D8B452EF0EF02D
:101CA00054EF0EF055EF0EF0120606AE5AEF0EF09E
:101CB0005CEF0EF032EF0EF0000E116E13AE63EF1C
:101CC0000EF065EF0EF07DEF0EF013C00CF07F0EFE
:101CD0000C16D8B46EEF0EF070EF0EF074EF0EF03D
:101CE000010E116E7DEF0EF004A079EF0EF07BEF88
:101CF0000EF07DEF0EF070EF0EF01150D8B483EFC0
:101D00000EF085EF0EF0B0EF0EF0010E0426000E7F
:101D100005220622072207A090EF0EF092EF0EF0A8
:101D2000B0EF0EF004C00CF005C00DF006C00EF0D0
:101D300007C00FF00F340F320E320D320C320CC0D0
:101D400004F00DC005F00EC006F00FC007F0122819
:101D5000D8B4ADEF0EF0AFEF0EF0B0EF0EF0122AE8
:101D60001228D8B4B6EF0EF0B8EF0EF0C0EF0EF0B8
:101D70001250D8A4BEEF0EF0C0EF0EF0D2EF0EF06E
:101D8000000E046E000E056E000E066E000E076E4D
:101D90001250D8A4CEEF0EF0D0EF0EF0D2EF0EF02E
:101DA000000E106E12A0D7EF0EF0D9EF0EF0DCEFA0
:101DB0000EF0068EDDEF0EF0069ED8901230076E04
:101DC00010AEE5EF0EF0E7EF0EF0E8EF0EF0078E45
:101DD00004C004F005C005F006C006F007C007F017
:101DE00012000750800B106E07500724166E06AEC7
:101DF000FCEF0EF0FEEF0EF0FFEF0EF01680165027
:101E0000D8B405EF0FF007EF0FF01AEF0FF0162818
:101E1000D8A40DEF0FF00FEF0FF017EF0FF0000E3B
:101E2000046E000E056E000E066E000E076E068E26
:101E300022EF0FF0000E046E000E056E000E066E0F
:101E4000000E076E0B50800B101A0B500B24156EF2
:101E50000AAE2DEF0FF02FEF0FF030EF0FF01580DF
:101E60001550D8B436EF0FF038EF0FF04BEF0FF0FE
:101E70001528D8A43EEF0FF040EF0FF048EF0FF019
:101E8000000E086E000E096E000E0A6E000E0B6E3C
:101E90000A8E53EF0FF0000E086E000E096E000E52
:101EA0000A6E000E0B6E1550D8B459EF0FF05BEFB1
:101EB0000FF063EF0FF01650D8A461EF0FF063EF4F
:101EC0000FF06DEF0FF0000E046E000E056E000EA9
:101ED000066E000E076E05EF11F00A500402F3CFF4
:101EE0001BF0F4CF1CF01B50116E126A136A146AB7
:101EF0001C50176E186A196A1A6A09500502F3CF46
:101F00001BF0F4CF1CF01B501126000E12221322DE
:101F100014221C501726000E182219221A220850CB
:101F20000602F3CF1BF0F4CF1CF01B501126000E5D
:101F30001222132214221C501726000E18221922D6
:101F40001A2213C014F012C013F011C012F0116A5B
:101F500008500502F3CF1BF0F4CF1CF01B501126E4
:101F60001C501222000E1322000E142209500402EB
:101F7000F3CF1BF0F4CF1CF01B5011261C50122283
:101F8000000E1322000E142213C014F012C013F01E
:101F900011C012F0116A08500402F3CF1BF0F4CF05
:101FA0001CF01B5011261C501222000E1322000E92
:101FB00014220A500502F3CF1BF0F4CF1CF01B5083
:101FC00017261C501822000E1922000E1A22095042
:101FD0000602F3CF1BF0F4CF1CF01B5017261C5049
:101FE0001822000E1922000E1A220A500602F3CF00
:101FF0001BF0F4CF1CF01B500C6E1C500D6E0E6AC3
:102000000F6A0EC00FF00DC00EF00CC00DF00C6A80
:102010000C5017260D5018220E5019220F501A225C
:1020200011C00CF012C00DF013C00EF014C00FF070
:10203000190E20EF10F0D8900F320E320D320C3204
:10204000E82E1BEF10F00C5017260D5018220E50E2
:1020500019220F501A2213C014F012C013F011C02D
:1020600012F0116A155016C00CF00D6A0C26000E05
:102070000D22820E0C241B6EFF0E0D201C6E56EFDF
:1020800010F0D8901736183619361A3614AE4BEFB2
:1020900010F04DEF10F04EEF10F01780D890113681
:1020A0001236133614361B06D8A01C0619AE5BEF89
:1020B00010F05DEF10F041EF10F0000E156E14AE51
:1020C00064EF10F066EF10F08AEF10F0FF0E1114BD
:1020D0000C6EFF0E12140D6EFF0E13140E6E7F0E9B
:1020E00014140F6E0C500D100E100F10D8B47BEF9F
:1020F00010F07DEF10F081EF10F0010E156E8AEFF9
:1021000010F017A086EF10F088EF10F08AEF10F0B3
:102110007DEF10F01550D8B490EF10F092EF10F062
:10212000B6EF10F0010E1726000E182219221A22FF
:102130001AA09DEF10F09FEF10F0B6EF10F017C04F
:102140000CF018C00DF019C00EF01AC00FF00F34CB
:102150000F320E320D320C320CC017F00DC018F0D9
:102160000EC019F00FC01AF01B4A1C2A1CBEC1EF8A
:1021700010F01C5008E11B28D8A0C1EF10F0C3EFED
:1021800010F0CDEF10F0000E176E000E186E800EDE
:10219000196E7F0E1A6EFBEF10F01CBEDAEF10F016
:1021A0001C5006E11B04D8B0D8EF10F0DAEF10F0A5
:1021B000E6EF10F0000E176E000E186E000E196E8E
:1021C000000E1A6E000E106EFBEF10F01BC016F022
:1021D000FF0E1716FF0E18167F0E1916000E1A1690
:1021E00016A0F5EF10F0F7EF10F0F8EF10F0198EE1
:1021F000D89016301A6E10501A1217C004F018C07A
:1022000005F019C006F01AC007F012000750800B45
:10221000146E075007241B6E06AE11EF11F013EF7A
:1022200011F014EF11F01B801B50D8B41AEF11F00D
:102230001CEF11F031EF11F01B28D8A422EF11F0A0
:1022400024EF11F02CEF11F0000E046E000E056E5D
:10225000000E066E000E076E068E000E076E39EF3A
:1022600011F0000E046E000E056E000E066E000EDC
:10227000076E0B50800B141A0B500B241C6E0AAE09
:1022800044EF11F046EF11F047EF11F01C801C50A5
:10229000D8B44DEF11F04FEF11F064EF11F01C289E
:1022A000D8A455EF11F057EF11F05FEF11F0000EC9
:1022B000086E000E096E000E0A6E000E0B6E0A8E7E
:1022C000000E0B6E6CEF11F0000E086E000E096E22
:1022D000000E0A6E000E0B6E085009100A100B104B
:1022E000D8A475EF11F077EF11F08FEF11F0000E19
:1022F000046E000E056E000E066E000E076E800E58
:1023000006127F0E07121450071204C004F005C015
:1023100005F006C006F007C007F0D2EF12F01B5020
:10232000D8A495EF11F097EF11F0A1EF11F0000E86
:10233000046E000E056E000E066E000E076ED2EFE4
:1023400012F01C501BC00CF00D6A0C5E000E0D5AF2
:102350007F0E0C24156E000E0D20166E04C010F0BA
:1023600005C011F006C012F007C013F0000E046E95
:10237000000E056E000E066E000E076E000E176E44
:10238000000E186E000E196E000E1A6E000E1C6EF6
:1023900002EF12F01C50D8B4D0EF11F0D2EF11F0D0
:1023A000E9EF11F0D8901036113612361336D89066
:1023B00004360536063607361AAEE1EF11F0E3EFC4
:1023C00011F0E4EF11F00480D89017361836193662
:1023D0001A360850105C095011580A5012580B5008
:1023E0001358D8A0F6EF11F0F8EF11F001EF12F04A
:1023F0001A8C0850105E0950115A0A50125A0B508C
:10240000135A1C2A190E1C6408EF12F00AEF12F07E
:10241000CAEF11F01050111012101310D8B413EFAE
:1024200012F015EF12F02DEF12F017802DEF12F0D1
:10243000D89004360536063607361AAE22EF12F06B
:1024400024EF12F025EF12F00480D89017361836DA
:1024500019361A361506D8A0160606AE32EF12F057
:1024600034EF12F018EF12F0000E1C6E1AAE3BEFB4
:1024700012F03DEF12F061EF12F0FF0E17140C6E28
:10248000FF0E18140D6EFF0E19140E6E7F0E1A1427
:102490000F6E0C500D100E100F10D8B452EF12F03A
:1024A00054EF12F058EF12F0010E1C6E61EF12F0B3
:1024B00004A05DEF12F05FEF12F061EF12F054EF45
:1024C00012F01C50D8B467EF12F069EF12F08DEFE4
:1024D00012F0010E0426000E05220622072207A094
:1024E00074EF12F076EF12F08DEF12F004C00CF0E2
:1024F00005C00DF006C00EF007C00FF00F340F320C
:102500000E320D320C320CC004F00DC005F00EC0BE
:1025100006F00FC007F0154A162A16BE98EF12F003
:10252000165008E11528D8A098EF12F09AEF12F093
:10253000A5EF12F0000E166E1568000E046E000E68
:10254000056E000E066E000E076E16BEB2EF12F09C
:10255000165006E11504D8B0B0EF12F0B2EF12F049
:10256000C0EF12F0000E166E000E156E000E046E17
:10257000000E056E000E066E000E076E000E146E45
:1025800015C01BF01BA0C7EF12F0C9EF12F0CCEF83
:1025900012F0068ECDEF12F0069ED8901B30076E1B
:1025A00083EF11F01200000E346E000E336E29C05E
:1025B00004F02AC005F02BC006F02CC007F0000E76
:1025C000086E000E096E000E0A6E000E0B6E09EC0E
:1025D00024F0D8A0EEEF12F0F0EF12F010EF13F0AD
:1025E00027C0D9FF28C0DAFF300EDF6E20EE01F0E1
:1025F0002750D9262850DA222E0EDF6E20EE02F068
:102600002750D9262850DA22300EDF6E20EE03F054
:102610002750D9262850DA22000EDF6E6BEF14F017
:102620002CBE17EF13F015EF13F029EF13F029C0AC
:1026300004F02AC005F02BC006F02CC007F0B3EC64
:1026400027F004C029F005C02AF006C02BF007C00F
:102650002CF0290E1D6E000E1E6E56EC1FF01DC0D4
:1026600031F01EC032F09BEF13F0000E086E000E2A
:10267000096E200E0A6E410E0B6E29C004F02AC0AE
:1026800005F02BC006F02CC007F0F1EC0EF004C0F2
:102690001DF005C01EF006C01FF007C020F0F6ECCC
:1026A00020F01DC02DF01EC02EF02D50300F27C081
:1026B000D9FF28C0DAFFDF6E274A282A000E086EED
:1026C000000E096E200E0A6E410E0B6E29C004F03A
:1026D0002AC005F02BC006F02CC007F0F1EC0EF07C
:1026E00004C01DF005C01EF006C01FF007C020F09A
:1026F0002DC004F02EC005F0000E05BEFF0E066EC4
:10270000076E010E57EC1CF004C021F005C022F04A
:1027100006C023F007C024F00CEC27F01DC029F000
:102720001EC02AF01FC02BF020C02CF0334A342AE0
:102730003106D8A0320632BEA8EF13F0325006E1BF
:102740003104D8B0A6EF13F0A8EF13F035EF13F073
:1027500033503410D8A4AFEF13F0B1EF13F0B9EF4A
:1027600013F027C0D9FF28C0DAFF300EDF6E274AEA
:10277000282A34BEC7EF13F0345007E1070E335C4C
:10278000D8B0C5EF13F0C7EF13F0DDEF13F027C09B
:10279000D9FF28C0DAFF2E0EDF6E274A282ADDEF88
:1027A00013F027C0D9FF28C0DAFF300EDF6E274AAA
:1027B000282A314A322A334A342A32BEE4EF13F04F
:1027C000E2EF13F057EF14F034BEF0EF13F0345093
:1027D00009E1070E335CD8A0F0EF13F0F2EF13F02D
:1027E000D1EF13F057EF14F0000E086E000E096ED3
:1027F000200E0A6E410E0B6E29C004F02AC005F0AF
:102800002BC006F02CC007F0F1EC0EF004C01DF058
:1028100005C01EF006C01FF007C020F0F6EC20F047
:102820001DC02FF01EC030F02F50300F27C0D9FF31
:1028300028C0DAFFDF6E274A282A000E086E000E35
:10284000096E200E0A6E410E0B6E29C004F02AC0DC
:1028500005F02BC006F02CC007F0F1EC0EF004C020
:102860001DF005C01EF006C01FF007C020F02FC0ED
:1028700004F030C005F0000E05BEFF0E066E076EB8
:10288000010E57EC1CF004C021F005C022F006C078
:1028900023F007C024F00CEC27F01DC029F01EC067
:1028A0002AF01FC02BF020C02CF0334A342A34BE4B
:1028B00063EF14F0345009E1070E335CD8A063EFE6
:1028C00014F065EF14F0F4EF13F027C0D9FF28C01F
:1028D000DAFF000EDF6E12000EC004F00FC005F02C
:1028E000CFEC27F004C017F005C018F00EC008F0B8
:1028F0000FC009F02E0E0A6EE0EC25F008C019F0AA
:1029000009C01AF0FF0E12241D6EFF0E13201E6E5A
:102910001EBE8FEF14F08DEF14F091EF14F000EF66
:1029200015F01D500E24D96E1E500F20DA6E390E90
:10293000DF609DEF14F09FEF14F0FBEF14F01D50DB
:102940000E24D96E1E500F20DA6E2E0EDE18D8B46B
:10295000ACEF14F0AEEF14F0FBEF14F012500E24B5
:10296000D96E13500F20DA6E340EDF64BAEF14F014
:10297000BCEF14F000EF15F01D500E24D96E1E5060
:102980000F20DA6EDF2AEAEF14F01D500E24146EC9
:102990001E500F20156E010E1424D96E000E152046
:1029A000DA6E2E0EDE18D8B4D8EF14F0DAEF14F089
:1029B000E8EF14F01D500E24146E1E500F20156EFB
:1029C000010E1424D96E000E1520DA6E300EDF6E63
:1029D0001D4A1E2A12501D5C1E50800A146E135090
:1029E000800A1458D8A0F7EF14F0F9EF14F0C5EFEF
:1029F00014F000EF15F01D06D8A01E0688EF14F0A5
:102A00001D2806E11E28D8A408EF15F00AEF15F0DE
:102A100092EF15F0102806E11128D8A412EF15F056
:102A200014EF15F092EF15F00EC0D9FF0FC0DAFFCA
:102A30002B0EDE18D8B41FEF15F021EF15F02EEF96
:102A400015F00EC0D9FF0FC0DAFF2D0EDE18D8A486
:102A50002CEF15F02EEF15F03CEF15F020EE01F005
:102A60000E50D9260F50DA22310EDF6E000E1C6E8A
:102A7000020E1B6E81EF15F00EC0D9FF0FC0DAFFFA
:102A8000310EDF6E000E1C6E010E1B6E81EF15F015
:102A90001B500E24D96E1C500F20DA6E2E0EDE183D
:102AA000D8A455EF15F057EF15F071EF15F01B5046
:102AB0000E24D96E1C500F20DA6E300EDF6E1B50C4
:102AC0000E24146E1C500F20156E010E1424D96EA6
:102AD000000E1520DA6E2E0EDF6E1B4A1C2A79EFCF
:102AE00015F01B500E24D96E1C500F20DA6E300EDC
:102AF000DF6E1B4A1C2A000E0F6E010E0E6EE6EFF3
:102B000015F017501B5C1C50800A146E1850800A78
:102B10001458D8A08EEF15F090EF15F048EF15F08F
:102B2000E2EF15F01D2806E11E28D8A49AEF15F053
:102B30009CEF15F0E2EF15F0102808E11128D8B449
:102B4000A4EF15F0A6EF15F0E2EF15F019500E24E2
:102B5000146E1A500F20156EFF0E1424D96EFF0E3E
:102B60001520DA6E310EDF6E010E19241B6E000E79
:102B70001A201C6EC6EF15F01B500E24D96E1C5087
:102B80000F20DA6E300EDF6E1B4A1C2A10501B5CC1
:102B90001C50800A146E1150800A1458D8A0D3EF2C
:102BA00015F0D5EF15F0BCEF15F010500E24146E93
:102BB00011500F20156E020E1424D96E000E152030
:102BC000DA6EDF2A000E0F6E000E0E6E1200FAC0D3
:102BD00004F0FBC005F0FCC006F0FDC007F0000EDD
:102BE000086E000E096E000E0A6E000E0B6E09ECE8
:102BF00024F0D8A0FEEF15F000EF16F015EF16F058
:102C0000F8C0D9FFF9C0DAFF300EDF6E000120EE08
:102C100001F0F851D926F951DA22000EDF6E000ECC
:102C2000F96F000EF86F56EF17F00001FDBF1DEFB2
:102C300016F01BEF16F02FEF16F0FAC004F0FBC0F1
:102C400005F0FCC006F0FDC007F0B3EC27F004C0AF
:102C5000FAF005C0FBF006C0FCF007C0FDF0FA0E6C
:102C60001D6E000E1E6E56EC1FF01DC030F01EC013
:102C700031F0000E086E000E096E200E0A6E410E35
:102C80000B6EFAC004F0FBC005F0FCC006F0FDC0FE
:102C900007F0F1EC0EF004C01DF005C01EF006C0F8
:102CA0001FF007C020F0F6EC20F01DC02AF01EC077
:102CB0002BF02A50300FF8C0D9FFF9C0DAFFDF6ED1
:102CC0000001F84BF92B000E086E000E096E200E65
:102CD0000A6E410E0B6EFAC004F0FBC005F0FCC09A
:102CE00006F0FDC007F0F1EC0EF004C01DF005C0C9
:102CF0001EF006C01FF007C020F02AC004F02BC051
:102D000005F0000E05BEFF0E066E076E010E57ECB5
:102D10001CF004C021F005C022F006C023F007C05B
:102D200024F00CEC27F01DC0FAF01EC0FBF01FC011
:102D3000FCF020C0FDF03006D8A03106F8C0D9FF65
:102D4000F9C0DAFF2E0EDF6E0001F84BF92B000EF2
:102D50002F6E000E2E6E000E086E000E096E200EF5
:102D60000A6E410E0B6EFAC004F0FBC005F0FCC009
:102D700006F0FDC007F0F1EC0EF004C01DF005C038
:102D80001EF006C01FF007C020F0F6EC20F01DC0BA
:102D90002CF01EC02DF02C50300FF8C0D9FFF9C018
:102DA000DAFFDF6E0001F84BF92B000E086E000E03
:102DB000096E200E0A6E410E0B6EFAC004F0FBC0C5
:102DC00005F0FCC006F0FDC007F0F1EC0EF004C009
:102DD0001DF005C01EF006C01FF007C020F02CC07B
:102DE00004F02DC005F0000E05BEFF0E066E076E46
:102DF000010E57EC1CF004C021F005C022F006C003
:102E000023F007C024F00CEC27F01DC0FAF01EC020
:102E1000FBF01FC0FCF020C0FDF02E4A2F2A2FBE71
:102E20001BEF17F02F5009E1060E2E5CD8A01BEF08
:102E300017F01DEF17F0ABEF16F0F8C0D9FFF9C08F
:102E4000DAFF650EDF6E0001F84BF92B31BE2BEF78
:102E500017F02DEF17F037EF17F0F8C0D9FFF9C0D2
:102E6000DAFF2B0EDF6EF84BF92B3FEF17F0F8C0AF
:102E7000D9FFF9C0DAFF2D0EDF6E33EF17F0F8C07F
:102E800016F0F9C017F030C018F031C019F0000E7C
:102E900019BEFF0E1A6E1B6E000E1D6E0A0E1C6E02
:102EA00031EC1DF030C0F8F031C0F9F0120016C05E
:102EB00004F017C005F0CFEC27F004C028F005C0DF
:102EC00029F020EE23F0040EDE6AE806FDE220EE93
:102ED0001EF0040EDE6AE806FDE2000E2B6E000E08
:102EE0002A6E000E2D6E000E2C6E000E516E000E1E
:102EF0004F6E16C008F017C009F02B0E0A6E3FEC9B
:102F000026F0526E16C008F017C009F02D0E0A6E9A
:102F10003FEC26F0506E16C008F017C009F0200EE6
:102F20000A6E3FEC26F04E6E16C008F017C009F08E
:102F3000230E0A6E3FEC26F04D6E16C008F017C047
:102F400009F02E0E0A6EE0EC25F008C02EF009C044
:102F50002FF0000E316E010E306E14EF18F030506D
:102F60001624D96E31501720DA6E2F0EDF64BBEFB6
:102F700017F0BDEF17F012EF18F030501624D96E8D
:102F800031501720DA6E3A0EDF60C9EF17F0CBEF41
:102F900017F012EF18F02E50305C3150800A1C6E82
:102FA0002F50800A1C58D8A0D8EF17F0DAEF17F08E
:102FB000E1EF17F02FBEE1EF17F0DFEF17F0F3EFBF
:102FC00017F030501624D96E31501720DA6E230EC8
:102FD0002A24E16E000E2B20E26EDFCFE7FF2A4AA3
:102FE0002B2A12EF18F030502E5C2F50800A1C6EE6
:102FF0003150800A1C58D8B000EF18F002EF18F0DA
:1030000012EF18F030501624D96E31501720DA6EB6
:103010001E0E2C24E16E000E2D20E26EDFCFE7FFA6
:103020002C4A2D2A304A312A2850305C3150800AEF
:103030001C6E2950800A1C58D8A021EF18F023EFED
:1030400018F0AFEF17F0300E2318D8A42AEF18F0BD
:103050002CEF18F02EEF18F0010E516E230E126EA9
:10306000000E136E5EEC24F01E0E126E000E136E38
:103070005EEC24F018C0D9FF19C0DAFFDE2806E1A3
:10308000DE28D8A446EF18F048EF18F056EF18F0F5
:10309000230E0A6E000E0B6EE7EC22F018C0D9FF6B
:1030A00019C0DAFF0AC0DEFF0BC0DDFF2FBE5BEFE9
:1030B00018F05DEF18F079EF18F01AC0D9FF1BC0B7
:1030C000DAFFDE2806E1DE28D8A469EF18F06BEFFE
:1030D00018F079EF18F01E0E0A6E000E0B6EE7EC7A
:1030E00022F01AC0D9FF1BC0DAFF0AC0DEFF0BC0F6
:1030F000DDFF120008C004F009C005F0CFEC27F096
:1031000004C010F005C011F00AC0D9FF0BC0DAFFEF
:10311000DECF0CF0DDCF0DF010500C5C0E6E1150B8
:103120000D580F6E0FBE9DEF18F00F5008E10E0402
:10313000D8A09DEF18F09FEF18F0CAEF18F05004D8
:10314000D8A4A5EF18F0A7EF18F0CAEF18F0000EFA
:10315000136E000E126EB9EF18F010500824D96EDD
:1031600011500920DA6E200EDF6E104A112A124A21
:10317000132A0E50125C1350800A0C6E0F50800AF6
:103180000C58D8A0C6EF18F0C8EF18F0ADEF18F043
:103190008EEF19F00FBED5EF18F00F5008E10E04B6
:1031A000D8A0D5EF18F0D7EF18F08EEF19F05050E7
:1031B000D8A4DDEF18F0DFEF18F08EEF19F00AC099
:1031C000D9FF0BC0DAFFDECF0CF0DDCF0DF0FF0E24
:1031D0000C24126EFF0E0D20136E13BEF4EF18F0C8
:1031E000F2EF18F0F6EF18F08EEF19F01006D8A0F5
:1031F00011065104D8A4FFEF18F001EF19F070EF99
:1032000019F04F50D8A407EF19F009EF19F070EF3B
:1032100019F00E50125C1350800A0C6E0F50800A89
:103220000C58D8A016EF19F018EF19F050EF19F05C
:1032300010500824D96E11500920DA6E2B0EDE18BA
:10324000D8B425EF19F027EF19F036EF19F0105028
:103250000824D96E11500920DA6E2D0EDE18D8A47C
:1032600034EF19F036EF19F040EF19F0125008243E
:10327000D96E13500920DA6E300EDF6E89EF19F027
:1032800010500824D96E11500920DA6E125008240B
:10329000E16E13500920E26EDFCFE7FF89EF19F0EE
:1032A00012500824D96E13500920DA6E2B0EDE1846
:1032B000D8B45DEF19F05FEF19F089EF19F01250F3
:1032C0000824D96E13500920DA6E2D0EDE18D8B4FA
:1032D0006CEF19F06EEF19F089EF19F036EF19F075
:1032E0000E50125C1350800A0C6E0F50800A0C585E
:1032F000D8A07DEF19F07FEF19F081EF19F040EFC2
:1033000019F012500824D96E13500920DA6E200EDD
:10331000DF6E1206D8A01306EDEF18F012001FC0E2
:1033200004F020C005F0CFEC27F004C027F005C062
:1033300028F01FC008F020C009F0650E0A6EE0EC0E
:1033400025F008C029F009C02AF01FC008F020C0ED
:1033500009F02E0E0A6EE0EC25F008C025F009C039
:1033600026F021C0D9FF22C0DAFF010EDBBEBDEF7F
:1033700019F0BBEF19F0C5EF19F021C0D9FF22C039
:10338000DAFF040EDE6E000EDD6E21C0D9FF22C012
:10339000DAFFDECF23F0DDCF24F0255023262650A0
:1033A0002422010E23242B6E000E24202C6E2B5081
:1033B000295C2D6E2C502A582E6E2EBEE8EF19F087
:1033C0002E5008E12D04D8A0E8EF19F0EAEF19F02B
:1033D0003FEF1AF01FC00EF020C00FF029C010F010
:1033E0002AC011F02BC012F02CC013F06CEC14F0BA
:1033F00021C0D9FF22C0DAFFDE50DE10D8A403EFCF
:103400001AF005EF1AF012EF1AF04D50D8A40BEF96
:103410001AF00DEF1AF012EF1AF02B06D8A02C06B6
:103420002D4A2E2A2BC02FF02CC030F02EEF1AF090
:103430002F501F24236E30502020246E2D50232423
:10344000D96E2E502420DA6E2F501F24E16E30509A
:103450002020E26EDFCFE7FF2F4A302A27502F5C73
:103460003050800A236E2850800A2358D8A03BEFA2
:103470001AF03DEF1AF018EF1AF093EF1AF02EBE83
:1034800046EF1AF044EF1AF093EF1AF02D50275C34
:10349000236E2E502858246EFF0E23242F6EFF0E0D
:1034A0002420306E84EF1AF02B502F5C3050800AAD
:1034B000236E2C50800A2358D8A061EF1AF063EFD6
:1034C0001AF079EF1AF02F501F24236E305020206D
:1034D000246E2D502324D96E2E502420DA6E2F50C6
:1034E0001F24E16E30502020E26EDFCFE7FF81EF36
:1034F0001AF02F501F24D96E30502020DA6E300E73
:10350000DF6E2F06D8A0300629502F5C3050800A7D
:10351000236E2A50800A2358D8B091EF1AF093EF07
:103520001AF054EF1AF012001FC004F020C005F08A
:10353000CFEC27F004C02CF005C02DF01FC008F020
:1035400020C009F02E0E0A6EE0EC25F008C028F02D
:1035500009C029F021C0D9FF22C0DAFF010EDBBE6D
:10356000B6EF1AF0B4EF1AF0BEEF1AF021C0D9FF8F
:1035700022C0DAFF040EDE6E000EDD6E21C0D9FF20
:1035800022C0DAFFDECF23F0DDCF24F0285023263F
:1035900029502422010E23242A6E000E24202B6E93
:1035A0002A502C5C266E2B502D58276E27BEE1EF3B
:1035B0001AF0275008E12604D8A0E1EF1AF0E3EF53
:1035C0001AF03EEF1BF01FC00EF020C00FF0FF0EF0
:1035D000116E10682AC012F02BC013F06CEC14F0BE
:1035E00021C0D9FF22C0DAFFDE50DE10D8A4FBEFE5
:1035F0001AF0FDEF1AF005EF1BF04D50D8B403EFB1
:103600001BF005EF1BF019EF1BF021C0D9FF22C002
:10361000DAFFDECF23F0DDCF24F028502326295017
:103620002422010E23242A6E000E24202B6E1DEF6F
:103630001BF028C02AF029C02BF02AC02EF02BC086
:103640002FF02DEF1BF02E501F24D96E2F5020206D
:10365000DA6E000EDF6E2E4A2F2A2C502E5C2F5071
:10366000800A236E2D50800A2358D8A03AEF1BF011
:103670003CEF1BF023EF1BF07AEF1BF027BE45EF6A
:103680001BF043EF1BF07AEF1BF01FC008F020C0C7
:1036900009F02E0E0A6E3FEC26F00009D8B453EF65
:1036A0001BF055EF1BF07AEF1BF02CC02EF02DC055
:1036B0002FF065EF1BF02E501F24D96E2F502020C5
:1036C000DA6E300EDF6E2E4A2F2A26502C5C236EC7
:1036D00027502D58246E23502E5C2F50800A256EC3
:1036E0002450800A2558D8A078EF1BF07AEF1BF001
:1036F0005BEF1BF01200000E0A6E000E096E000E4A
:103700000C6E000E0B6E010E546E5450D8A48BEF4D
:103710001BF08DEF1BF085EF1BF0000E0C6E000E02
:103720000B6E0B500C10D8A498EF1BF09CEF1BF005
:10373000046A042A9DEF1BF0046A0446044604460A
:103740008A500418F70B04188A6E0B040C10D8A4C6
:10375000ACEF1BF0B0EF1BF0046A042AB1EF1BF0D2
:10376000046A044604468A500418FB0B04188A6E47
:10377000020E0B180C10D8A4C0EF1BF0C4EF1BF006
:10378000046A042AC5EF1BF0046A04468A50041830
:10379000FD0B04188A6E030E0B180C10D8A4D3EF7F
:1037A0001BF0D7EF1BF0046A042AD8EF1BF0046A61
:1037B0008A500418FE0B04188A6E9C0E046ED70EF5
:1037C000E82EFED7042EFCD700F081BEEAEF1BF0F6
:1037D000ECEF1BF0F2EF1BF0000E0A6E000E096E0C
:1037E00037EF1CF081BCF7EF1BF0F9EF1BF0FFEF98
:1037F0001BF0000E0A6E010E096E37EF1CF081BA45
:1038000004EF1CF006EF1CF00CEF1CF0000E0A6E2B
:10381000020E096E37EF1CF081B811EF1CF013EFA8
:103820001CF019EF1CF0000E0A6E030E096E37EF44
:103830001CF0030E0B180C10D8A421EF1CF023EF82
:103840001CF027EF1CF0000E0A6E040E096E0B4AE6
:103850000C2A0CBE35EF1CF00C5009E1040E0B5C79
:10386000D8A035EF1CF037EF1CF091EF1BF009C02A
:1038700004F00AC005F0D89004360536D890043616
:103880000536A00E066E000E076E04500626055083
:1038900007220B500624D96E0C500720DA6EDF5039
:1038A000086E8A968A948A928A90085012000C6E4A
:1038B0000C50D8B45EEF1CF060EF1CF082EF1CF0EF
:1038C00007BE67EF1CF065EF1CF082EF1CF004C030
:1038D00008F005C009F006C00AF007C00BF0081E8A
:1038E000091E0A1E0B1E082A000E09220A220B229C
:1038F00008C00EF009C00FF00AC010F00BC011F0A4
:103900008AEF1CF004C00EF005C00FF006C010F0E6
:1039100007C011F00450051006100710D8A493EF4B
:103920001CF095EF1CF09FEF1CF0000E046E000ED3
:10393000056E000E066E000E076E30EF1DF0960E3F
:103940000D6EA9EF1CF00D2AD890113210320F32F3
:103950000E32000E0E14086E000E0F14096E000ECB
:1039600010140A6EFE0E11140B6E085009100A1086
:103970000B10D8A4BEEF1CF0C0EF1CF0A3EF1CF09E
:10398000CEEF1CF00D2A010E0E26000E0F22102283
:103990001122D890113210320F320E32000E0E1456
:1039A000086E000E0F14096E000E10140A6EFF0E42
:1039B00011140B6E085009100A100B10D8A4E3EF75
:1039C0001CF0E5EF1CF0C2EF1CF0EDEF1CF00D0653
:1039D000D8900E360F361036113610BEF2EF1CF0AE
:1039E000F4EF1CF0FCEF1CF0020E0D60FAEF1CF07F
:1039F000FCEF1CF0E7EF1CF00DB001EF1DF003EF42
:103A00001DF004EF1DF0109ED8900D320DC008F08F
:103A1000096A0A6A0B6A08C00BF00A6A096A086A2E
:103A200008500E1209500F120A5010120B501112AA
:103A30000C50D8B41EEF1DF020EF1DF028EF1DF044
:103A400007BE27EF1DF025EF1DF028EF1DF0118EAA
:103A50000EC004F00FC005F010C006F011C007F052
:103A60001200000E296E000E286E185019101A1040
:103A70001B10D8A43EEF1DF040EF1DF052EF1DF0DB
:103A800016C0D9FF17C0DAFF300EDF6E284A292A88
:103A900028501624D96E29501720DA6E000EDF6EDA
:103AA000F0EF1DF01BBE59EF1DF057EF1DF0D7EFE3
:103AB0001DF00A0E1C181D10D8A461EF1DF063EF55
:103AC0001DF0D7EF1DF01B1E1A1E191E186C000EDC
:103AD00019221A221B22D7EF1DF018C004F019C0BA
:103AE00005F01AC006F01BC007F01CC008F01DC08E
:103AF00009F0000E09BEFF0E0A6E0B6E71EC22F08B
:103B000004C024F005C025F006C026F007C027F049
:103B100027BE98EF1DF027502610251007E10A0E4A
:103B2000245CD8B096EF1DF098EF1DF0A6EF1DF0C5
:103B3000300E2424206E000E2520216E000E26203B
:103B4000226E000E2720236EB2EF1DF0570E2424A4
:103B5000206E000E2520216E000E2620226E000E03
:103B60002720236E28501624D96E29501720DA6E8C
:103B700020C0DFFF284A292A18C004F019C005F028
:103B80001AC006F01BC007F01CC008F01DC009F0E9
:103B9000000E09BEFF0E0A6E0B6E70EC20F004C022
:103BA00018F005C019F006C01AF007C01BF0185035
:103BB00019101A101B10D8A4E0EF1DF0E2EF1DF051
:103BC0006DEF1DF028501624D96E29501720DA6E9B
:103BD000000EDF6E16C012F017C013F05EEC24F07A
:103BE000120008C004F009C005F0CFEC27F004C0B3
:103BF0000FF005C010F04D04D8A401EF1EF003EF44
:103C00001EF060EF1EF00A500B10D8B40AEF1EF041
:103C10000CEF1EF060EF1EF0780E0C18D8A413EF16
:103C20001EF015EF1EF060EF1EF0010E0F24116E56
:103C3000000E1020126E12BE29EF1EF0125007E186
:103C4000020E115CD8B027EF1EF029EF1EF02BEF0B
:103C50001EF050EF1EF0115008240D6E1250092076
:103C60000E6EFE0E0D24D96EFF0E0E20DA6E115070
:103C70000824E16E12500920E26EDFCFE7FF110643
:103C8000D8A0120612BE50EF1EF0125007E1020E2D
:103C9000115CD8B04EEF1EF050EF1EF02BEF1EF06F
:103CA00008C0D9FF09C0DAFF300EDF6E20EE01F048
:103CB0000850D9260950DA22780EDF6EACEF1EF0DC
:103CC0004D04D8A466EF1EF068EF1EF0ACEF1EF0B6
:103CD0000A500B10D8B46FEF1EF071EF1EF0ACEF6E
:103CE0001EF06F0E0C18D8A478EF1EF07AEF1EF0BD
:103CF000ACEF1EF00FC011F010C012F012BE8BEF2F
:103D00001EF0125006E11104D8B089EF1EF08BEFBF
:103D10001EF08DEF1EF0A6EF1EF0115008240D6E60
:103D2000125009200E6EFF0E0D24D96EFF0E0E20CC
:103D3000DA6E11500824E16E12500920E26EDFCFD6
:103D4000E7FF1106D8A012067EEF1EF008C0D9FFCB
:103D500009C0DAFF300EDF6E120012C004F013C08B
:103D600005F0CFEC27F004C01AF005C01BF0520498
:103D7000D8B4BDEF1EF0BFEF1EF0C6EF1EF017BEA9
:103D8000C6EF1EF0C4EF1EF01BEF1FF01AC01CF0B0
:103D90001BC01DF01DBED7EF1EF01D5006E11C0418
:103DA000D8B0D5EF1EF0D7EF1EF0D9EF1EF0F2EF2E
:103DB0001EF01C501224186E1D501320196EFF0E99
:103DC0001824D96EFF0E1920DA6E1C501224E16EF1
:103DD0001D501320E26EDFCFE7FF1C06D8A01D06A2
:103DE000CAEF1EF0000E046E000E056E000E066E89
:103DF000000E076E14C008F015C009F016C00AF0D6
:103E000017C00BF079EC21F0D8B009EF1FF00BEFE1
:103E10001FF013EF1FF012C0D9FF13C0DAFF2B0EF3
:103E2000DF6E55EF1FF012C0D9FF13C0DAFF2D0E61
:103E3000DF6E55EF1FF04E04D8A421EF1FF023EFE3
:103E40001FF055EF1FF01AC01CF01BC01DF01DBE67
:103E500034EF1FF01D5006E11C04D8B032EF1FF004
:103E600034EF1FF036EF1FF04FEF1FF01C501224FD
:103E7000186E1D501320196EFF0E1824D96EFF0EF8
:103E80001920DA6E1C501224E16E1D501320E26ED0
:103E9000DFCFE7FF1C06D8A01D0627EF1FF012C0DA
:103EA000D9FF13C0DAFF200EDF6E1200000E206E65
:103EB000000E1F6E1DC0D9FF1EC0DAFFDECF21F03D
:103EC000DECF22F0DECF23F0DECF24F084EF1FF030
:103ED00021C004F022C005F023C006F024C007F082
:103EE000000E086E000E096E200E0A6E410E0B6E5B
:103EF00006EC11F004C021F005C022F006C023F04A
:103F000007C024F01F4A202A21C004F022C005F077
:103F100023C006F024C007F0000E086E000E096EE4
:103F2000800E0A6E3F0E0B6E79EC21F0D8B09BEF3D
:103F30001FF09DEF1FF068EF1FF0BCEF1FF021C0D6
:103F400004F022C005F023C006F024C007F0000EE4
:103F5000086E000E096E200E0A6E410E0B6EF1EC1B
:103F60000EF004C021F005C022F006C023F007C007
:103F700024F01F06D8A0200621C004F022C005F0BE
:103F800023C006F024C007F0CD0E086ECC0E096EDB
:103F9000CC0E0A6E3D0E0B6E79EC21F0D8A0D3EF5B
:103FA0001FF0D5EF1FF09FEF1FF01DC0D9FF1EC0FF
:103FB000DAFF21C0DEFF22C0DEFF23C0DEFF24C007
:103FC000DEFF1FC01DF020C01EF0120008C004F06C
:103FD00009C005F0CFEC27F004C012F005C013F0C3
:103FE0000AC0D9FF0BC0DAFFDE2806E1DE28D8A41C
:103FF000FCEF1FF0FEEF1FF008EF20F00AC0D9FF22
:104000000BC0DAFF010EDE6E000EDD6E0AEF20F04F
:10401000010E4F6E0AC0D9FF0BC0DAFFDECF0CF0E5
:10402000DDCF0DF012500C5C106E13500D58116E58
:1040300012C00EF013C00FF011BE27EF20F0115088
:1040400008E11004D8A027EF20F029EF20F06FEF4F
:1040500020F00AC0D9FF0BC0DAFFDECF0CF0DDCFB5
:104060000DF0FF0E0C24146EFF0E0D20156E15BE04
:104070003EEF20F03CEF20F040EF20F06FEF20F01B
:104080000E06D8A00F061050145C1550800A0C6E56
:104090001150800A0C58D8A050EF20F052EF20F0B9
:1040A00062EF20F00E500824D96E0F500920DA6E0E
:1040B00014500824E16E15500920E26EDFCFE7FFAF
:1040C0006AEF20F014500824D96E15500920DA6EDA
:1040D000300EDF6E1406D8A0150637EF20F0120060
:1040E000000E0D6E0BBE79EF20F077EF20F083EF1E
:1040F00020F00B1E0A1E091E086C000E09220A225F
:104100000B22010E0D6E07BE8AEF20F088EF20F023
:1041100094EF20F0071E061E051E046C000E0522FB
:1041200006220722010E0D1A000E0E6E000E0F6EF3
:10413000000E106E000E116E085009100A100B10C0
:10414000D8B4A5EF20F0A7EF20F0DDEF20F0010EAE
:104150000C6EB1EF20F0D890083609360A360B36CF
:104160000C2A0BAEB6EF20F0B8EF20F0ABEF20F04A
:10417000D8900E360F36103611360850045C0950B0
:1041800005580A5006580B500758D8A0CAEF20F01F
:10419000CCEF20F0D5EF20F00850045E0950055A0E
:1041A0000A50065A0B50075A0E80D8900B320A322A
:1041B000093208320C2EB8EF20F00D50D8B4E3EFDE
:1041C00020F0E5EF20F0EDEF20F0111E101E0F1E85
:1041D0000E6C000E0F22102211220EC004F00FC030
:1041E00005F010C006F011C007F012001F34203493
:1041F000266E2650D8A4FFEF20F001EF21F00BEF40
:1042000021F0000E1D6E000E1E6E000E1F6E000EC1
:10421000206E78EF21F01DC021F01EC022F01FC0DB
:1042200023F020C024F0200E1BEF21F0D890243280
:10423000233222322132E82E16EF21F02150256E52
:104240001F8EFF0E1D16FF0E1E16FF0E1F16000EF0
:104250002016960E265E26BE32EF21F030EF21F0BA
:1042600048EF21F02650800A970FD8B03AEF21F09E
:104270003CEF21F03EEF21F001EF21F0D890203209
:104280001F321E321D32263E3EEF21F060EF21F03C
:104290001F0E26644EEF21F050EF21F058EF21F071
:1042A00001EF21F0D8901D361E361F362036260627
:1042B0002650D8A45EEF21F060EF21F052EF21F0FC
:1042C0002550D8B466EF21F068EF21F070EF21F0AF
:1042D000201E1F1E1E1E1D6C000E1E221F222022CD
:1042E0001DC01DF01EC01EF01FC01FF020C020F01A
:1042F0001200000E04140C6E000E05140D6E800EDC
:1043000006140E6E7F0E07140F6E0C500D100E105B
:104310000F10D8A48EEF21F090EF21F098EF21F04C
:10432000000E046E000E056E000E066E000E076E87
:10433000000E08140C6E000E09140D6E800E0A1487
:104340000E6E7F0E0B140F6E0C500D100E100F1012
:10435000D8A4ADEF21F0AFEF21F0B7EF21F0000EC0
:10436000086E000E096E000E0A6E000E0B6E07AE90
:10437000BCEF21F0BEEF21F0C7EF21F0046C051E69
:10438000D8B0052A061ED8B0062A800E07560BAEF6
:10439000CCEF21F0CEEF21F0D7EF21F0086C091E11
:1043A000D8B0092A0A1ED8B00A2A800E0B56000E71
:1043B000041A000E051A000E061A800E071A000EC7
:1043C000081A000E091A000E0A1A800E0B1A08505D
:1043D000045C095005580A5006580B500758D8B0CD
:1043E000F4EF21F0F6EF21F0F9EF21F0D890FAEF99
:1043F00021F0D8801200C0EC26F0480ED76EE50EF2
:10440000D66E000E046E000E056E000E4FEC23F00B
:10441000000E046E010E056E010E4FEC23F0500EDF
:10442000366E080E376E31EC04F0010E046E000E8D
:10443000056E010E4FEC23F07BEC1BF03C6E000E82
:10444000046E010E056E010E4FEC23F0410E3C1878
:10445000D8A42DEF22F02FEF22F044EF22F08C9021
:104460008C923D0E3B6EE10E3A6E400EE82EFED76A
:104470003A2EFCD73B2EFAD7330E366E080E376E27
:1044800031EC04F08C908C82420E3C18D8A44BEF97
:1044900022F04DEF22F062EF22F08C908C923D0ED4
:1044A0003B6EE10E3A6E400EE82EFED73A2EFCD758
:1044B0003B2EFAD7140E366E080E376E31EC04F030
:1044C0008C808C927A0E3B6EC10E3A6E820EE82E74
:1044D000FED73A2EFCD73B2EFAD715EF22F007EF86
:1044E00000F0000E0D6E07BE7AEF22F078EF22F09A
:1044F00084EF22F0071E061E051E046C000E052226
:1045000006220722010E0D6E0BBE8BEF22F089EF03
:1045100022F093EF22F00B1E0A1E091E086C000EFB
:1045200009220A220B22085009100A100B10D8B4D5
:104530009CEF22F09EEF22F0CEEF22F0010E0C6EE7
:10454000A8EF22F0D890083609360A360B360C2A26
:104550000BAEADEF22F0AFEF22F0A2EF22F0085049
:10456000045C095005580A5006580B500758D8A04B
:10457000BCEF22F0BEEF22F0C6EF22F00850045E3E
:104580000950055A0A50065A0B50075AD8900B3258
:104590000A32093208320C2EAFEF22F00D50D8B497
:1045A000D4EF22F0D6EF22F0DEEF22F0071E061E37
:1045B000051E046C000E05220622072204C004F02A
:1045C00005C005F006C006F007C007F01200000E97
:1045D0000E6E000E0D6E000E106E010E0F6E000EB0
:1045E000126E000E116E39EF23F011500A24D96EAD
:1045F00012500B20DA6E2F0EDF6401EF23F003EF71
:1046000023F04AEF23F011500A24D96E12500B20E8
:10461000DA6E3A0EDF600FEF23F011EF23F04AEF6E
:1046200023F011500A24D96E12500B20DA6EDF509D
:104630000C6ED00E0C24046E056AFF0E05220FC00E
:1046400006F010C007F0FDEC27F004500D260550D1
:104650000E220FC004F010C005F0000E076E0A0E07
:10466000066EFDEC27F004C00FF005C010F0114AF3
:10467000122A0AC004F00BC005F0CFEC27F004505A
:10468000115C05501258D8A048EF23F04AEF23F0F0
:10469000F5EF22F00DC00AF00EC00BF01200086E0C
:1046A0009AEF23F00450D8A458EF23F05CEF23F0E6
:1046B000066A062A5DEF23F0066A06468D50061844
:1046C000FD0B06188D6E0550D8A469EF23F06DEF31
:1046D00023F0066A062A6EEF23F0066A8D5006184C
:1046E000FE0B06188D6EAFEF23F00450D8A47BEFBD
:1046F00023F07FEF23F0066A062A80EF23F0066A94
:10470000064606468B500618FB0B06188B6E0550A6
:10471000D8A48DEF23F091EF23F0066A062A92EFDA
:1047200023F0066A06468B500618FD0B06188B6EA2
:10473000AFEF23F00850066E076A0750000AD8B49E
:10474000A4EF23F0AFEF23F00650000AD8B452EFE5
:1047500023F0010AD8B475EF23F0AFEF23F0120075
:10476000066EDBEF23F0D590D592D59408EF24F0B8
:10477000D580D592D59408EF24F0D590D582D594E4
:1047800008EF24F0D580D582D59408EF24F0D59099
:10479000D592D58408EF24F0D580D592D58408EF42
:1047A00024F0D590D582D58408EF24F0D580D58229
:1047B000D58408EF24F00650046E056A0550000AFF
:1047C000D8B4E5EF23F008EF24F00450000AD8B481
:1047D000B3EF23F0010AD8B4B8EF23F0030AD8B43A
:1047E000BDEF23F0010AD8B4C2EF23F0070AD8B412
:1047F000C7EF23F0010AD8B4CCEF23F0030AD8B4F2
:10480000D1EF23F0010AD8B4D6EF23F008EF24F05B
:104810001200000E04140C6E000E05140D6E800EB6
:1048200006140E6E7F0E07140F6E0C500D100E1036
:104830000F10D8A41EEF24F020EF24F028EF24F06E
:10484000000E046E000E056E000E066E000E076E62
:10485000000E08140C6E000E09140D6E800E0A1462
:104860000E6E7F0E0B140F6E0C500D100E100F10ED
:10487000D8A43DEF24F03FEF24F047EF24F0000EE2
:10488000086E000E096E000E0A6E000E0B6E0850C8
:1048900004180FE1095005180CE10A50061809E147
:1048A0000B500718D8B457EF24F059EF24F05CEF01
:1048B00024F0D8905DEF24F0D880120012C004F0EC
:1048C00013C005F0CFEC27F0FF0E04240001F46FB5
:1048D000FF0E0520F56F22EE80F010EEB4F03F0ED3
:1048E000DBCFE3FFE806FCE2000EF76F000EF66F89
:1048F00090EF24F0F651125C146EF7511358156EB8
:10490000F4511424D96EF5511520DA6EB40EF62543
:10491000E16E000EF721E26EDFCFE7FFF64BF72BDB
:10492000F651F45DF551800A146EF751800A14585F
:10493000D8B09DEF24F09FEF24F07AEF24F012C05E
:1049400008F013C009F0B40E0A6E000E0B6E11ECE5
:1049500026F01200000E0C6E000E0B6EDDEF24F040
:104960000B500824D96E0C500920DA6E600EDF64FB
:10497000BCEF24F0BEEF24F0DBEF24F00B50082452
:10498000D96E0C500920DA6E7B0EDF60CAEF24F07E
:10499000CCEF24F0DBEF24F00B500824D96E0C5040
:1049A0000920DA6E0B500824E16E0C500920E26EEB
:1049B000E750E00FDF6E0B4A0C2A08C004F009C074
:1049C00005F0CFEC27F00B50045C0C500558D8B024
:1049D000ECEF24F0EEEF24F0B0EF24F0120012C060
:1049E00008F013C009F014C00AF015C00BF0000E57
:1049F000046E6C0E056EDC0E066E020E076E70EC19
:104A000020F004C016F005C017F006C018F007C06B
:104A100019F016C004F017C005F018C006F019C050
:104A200007F0040E086E000E096E000E0A6E000EEE
:104A30000B6E70EC20F0FF0E04241A6EFF0E0520A2
:104A40001B6E948C948EAB8EAC98AC84B8861B5045
:104A5000B06E1AC0AFFFAC9CAC8AAB9CAB881200A6
:104A60000600F2A436EF25F038EF25F050EF25F0E0
:104A7000480ED76EE50ED66E4B4A4C2A020E4B18E6
:104A80004C10D8A446EF25F048EF25F04FEF25F065
:104A9000000E52EC27F0000E4C6E000E4B6EF2949E
:104AA000F2A055EF25F057EF25F06FEF25F0F290CB
:104AB00081380F0B0F0B536E5450D8B462EF25F0B2
:104AC00064EF25F06FEF25F00F0E5318D8B46BEF9D
:104AD00025F06DEF25F06FEF25F0000E546E559226
:104AE000110008C004F009C005F0CFEC27F004C0A5
:104AF0000EF005C00FF00AC0D9FF0BC0DAFFDE28A8
:104B000008E1DE28D8B487EF25F089EF25F0ACEF77
:104B100025F00AC0D9FF0BC0DAFFDECF10F0DDCFE1
:104B200011F09DEF25F010500824D96E1150092086
:104B3000DA6E000EDF6E104A112A0E50105C115012
:104B4000800A0C6E0F50800A0C58D8A0AAEF25F0EE
:104B5000ACEF25F093EF25F01200E60EF66E4E0E48
:104B6000F76E000EF86E02EE80F010EE40F00900D5
:104B7000F5CFEEFFE550E150FAE1D80EF66E4C0E9F
:104B8000F76E000EF86E00EE60F010EE54F00900C3
:104B9000F5CFEEFFE550E150FAE102EE00F0800EB5
:104BA000EE6AE806FDE100EE3DF0180EEE6AE8065A
:104BB000FDE155905592000EF86E0001FBEF21F0DB
:104BC000000E0D6E000E0C6EFDEF25F00C5008244B
:104BD000D96E0D500920DA6E0A50DE18D8A4F3EF12
:104BE00025F0F5EF25F0FBEF25F00CC008F00DC027
:104BF00009F010EF26F00C4A0D2A08C004F009C095
:104C000005F0CFEC27F004500C5C05500D58D8A0EF
:104C10000CEF26F00EEF26F0E6EF25F008680968A5
:104C200012000AC00EF00BC00FF008C010F009C04F
:104C300011F00E500C6E0F500D6E0E4A0F2A0CC064
:104C4000F6FF0DC0F7FFF86A10C0D9FF11C0DAFFF8
:104C5000104A112A070EF76403D00800F55005D05A
:104C6000F6CFE1FFF7CFE2FFE750DF6EDF50D8A4C9
:104C70003CEF26F03EEF26F019EF26F01200000E72
:104C80000D6E000E0C6E59EF26F00C500824D96EF4
:104C90000D500920DA6E0A50DE18D8A452EF26F023
:104CA00054EF26F057EF26F0010E6BEF26F00C4A7A
:104CB0000D2A08C004F009C005F0CFEC27F004501D
:104CC0000C5C05500D58D8A068EF26F06AEF26F06E
:104CD00045EF26F0000E120020000000000000004A
:104CE00000000000000000000000000000000000C4
:104CF00000000000000000000000000000000000B4
:104D000000000000000000000000000000000000A3
:104D100000000000000000003132334134353642DB
:104D2000373839432A3023440000000008C004F01B
:104D300009C005F0CFEC27F004C00BF005C00CF063
:104D4000000E0E6E000E0D6EB0EF26F00D50082412
:104D5000D96E0E500920DA6E000EDF6E0D4A0E2A53
:104D60000B500D5C0E50800A0A6E0C50800A0A58D7
:104D7000D8A0BDEF26F0BFEF26F0A6EF26F0120078
:104D80001BEC28F023EC28F02AEC28F0000E046E2F
:104D9000000E056E000E066E000E93EC27F0060E58
:104DA000B0EC23F027EC28F0000EE7EC26F0010E23
:104DB000E7EC26F0800E126E250E136E000E146EB8
:104DC000000E156EEFEC24F0959095901200066E93
:104DD000F6EF26F0969296908D928D900BEF27F03D
:104DE000949494928B948B920BEF27F00650046E60
:104DF000056A0550000AD8B400EF27F00BEF27F042
:104E00000450000AD8B4EAEF26F0010AD8B4F0EF53
:104E100026F00BEF27F01200000E211A000E221AC6
:104E2000000E231A800E241A1DC004F01EC005F0C7
:104E30001FC006F020C007F021C008F022C009F012
:104E400023C00AF024C00BF091EC0CF004C01DF05C
:104E500005C01EF006C01FF007C020F01200000EB3
:104E60000B6E000E0A6E40EF27F00A500824D96E30
:104E70000B500920DA6EDF5010EC28F00A4A0B2A9A
:104E800008C004F009C005F0CFEC27F004500A5C1C
:104E900005500B58D8A04FEF27F051EF27F035EF12
:104EA00027F01200036E5DEF27F08D728D7072EFA8
:104EB00027F08B748B7272EF27F00350016E026A39
:104EC0000250000AD8B467EF27F072EF27F00150C4
:104ED000000AD8B455EF27F0010AD8B459EF27F0EB
:104EE00072EF27F012002000000000000000000018
:104EF00000000000000000000000000000000000B2
:104F000000000000000000000000000000000000A1
:104F10000000000000000000000000000000000091
:104F2000000000000000076ED58E07B002D0D59CAF
:104F300001D0D58C04B002D0D59A01D0D58A05B065
:104F400002D0D59801D0D58806B002D0D59601D030
:104F5000D5860450D8B4AFEF27F0B1EF27F0B2EF09
:104F600027F0928812000450051006100710D8B4DC
:104F7000BCEF27F0BEEF27F0C6EF27F0000E041AB3
:104F8000000E051A000E061A800E071A04C004F05F
:104F900005C005F006C006F007C007F0120004C007
:104FA00006F005C007F0D7EF27F0044A052A04C031
:104FB000D9FF05C0DAFFDF50D8A4E1EF27F0E3EF17
:104FC00027F0D5EF27F00650045C046E0750055813
:104FD000056E120012C004F013C005F0CFEC27F0EC
:104FE00004501224086E05501320096E14C00AF0F4
:104FF00015C00BF011EC26F0120004500602F3CF9E
:1050000008F0F4CF09F004500702F35009260550C8
:105010000602F350092608C004F009C005F012008A
:10502000046EACA216EF28F018EF28F011EF28F06C
:1050300004C0ADFF1200000E816EF00E936E000EE4
:105040008A6EF19E1200D09EF28EF28C1200F28ACD
:0A505000F2941200F286F2901200B2
:020000040020DA
:08000000FFFFFFFFFFFFFFFF00
:020000040030CA
:0E000000240E3F1EFF8181FF0FC00FE00F4056
:00000001FF
