:020000040000FA
:0400000007EF00F016
:0A0008003D823CED27F0B1EF25F03A
:1008000000256373646978586F7566674765456E40
:10081000070006004D6F746F7220676972616E6425
:100820006F2061206C6120497A717569657264611D
:100830000A0A004D6F746F7220676972616E646F8F
:100840002061206C6120446572656368610A0A005A
:100850004C6120756C74696D61207465636C6120F6
:100860006675652025750A0A004D6F746F722064E5
:100870006574656E69646F0A0A004249454E5645C3
:100880004E49444F0A0A002000250000D80E0301FB
:10089000E66F000EE76F23EE00F07F0EDE6AE806DB
:1008A000FDE2000E836F000E826F000E816F000E5E
:1008B000806F000ED16F000ED06F20EE60F013EE4F
:1008C00090F03F0EDBCFE3FFE806FCE2000ED56FB1
:1008D000000ED46FEBEF09F0250ED019D8A473EFFA
:1008E00004F075EF04F0DEEF09F0900E086E030ED1
:1008F000096E9DEC26F0840E086E030E096E9DECC9
:1009000026F00301DA69DB69E869E969250E846F7D
:10091000000ED96F000ED86F000EE56F010EE46F68
:10092000D9EF04F0D6C0F6FFD7C0F7FF840EE42558
:10093000D96E030EE521DA6E0800F5CFDFFF000166
:10094000D64BD72B000E0301DD6F000EDC6FDDBF31
:10095000B3EF04F0DD5109E10F0EDC5DD8A0B3EF79
:1009600004F0B5EF04F0B7EF04F0D7EF04F0840E15
:10097000E425D96E030EE521DA6EDF50366E010EE6
:10098000DC25F66E080EDD21F76E0800F5503618EE
:10099000D8A4CDEF04F0CFEF04F0D3EF04F0E4C31C
:1009A000D8F3E5C3D9F3DC4BDD2BA7EF04F0E44B20
:1009B000E52BD851D911D8B4E0EF04F0E2EF04F000
:1009C00092EF04F0000EE56F000EE46F000EDD6F95
:1009D000000EDC6F4BEF05F0840EDC25D96E030EA4
:1009E000DD21DA6E2A0EDE18D8A4F9EF04F0FBEF51
:1009F00004F012EF05F0E451E511D8A402EF05F080
:100A000004EF05F012EF05F0E6C3D9FFE7C3DAFF04
:100A1000DECFDAF3DDCFDBF3020EE627000EE723AD
:100A200049EF05F0840EDC25D96E030EDD21DA6E68
:100A30002A0EDE18D8A41FEF05F021EF05F038EFDD
:100A400005F0E405E511D8A428EF05F02AEF05F03C
:100A500038EF05F0E6C3D9FFE7C3DAFFDECFE8F3EE
:100A6000DDCFE9F3020EE627000EE72349EF05F09C
:100A7000840EDC25D96E030EDD21DA6E2E0EDE1813
:100A8000D8A445EF05F047EF05F049EF05F0E44B3A
:100A9000E52BDC4BDD2BD851DC5DDD51800A366E59
:100AA000D951800A3658D8A058EF05F05AEF05F012
:100AB000ECEF04F0840E0001C86F030EC96FDA0E6C
:100AC000CA6F030ECB6FE80ECC6F030ECD6F77ECC1
:100AD00017F00301DBBF76EF05F0DB5109E1400EB3
:100AE000DA5DD8A076EF05F078EF05F07CEF05F041
:100AF000000EDB6F000EDA6FE9BF88EF05F0E951F9
:100B000009E1400EE85DD8A088EF05F08AEF05F016
:100B10006EEF09F0000EE96F000EE86F6EEF09F05E
:100B2000900E086E030E096E890E0A6E080E0B6E8B
:100B300018EC26F0BDEF09F0E6C3D9FFE7C3DAFFF2
:100B4000DF50806F020EE627000EE723900E086E3E
:100B5000030E096E800E0A6E030E0B6E18EC26F063
:100B6000BDEF09F0E6C3D9FFE7C3DAFFDECF8EF3AE
:100B7000DDCF8FF3020EE627000EE723900E086EFE
:100B8000030E096E8EC30AF08FC30BF018EC26F02B
:100B9000900E086E030E096EE80E0A6E030E0B6EC1
:100BA00075EC25F0BDEF09F0E6C3D9FFE7C3DAFF26
:100BB000DECFDEF3DDCFDFF3020EE627000EE72304
:100BC000900E0001C86F030EC96FDEC3CAF0DFC309
:100BD000CBF0000ECBBFFF0ECC6FCD6F000ECF6FF2
:100BE0000A0ECE6F4CEC1DF0900E086E030E096ECF
:100BF000E80E0A6E030E0B6EA0EC20F0900E126E43
:100C0000030E136EDEC304F0DFC305F0000E05BE55
:100C1000FF0E066E076E010EA0EC1BF004C014F070
:100C200005C015F006C016F007C017F0CBEC1EF09B
:100C3000BDEF09F0E6C3D9FFE7C3DAFFDECFDEF38D
:100C4000DDCFDFF3020EE627000EE723900E000152
:100C5000C86F030EC96FDEC3CAF0DFC3CBF0000E4E
:100C6000CBBFFF0ECC6FCD6F000ECF6F0A0ECE6FD5
:100C70004CEC1DF0900E086E030E096EE80E0A6E25
:100C8000030E0B6EA0EC20F0900E126E030E136E8E
:100C9000DEC304F0DFC305F0000E05BEFF0E066ED6
:100CA000076E010EA0EC1BF004C014F005C015F097
:100CB00006C016F007C017F0CBEC1EF0BDEF09F030
:100CC000E6C3D9FFE7C3DAFFDECFD2F3DDCFD3F33C
:100CD000020EE627000EE723900E0001C86F030EF8
:100CE000C96FD2C3CAF0D3C3CBF0CC6BCD6B000EAF
:100CF000CF6F0A0ECE6F4CEC1DF0900E086E030EF7
:100D0000096EE80E0A6E030E0B6EA0EC20F0BDEF2C
:100D100009F0E6C3D9FFE7C3DAFFDECFDEF3DDCFAC
:100D2000DFF3020EE627000EE723900E0001C86FE6
:100D3000030EC96FDEC3CAF0DFC3CBF0000ECBBF1A
:100D4000FF0ECC6FCD6F000ECF6F100ECE6F4CEC40
:100D50001DF0900E086E030E096EE80E0A6E030E6B
:100D60000B6EA0EC20F0900E086E030E096EDEC331
:100D70000AF0DFC30BF0780E0C6E0FEC1EF0900E35
:100D8000086E030E096EEFEC24F0BDEF09F0E6C328
:100D9000D9FFE7C3DAFFDECFDEF3DDCFDFF3020EEC
:100DA000E627000EE723900E0001C86F030EC96FFF
:100DB000DEC3CAF0DFC3CBF0000ECBBFFF0ECC6F9B
:100DC000CD6F000ECF6F100ECE6F4CEC1DF0900E5D
:100DD000086E030E096EE80E0A6E030E0B6EA0EC91
:100DE00020F0900E086E030E096EDEC30AF0DFC31A
:100DF0000BF0780E0C6E0FEC1EF0BDEF09F0E6C3A1
:100E0000D9FFE7C3DAFFDECFDEF3DDCFDFF3020E7B
:100E1000E627000EE723900E0001C86F030EC96F8E
:100E2000DEC3CAF0DFC3CBF0000ECBBFFF0ECC6F2A
:100E3000CD6F000ECF6F080ECE6F4CEC1DF0900EF4
:100E4000086E030E096EE80E0A6E030E0B6EA0EC20
:100E500020F0900E086E030E096EDEC30AF0DFC3A9
:100E60000BF06F0E0C6E0FEC1EF0BDEF09F0E6C339
:100E7000D9FFE7C3DAFFDECFE0F3DECFE1F3DECF69
:100E8000E2F3DECFE3F3040EE627000EE723900E35
:100E9000276E030E286EE0C329F0E1C32AF0E2C3F7
:100EA0002BF0E3C32CF0F3EC12F0900E1F6E030E48
:100EB000206EE80E216E030E226EB9EC1AF0900E31
:100EC000126E030E136EE0C314F0E1C315F0E2C31B
:100ED00016F0E3C317F0CBEC1EF0BDEF09F0E6C34C
:100EE000D9FFE7C3DAFFDECFE0F3DECFE1F3DECFF9
:100EF000E2F3DECFE3F3040EE627000EE723900EC5
:100F00000001D06F030ED16FE0C3D2F0E1C3D3F084
:100F1000E2C3D4F0E3C3D5F007EC16F0900E1F6ED9
:100F2000030E206EE80E216E030E226EB4EC19F053
:100F30005FEF07F0E6C3D9FFE7C3DAFFDECFE0F3E8
:100F4000DECFE1F3DECFE2F3DECFE3F3040EE627FC
:100F5000000EE723900E0001D06F030ED16FE0C3A7
:100F6000D2F0E1C3D3F0E2C3D4F0E3C3D5F007EC91
:100F700016F0900E1F6E030E206EE80E216E030E0B
:100F8000226EB4EC19F0900E126E030E136EE0C3D5
:100F900014F0E1C315F0E2C316F0E3C317F0CBEC95
:100FA0001EF0BFEF06F0E6C3D9FFE7C3DAFFDECFDE
:100FB000E0F3DECFE1F3DECFE2F3DECFE3F3040EC6
:100FC000E627000EE723900E0001D06F030ED16FCD
:100FD000E0C3D2F0E1C3D3F0E2C3D4F0E3C3D5F071
:100FE00007EC16F0D0C0D6F3D1C0D7F3900E276E21
:100FF000030E286EE0C329F0E1C32AF0E2C32BF010
:10100000E3C32CF0F3EC12F0000E0301DD6F000ED1
:10101000DC6F000EE56F000EE46F40EF08F0900EFD
:10102000E425D96E030EE521DA6E2E0EDE18D8A463
:101030001CEF08F01EEF08F020EF08F052EF08F068
:10104000900EE425D96E030EE521DA6E2F0EDF64D3
:101050002CEF08F02EEF08F03EEF08F0900EE4259C
:10106000D96E030EE521DA6E3A0EDF603AEF08F032
:101070003CEF08F03EEF08F0DC4BDD2BE44BE52BBA
:10108000900E046E030E056E44EC28F0045003012C
:10109000E45D0550E559D8A050EF08F052EF08F094
:1010A0000FEF08F0E82906E1E929D8A45AEF08F083
:1010B0005CEF08F060EF08F0000EE96F060EE86FD5
:1010C000D7AF6EEF08F0FD0ED65DFF0ED759D8A052
:1010D0006CEF08F06EEF08F07DEF08F0DC51E85D92
:1010E000E951800A366EDD51800A3658D8B07BEF60
:1010F00008F07DEF08F08CEF08F0900E0001D06F43
:10110000030ED16FE0C3D2F0E1C3D3F0E2C3D4F059
:10111000E3C3D5F007EC16F0900E1F6E030E206EA1
:10112000E80E216E030E226E05EC0AF05FEF07F069
:10113000E6C3D9FFE7C3DAFFDECFE0F3DECFE1F3AA
:10114000DECFE2F3DECFE3F3040EE627000EE72363
:10115000900E0001D06F030ED16FE0C3D2F0E1C357
:10116000D3F0E2C3D4F0E3C3D5F007EC16F0D0C05F
:10117000D6F3D1C0D7F3900E276E030E286EE0C3CE
:1011800029F0E1C32AF0E2C32BF0E3C32CF0F3EC27
:1011900012F0000E0301DD6F000EDC6F000EE56F34
:1011A000000EE46F05EF09F0900EE425D96E030EF2
:1011B000E521DA6E2E0EDE18D8A4E1EF08F0E3EF99
:1011C00008F0E5EF08F017EF09F0900EE425D96E6E
:1011D000030EE521DA6E2F0EDF64F1EF08F0F3EF76
:1011E00008F003EF09F0900EE425D96E030EE52117
:1011F000DA6E3A0EDF60FFEF08F001EF09F003EF5F
:1012000009F0DC4BDD2BE44BE52B900E046E030E56
:10121000056E44EC28F004500301E45D0550E559E7
:10122000D8A015EF09F017EF09F0D4EF08F0E8297E
:1012300006E1E929D8A41FEF09F021EF09F025EF15
:1012400009F0000EE96F060EE86FD7AF33EF09F033
:10125000FD0ED65DFF0ED759D8A031EF09F033EF60
:1012600009F042EF09F0DC51E85DE951800A366E81
:10127000DD51800A3658D8B040EF09F042EF09F04E
:1012800051EF09F0900E0001D06F030ED16FE0C353
:10129000D2F0E1C3D3F0E2C3D4F0E3C3D5F007EC5E
:1012A00016F0900E1F6E030E206EE80E216E030ED8
:1012B000226E05EC0AF0C3EF07F0900E086E030EE5
:1012C000096E870E0A6E080E0B6E18EC26F0BDEF45
:1012D00009F0D407D8A0D507BDEF09F0840ED825B2
:1012E000D96E030ED921DA6EDF50366E376A375069
:1012F000000AD8B47EEF09F069EF09F03650250AEC
:10130000D8B490EF05F0600AD8B49AEF07F0020A5B
:10131000D8B498EF08F01F0AD8B489EF06F03B0A5A
:10132000D8B49CEF05F0070AD8B4D4EF05F0010A51
:10133000D8B46FEF07F0030AD8B437EF07F0010A0B
:10134000D8B4D3EF07F00E0AD8B41AEF06F0070AA4
:10135000D8B45DEF09F0010AD8B4FFEF06F01C0A1B
:10136000D8B4B2EF05F0060AD8B460EF06F00D0A63
:10137000D8B4C7EF06F069EF09F0900E086E030EBF
:10138000096EDA0E0A6E030E0B6E9EEC18F0000E5C
:10139000126E030E136E900E146E030E156E5FEC3C
:1013A00028F0900E046E030E056E44EC28F00450F5
:1013B0000301822705508323EBEF09F0000E126E24
:1013C000030E136ED00E146E030E156E5FEC28F034
:1013D0000301824B832BD6C0F6FFD7C0F7FF000175
:1013E000D64BD72B0800F5CFD0F30301D051D8A4AA
:1013F000FCEF09F0FEEF09F06CEF04F0000E086E50
:10140000030E096E83EC27F012001FC004F020C009
:1014100005F044EC28F004C02EF005C02FF01FC0EA
:1014200008F020C009F0650E0A6EE7EC25F008C050
:101430002CF009C02DF01FC008F020C009F02E0EBE
:101440000A6EE7EC25F008C026F009C027F0000E70
:10145000296E000E286E000E2B6E000E2A6E21C023
:10146000D9FF22C0DAFFDE2806E1DE28D8A43BEF50
:101470000AF03DEF0AF045EF0AF021C0D9FF22C083
:10148000DAFF060EDE6E000EDD6E2DBE52EF0AF0A4
:101490002D5006E12C04D8B050EF0AF052EF0AF0BC
:1014A00058EF0AF02EC032F02FC033F05CEF0AF094
:1014B0002CC032F02DC033F0000E356E000E346EAD
:1014C000BAEF0AF034501F24D96E35502020DA6E5E
:1014D0002F0EDF646EEF0AF070EF0AF0A7EF0AF04C
:1014E00034501F24D96E35502020DA6E3A0EDF605A
:1014F0007CEF0AF07EEF0AF0A7EF0AF034501F24C9
:10150000D96E35502020DA6E300EDE18D8A48BEF5D
:101510000AF08DEF0AF096EF0AF02A502B10D8B49B
:1015200094EF0AF096EF0AF0B8EF0AF02A4A2B2A55
:101530002A042B10D8A49FEF0AF0A1EF0AF0B8EF0D
:101540000AF034C028F035C029F0B8EF0AF0345062
:101550001F24D96E35502020DA6E650EDE18D8A40F
:10156000B4EF0AF0B6EF0AF0B8EF0AF0C9EF0AF0EC
:10157000344A352A34502E5C2F50800A236E355061
:10158000800A2358D8B0C7EF0AF0C9EF0AF062EF1B
:101590000AF0FF0E3224346EFF0E3320356E35BE56
:1015A000D6EF0AF0D4EF0AF0D8EF0AF023EF0BF0F1
:1015B00034501F24D96E35502020DA6E300EDE18DC
:1015C000D8A4E5EF0AF0E7EF0AF0ECEF0AF02A06FC
:1015D000D8A02B0619EF0BF034501F24D96E3550CC
:1015E0002020DA6E300EDF64F8EF0AF0FAEF0AF02E
:1015F00008EF0BF034501F24D96E35502020DA6EDE
:10160000390EDF6406EF0BF008EF0BF023EF0BF061
:1016100034501F24D96E35502020DA6E2E0EDE187D
:10162000D8A415EF0BF017EF0BF019EF0BF023EF29
:101630000BF03406D8A0350635BE23EF0BF021EFB2
:101640000BF0D8EF0AF021C0D9FF22C0DAFF2A50F0
:10165000DE5CDE50800A256E2B50800A2558D8B0FB
:1016600034EF0BF036EF0BF0B0EF0CF021C0D9FFE8
:1016700022C0DAFFDECF23F0DDCF24F02850232470
:10168000346E29502420356E2650285C2950800A5B
:10169000236E2750800A2358D8B051EF0BF053EF38
:1016A0000BF064EF0BF02650345C3550800A236E4B
:1016B0002750800A2358D8A060EF0BF062EF0BF0A0
:1016C00064EF0BF0344A352A3450325C306E3550BA
:1016D0003358316E31BE75EF0BF0315008E13004F4
:1016E000D8A075EF0BF077EF0BF002EF0CF01FC0F6
:1016F0000EF020C00FF02CC010F02DC011F034C03F
:1017000012F035C013F08CEC14F00E040F10D8A4B6
:101710008CEF0BF08EEF0BF0D7EF0BF0000E336E6B
:10172000000E326EB8EF0BF032501F24D96E3350DA
:101730002020DA6E300EDF64A0EF0BF0A2EF0BF08A
:10174000B6EF0BF032501F24D96E33502020DA6EE2
:101750003A0EDF60AEEF0BF0B0EF0BF0B6EF0BF030
:1017600032C028F033C029F0C9EF0BF0344A352AD3
:101770001FC004F020C005F044EC28F03250045C97
:1017800033500558D8B0C7EF0BF0C9EF0BF094EF0A
:101790000BF021C0D9FF22C0DAFFDECF23F0DDCF6E
:1017A00024F028502324346E29502420356E34C070
:1017B00032F035C033F0F3EF0BF032501F24236EBC
:1017C00033502020246E30502324D96E31502420F1
:1017D000DA6E32501F24E16E33502020E26EDFCFEC
:1017E000E7FF324A332A2E50325C3350800A236E90
:1017F0002F50800A2358D8A000EF0CF002EF0CF015
:10180000DDEF0BF03A50D8A408EF0CF00AEF0CF023
:10181000B0EF0CF01FC008F020C009F02E0E0A6EC9
:10182000E7EC25F008C026F009C027F01FC004F03F
:1018300020C005F044EC28F004C02EF005C02FF0C5
:101840001FC008F020C009F0650E0A6EE7EC25F015
:1018500008C02CF009C02DF02DBE39EF0CF02D5032
:1018600006E12C04D8B037EF0CF039EF0CF03FEF65
:101870000CF02EC032F02FC033F043EF0CF02CC030
:1018800032F02DC033F0FF0E3224306EFF0E3320C5
:10189000316EA1EF0CF030501F24D96E3150202052
:1018A000DA6E300EDF6457EF0CF059EF0CF069EF91
:1018B0000CF030501F24D96E31502020DA6E3A0ED1
:1018C000DF6065EF0CF067EF0CF069EF0CF0B0EF44
:1018D0000CF01FC004F020C005F044EC28F004C058
:1018E0002EF005C02FF030C034F031C035F08FEF4E
:1018F0000CF034501F24236E35502020246E010E2E
:101900002324D96E000E2420DA6E34501F24E16E99
:1019100035502020E26EDFCFE7FF344A352A3450BD
:101920002E5C2F50800A236E3550800A2358D8B081
:101930009CEF0CF09EEF0CF079EF0CF03006D8A085
:1019400031062650305C3150800A236E2750800AC1
:101950002358D8B0AEEF0CF0B0EF0CF04BEF0CF01A
:1019600012000750800B106E07500724126E06AE4F
:10197000BCEF0CF0BEEF0CF0BFEF0CF01280125079
:10198000D8B4C5EF0CF0C7EF0CF0DCEF0CF0122868
:10199000D8A4CDEF0CF0CFEF0CF0D7EF0CF0000E89
:1019A000046E000E056E000E066E000E076E068EAB
:1019B000000E076EE4EF0CF0000E046E000E056ED4
:1019C000000E066E000E076E0B50800B116E10504D
:1019D0001118D8B4EEEF0CF0F0EF0CF0F1EF0CF0C2
:1019E000108C0B500B24116E0AAEF9EF0CF0FBEFCC
:1019F0000CF0FCEF0CF011801150D8B402EF0DF098
:101A000004EF0DF019EF0DF01128D8A40AEF0DF036
:101A10000CEF0DF014EF0DF0000E086E000E096EC5
:101A2000000E0A6E000E0B6E0A8E000E0B6E21EF7A
:101A30000DF0000E086E000E096E000E0A6E000E0C
:101A40000B6E1250115CD8B028EF0DF02AEF0DF09C
:101A500051EF0DF010AC2FEF0DF031EF0DF033EF33
:101A60000DF0800E101A12C013F011C012F013C046
:101A700011F004C013F008C004F013C008F005C052
:101A800013F009C005F013C009F006C013F00AC036
:101A900006F013C00AF007C013F00BC007F013C024
:101AA0000BF0000E136E125011C00CF00D6A0C5E9C
:101AB000000E0D5A0DBE66EF0DF00D5009E11A0E25
:101AC0000C5CD8A066EF0DF068EF0DF09FEF0DF005
:101AD0000450051006100710D8A471EF0DF074EF34
:101AE0000DF0010E75EF0DF0000E136E000E046E7A
:101AF000000E056E000E066E000E076E11C012F08D
:101B0000A8EF0DF013A087EF0DF089EF0DF08FEF28
:101B10000DF0D89013300109136E91EF0DF0D890AD
:101B2000133204A096EF0DF098EF0DF099EF0DF041
:101B3000138E07340732063205320432122A11504E
:101B4000125CD8A0A6EF0DF0A8EF0DF082EF0DF01B
:101B500010BCADEF0DF0AFEF0DF0EFEF0DF0125048
:101B6000D8A4B5EF0DF0B7EF0DF0C1EF0DF0000EFA
:101B7000046E000E056E000E066E000E076E10EF6E
:101B80000FF008500426095005220A5006220B5077
:101B9000072207A0CEEF0DF0D0EF0DF07CEF0EF096
:101BA00013A0D5EF0DF0D7EF0DF0DDEF0DF0D890CD
:101BB00013300109136EDFEF0DF0D890133204A03B
:101BC000E4EF0DF0E6EF0DF0E7EF0DF0138E0734C4
:101BD0000732063205320432122A7CEF0EF008502A
:101BE000045C095005580A5006580750800A0C6ECC
:101BF0000B50800A0C58D8B000EF0EF002EF0EF038
:101C00002DEF0EF00450085C0C6E055009580D6E57
:101C100006500A580E6E07500B580F6EFF0E0C241C
:101C2000046EFF0E0D20056EFF0E0E20066EFF0ED9
:101C30000F20076E800E101A136C1350D8A423EFD8
:101C40000EF025EF0EF035EF0EF0010E0426000E1B
:101C500005220622072235EF0EF00850045E0950D7
:101C6000055A0A50065A0B50075A04500510061020
:101C70000710D8A43EEF0EF040EF0EF075EF0EF017
:101C80001350D8A446EF0EF048EF0EF075EF0EF0AB
:101C9000000E046E000E056E000E066E000E076E3E
:101CA00010EF0FF0D890043605360636073613AE1F
:101CB0005CEF0EF05EEF0EF05FEF0EF0048013A00D
:101CC00064EF0EF066EF0EF06AEF0EF0D880133678
:101CD0006CEF0EF0D89013361250D8B472EF0EF0AD
:101CE00074EF0EF075EF0EF0120606AE7AEF0EF0FE
:101CF0007CEF0EF052EF0EF0000E116E13AE83EF7C
:101D00000EF085EF0EF09DEF0EF013C00CF07F0E7D
:101D10000C16D8B48EEF0EF090EF0EF094EF0EF09C
:101D2000010E116E9DEF0EF004A099EF0EF09BEFE7
:101D30000EF09DEF0EF090EF0EF01150D8B4A3EF1F
:101D40000EF0A5EF0EF0D0EF0EF0010E0426000EFF
:101D500005220622072207A0B0EF0EF0B2EF0EF028
:101D6000D0EF0EF004C00CF005C00DF006C00EF070
:101D700007C00FF00F340F320E320D320C320CC090
:101D800004F00DC005F00EC006F00FC007F01228D9
:101D9000D8B4CDEF0EF0CFEF0EF0D0EF0EF0122A48
:101DA0001228D8B4D6EF0EF0D8EF0EF0E0EF0EF018
:101DB0001250D8A4DEEF0EF0E0EF0EF0F2EF0EF0CE
:101DC000000E046E000E056E000E066E000E076E0D
:101DD0001250D8A4EEEF0EF0F0EF0EF0F2EF0EF08E
:101DE000000E106E12A0F7EF0EF0F9EF0EF0FCEF00
:101DF0000EF0068EFDEF0EF0069ED8901230076EA4
:101E000010AE05EF0FF007EF0FF008EF0FF0078EA1
:101E100004C004F005C005F006C006F007C007F0D6
:101E200012000750800B106E07500724166E06AE86
:101E30001CEF0FF01EEF0FF01FEF0FF01680165083
:101E4000D8B425EF0FF027EF0FF03AEF0FF0162878
:101E5000D8A42DEF0FF02FEF0FF037EF0FF0000E9B
:101E6000046E000E056E000E066E000E076E068EE6
:101E700042EF0FF0000E046E000E056E000E066EAF
:101E8000000E076E0B50800B101A0B500B24116EB6
:101E90000AAE4DEF0FF04FEF0FF050EF0FF0118043
:101EA0001150D8B456EF0FF058EF0FF06BEF0FF062
:101EB0001128D8A45EEF0FF060EF0FF068EF0FF07D
:101EC000000E086E000E096E000E0A6E000E0B6EFC
:101ED0000A8E73EF0FF0000E086E000E096E000EF2
:101EE0000A6E000E0B6E1150D8B479EF0FF07BEF35
:101EF0000FF083EF0FF01650D8A481EF0FF083EFAF
:101F00000FF08DEF0FF0000E046E000E056E000E48
:101F1000066E000E076E25EF11F00A500402F3CF93
:101F20001BF0F4CF1CF01B50126E136A146A156A72
:101F30001C50176E186A196A1A6A09500502F3CF05
:101F40001BF0F4CF1CF01B501226000E132214229B
:101F500015221C501726000E182219221A2208508A
:101F60000602F3CF1BF0F4CF1CF01B501226000E1C
:101F70001322142215221C501726000E1822192293
:101F80001A2214C015F013C014F012C013F0126A14
:101F900008500502F3CF1BF0F4CF1CF01B501226A3
:101FA0001C501322000E1422000E152209500402A8
:101FB000F3CF1BF0F4CF1CF01B5012261C50132241
:101FC000000E1422000E152214C015F013C014F0D8
:101FD00012C013F0126A08500402F3CF1BF0F4CFC2
:101FE0001CF01B5012261C501322000E1422000E4F
:101FF00015220A500502F3CF1BF0F4CF1CF01B5042
:1020000017261C501822000E1922000E1A22095001
:102010000602F3CF1BF0F4CF1CF01B5017261C5008
:102020001822000E1922000E1A220A500602F3CFBF
:102030001BF0F4CF1CF01B500C6E1C500D6E0E6A82
:102040000F6A0EC00FF00DC00EF00CC00DF00C6A40
:102050000C5017260D5018220E5019220F501A221C
:1020600012C00CF013C00DF014C00EF015C00FF02C
:10207000190E40EF10F0D8900F320E320D320C32A4
:10208000E82E3BEF10F00C5017260D5018220E5082
:1020900019220F501A2214C015F013C014F012C0E8
:1020A00013F0126A115016C00CF00D6A0C26000EC7
:1020B0000D22820E0C241B6EFF0E0D201C6E76EF7F
:1020C00010F0D8901736183619361A3615AE6BEF51
:1020D00010F06DEF10F06EEF10F01780D890123600
:1020E0001336143615361B06D8A01C0619AE7BEF26
:1020F00010F07DEF10F061EF10F0000E116E15AED4
:1021000084EF10F086EF10F0AAEF10F0FF0E12141B
:102110000C6EFF0E13140D6EFF0E14140E6E7F0E58
:1021200015140F6E0C500D100E100F10D8B49BEF3D
:1021300010F09DEF10F0A1EF10F0010E116EAAEF5C
:1021400010F017A0A6EF10F0A8EF10F0AAEF10F013
:102150009DEF10F01150D8B4B0EF10F0B2EF10F0C6
:10216000D6EF10F0010E1726000E182219221A229F
:102170001AA0BDEF10F0BFEF10F0D6EF10F017C0AF
:102180000CF018C00DF019C00EF01AC00FF00F348B
:102190000F320E320D320C320CC017F00DC018F099
:1021A0000EC019F00FC01AF01B4A1C2A1CBEE1EF2A
:1021B00010F01C5008E11B28D8A0E1EF10F0E3EF6D
:1021C00010F0EDEF10F0000E176E000E186E800E7E
:1021D000196E7F0E1A6E1BEF11F01CBEFAEF10F095
:1021E0001C5006E11B04D8B0F8EF10F0FAEF10F025
:1021F00006EF11F0000E176E000E186E000E196E2D
:10220000000E1A6E000E106E1BEF11F01BC016F0C0
:10221000FF0E1716FF0E18167F0E1916000E1A164F
:1022200016A015EF11F017EF11F018EF11F0198E3D
:10223000D89016301A6E10501A1217C004F018C039
:1022400005F019C006F01AC007F012000750800B05
:10225000146E075007241B6E06AE31EF11F033EFFA
:1022600011F034EF11F01B801B50D8B43AEF11F08D
:102270003CEF11F051EF11F01B28D8A442EF11F000
:1022800044EF11F04CEF11F0000E046E000E056EDD
:10229000000E066E000E076E068E000E076E59EFDA
:1022A00011F0000E046E000E056E000E066E000E9C
:1022B000076E0B50800B141A0B500B241C6E0AAEC9
:1022C00064EF11F066EF11F067EF11F01C801C5005
:1022D000D8B46DEF11F06FEF11F084EF11F01C28FE
:1022E000D8A475EF11F077EF11F07FEF11F0000E29
:1022F000086E000E096E000E0A6E000E0B6E0A8E3E
:10230000000E0B6E8CEF11F0000E086E000E096EC1
:10231000000E0A6E000E0B6E085009100A100B100A
:10232000D8A495EF11F097EF11F0AFEF11F0000E78
:10233000046E000E056E000E066E000E076E800E17
:1023400006127F0E07121450071204C004F005C0D5
:1023500005F006C006F007C007F0F2EF12F01B50C0
:10236000D8A4B5EF11F0B7EF11F0C1EF11F0000EE6
:10237000046E000E056E000E066E000E076EF2EF84
:1023800012F01C501BC00CF00D6A0C5E000E0D5AB2
:102390007F0E0C24156E000E0D20166E04C010F07A
:1023A00005C011F006C012F007C013F0000E046E55
:1023B000000E056E000E066E000E076E000E176E04
:1023C000000E186E000E196E000E1A6E000E1C6EB6
:1023D00022EF12F01C50D8B4F0EF11F0F2EF11F030
:1023E00009EF12F0D8901036113612361336D89005
:1023F00004360536063607361AAE01EF12F003EF43
:1024000012F004EF12F00480D890173618361936FF
:102410001A360850105C095011580A5012580B50C7
:102420001358D8A016EF12F018EF12F021EF12F0A7
:102430001A8C0850105E0950115A0A50125A0B504B
:10244000135A1C2A190E1C6428EF12F02AEF12F0FE
:10245000EAEF11F01050111012101310D8B433EF2E
:1024600012F035EF12F04DEF12F017804DEF12F031
:10247000D89004360536063607361AAE42EF12F00B
:1024800044EF12F045EF12F00480D890173618365A
:1024900019361A361506D8A0160606AE52EF12F0F7
:1024A00054EF12F038EF12F0000E1C6E1AAE5BEF14
:1024B00012F05DEF12F081EF12F0FF0E17140C6EA8
:1024C000FF0E18140D6EFF0E19140E6E7F0E1A14E7
:1024D0000F6E0C500D100E100F10D8B472EF12F0DA
:1024E00074EF12F078EF12F0010E1C6E81EF12F013
:1024F00004A07DEF12F07FEF12F081EF12F074EF85
:1025000012F01C50D8B487EF12F089EF12F0ADEF43
:1025100012F0010E0426000E05220622072207A053
:1025200094EF12F096EF12F0ADEF12F004C00CF041
:1025300005C00DF006C00EF007C00FF00F340F32CB
:102540000E320D320C320CC004F00DC005F00EC07E
:1025500006F00FC007F0154A162A16BEB8EF12F0A3
:10256000165008E11528D8A0B8EF12F0BAEF12F013
:10257000C5EF12F0000E166E1568000E046E000E08
:10258000056E000E066E000E076E16BED2EF12F03C
:10259000165006E11504D8B0D0EF12F0D2EF12F0C9
:1025A000E0EF12F0000E166E000E156E000E046EB7
:1025B000000E056E000E066E000E076E000E146E05
:1025C00015C01BF01BA0E7EF12F0E9EF12F0ECEFE3
:1025D00012F0068EEDEF12F0069ED8901B30076EBB
:1025E000A3EF11F01200000E346E000E336E29C0FE
:1025F00004F02AC005F02BC006F02CC007F0000E36
:10260000086E000E096E000E0A6E000E0B6E4EEC88
:1026100024F0D8A00EEF13F010EF13F030EF13F00A
:1026200027C0D9FF28C0DAFF300EDF6E20EE01F0A0
:102630002750D9262850DA222E0EDF6E20EE02F027
:102640002750D9262850DA22300EDF6E20EE03F014
:102650002750D9262850DA22000EDF6E8BEF14F0B7
:102660002CBE37EF13F035EF13F049EF13F029C00C
:1026700004F02AC005F02BC006F02CC007F028ECAF
:1026800028F004C029F005C02AF006C02BF007C0CE
:102690002CF0290E1D6E000E1E6E10EC20F01DC0D9
:1026A00031F01EC032F0BBEF13F0000E086E000ECA
:1026B000096E200E0A6E410E0B6E29C004F02AC06E
:1026C00005F02BC006F02CC007F011EC0FF004C091
:1026D0001DF005C01EF006C01FF007C020F0B1ECD1
:1026E00021F01DC02DF01EC02EF02D50300F27C040
:1026F000D9FF28C0DAFFDF6E274A282A000E086EAD
:10270000000E096E200E0A6E410E0B6E29C004F0F9
:102710002AC005F02BC006F02CC007F011EC0FF01A
:1027200004C01DF005C01EF006C01FF007C020F059
:102730002DC004F02EC005F0000E05BEFF0E066E83
:10274000076E010EA0EC1BF004C021F005C022F0C2
:1027500006C023F007C024F060EC27F01DC029F06C
:102760001EC02AF01FC02BF020C02CF0334A342AA0
:102770003106D8A0320632BEC8EF13F0325006E15F
:102780003104D8B0C6EF13F0C8EF13F055EF13F0D3
:1027900033503410D8A4CFEF13F0D1EF13F0D9EFAA
:1027A00013F027C0D9FF28C0DAFF300EDF6E274AAA
:1027B000282A34BEE7EF13F0345007E1070E335CEC
:1027C000D8B0E5EF13F0E7EF13F0FDEF13F027C0FB
:1027D000D9FF28C0DAFF2E0EDF6E274A282AFDEF28
:1027E00013F027C0D9FF28C0DAFF300EDF6E274A6A
:1027F000282A314A322A334A342A32BE04EF14F0EE
:1028000002EF14F077EF14F034BE10EF14F03450F0
:1028100009E1070E335CD8A010EF14F012EF14F0AA
:10282000F1EF13F077EF14F0000E086E000E096E52
:10283000200E0A6E410E0B6E29C004F02AC005F06E
:102840002BC006F02CC007F011EC0FF004C01DF0F7
:1028500005C01EF006C01FF007C020F0B1EC21F04B
:102860001DC02FF01EC030F02F50300F27C0D9FFF1
:1028700028C0DAFFDF6E274A282A000E086E000EF5
:10288000096E200E0A6E410E0B6E29C004F02AC09C
:1028900005F02BC006F02CC007F011EC0FF004C0BF
:1028A0001DF005C01EF006C01FF007C020F02FC0AD
:1028B00004F030C005F0000E05BEFF0E066E076E78
:1028C000010EA0EC1BF004C021F005C022F006C0F0
:1028D00023F007C024F060EC27F01DC029F01EC0D3
:1028E0002AF01FC02BF020C02CF0334A342A34BE0B
:1028F00083EF14F0345009E1070E335CD8A083EF66
:1029000014F085EF14F014EF14F027C0D9FF28C09D
:10291000DAFF000EDF6E12000EC004F00FC005F0EB
:1029200044EC28F004C017F005C018F00EC008F001
:102930000FC009F02E0E0A6EE7EC25F008C019F062
:1029400009C01AF0FF0E12241D6EFF0E13201E6E1A
:102950001EBEAFEF14F0ADEF14F0B1EF14F020EFA6
:1029600015F01D500E24D96E1E500F20DA6E390E50
:10297000DF60BDEF14F0BFEF14F01BEF15F01D503A
:102980000E24D96E1E500F20DA6E2E0EDE18D8B42B
:10299000CCEF14F0CEEF14F01BEF15F012500E2414
:1029A000D96E13500F20DA6E340EDF64DAEF14F0B4
:1029B000DCEF14F020EF15F01D500E24D96E1E50E0
:1029C0000F20DA6EDF2A0AEF15F01D500E24146E68
:1029D0001E500F20156E010E1424D96E000E152006
:1029E000DA6E2E0EDE18D8B4F8EF14F0FAEF14F009
:1029F00008EF15F01D500E24146E1E500F20156E9A
:102A0000010E1424D96E000E1520DA6E300EDF6E22
:102A10001D4A1E2A12501D5C1E50800A146E13504F
:102A2000800A1458D8A017EF15F019EF15F0E5EF4C
:102A300014F020EF15F01D06D8A01E06A8EF14F024
:102A40001D2806E11E28D8A428EF15F02AEF15F05E
:102A5000B2EF15F0102806E11128D8A432EF15F0D6
:102A600034EF15F0B2EF15F00EC0D9FF0FC0DAFF4A
:102A70002B0EDE18D8B43FEF15F041EF15F04EEFF6
:102A800015F00EC0D9FF0FC0DAFF2D0EDE18D8A446
:102A90004CEF15F04EEF15F05CEF15F020EE01F065
:102AA0000E50D9260F50DA22310EDF6E000E1C6E4A
:102AB000020E1B6EA1EF15F00EC0D9FF0FC0DAFF9A
:102AC000310EDF6E000E1C6E010E1B6EA1EF15F0B5
:102AD0001B500E24D96E1C500F20DA6E2E0EDE18FD
:102AE000D8A475EF15F077EF15F091EF15F01B50A6
:102AF0000E24D96E1C500F20DA6E300EDF6E1B5084
:102B00000E24146E1C500F20156E010E1424D96E65
:102B1000000E1520DA6E2E0EDF6E1B4A1C2A99EF6E
:102B200015F01B500E24D96E1C500F20DA6E300E9B
:102B3000DF6E1B4A1C2A000E0F6E010E0E6E06EF92
:102B400016F017501B5C1C50800A146E1850800A37
:102B50001458D8A0AEEF15F0B0EF15F068EF15F0EF
:102B600002EF16F01D2806E11E28D8A4BAEF15F0D2
:102B7000BCEF15F002EF16F0102808E11128D8B4C8
:102B8000C4EF15F0C6EF15F002EF16F019500E2441
:102B9000146E1A500F20156EFF0E1424D96EFF0EFE
:102BA0001520DA6E310EDF6E010E19241B6E000E39
:102BB0001A201C6EE6EF15F01B500E24D96E1C5027
:102BC0000F20DA6E300EDF6E1B4A1C2A10501B5C81
:102BD0001C50800A146E1150800A1458D8A0F3EFCC
:102BE00015F0F5EF15F0DCEF15F010500E24146E13
:102BF00011500F20156E020E1424D96E000E1520F0
:102C0000DA6EDF2A000E0F6E000E0E6E1200D2C0BA
:102C100004F0D3C005F0D4C006F0D5C007F0000E14
:102C2000086E000E096E000E0A6E000E0B6E4EEC62
:102C300024F0D8A01EEF16F020EF16F035EF16F0B6
:102C4000D0C0D9FFD1C0DAFF300EDF6E000120EE18
:102C500001F0D051D926D151DA22000EDF6E000EDC
:102C6000D16F000ED06F76EF17F00001D5BF3DEFAA
:102C700016F03BEF16F04FEF16F0D2C004F0D3C0C1
:102C800005F0D4C006F0D5C007F028EC28F004C049
:102C9000D2F005C0D3F006C0D4F007C0D5F0D20EF4
:102CA0001D6E000E1E6E10EC20F01DC02DF01EC01B
:102CB0002EF0000E086E000E096E200E0A6E410EF8
:102CC0000B6ED2C004F0D3C005F0D4C006F0D5C05E
:102CD00007F011EC0FF004C01DF005C01EF006C097
:102CE0001FF007C020F0B1EC21F01DC027F01EC07E
:102CF00028F02750300FD0C0D9FFD1C0DAFFDF6EE7
:102D00000001D04BD12B000E086E000E096E200E74
:102D10000A6E410E0B6ED2C004F0D3C005F0D4C0D1
:102D200006F0D5C007F011EC0FF004C01DF005C08F
:102D30001EF006C01FF007C020F027C004F028C016
:102D400005F0000E05BEFF0E066E076E010EA0EC2C
:102D50001BF004C021F005C022F006C023F007C01C
:102D600024F060EC27F01DC0D2F01EC0D3F01FC0CD
:102D7000D4F020C0D5F02D06D8A02E06D0C0D9FFA3
:102D8000D1C0DAFF2E0EDF6E0001D04BD12B000E2A
:102D90002C6E000E2B6E000E086E000E096E200EBB
:102DA0000A6E410E0B6ED2C004F0D3C005F0D4C041
:102DB00006F0D5C007F011EC0FF004C01DF005C0FF
:102DC0001EF006C01FF007C020F0B1EC21F01DC0BE
:102DD00029F01EC02AF02950300FD0C0D9FFD1C031
:102DE000DAFFDF6E0001D04BD12B000E086E000E13
:102DF000096E200E0A6E410E0B6ED2C004F0D3C0D5
:102E000005F0D4C006F0D5C007F011EC0FF004C0F7
:102E10001DF005C01EF006C01FF007C020F029C03D
:102E200004F02AC005F0000E05BEFF0E066E076E08
:102E3000010EA0EC1BF004C021F005C022F006C07A
:102E400023F007C024F060EC27F01DC0D2F01EC0B4
:102E5000D3F01FC0D4F020C0D5F02B4A2C2A2CBEB2
:102E60003BEF17F02C5009E1060E2B5CD8A03BEF8E
:102E700017F03DEF17F0CBEF16F0D0C0D9FFD1C05F
:102E8000DAFF650EDF6E0001D04BD12B2EBE4BEF6B
:102E900017F04DEF17F057EF17F0D0C0D9FFD1C0A2
:102EA000DAFF2B0EDF6ED04BD12B5FEF17F0D0C0C7
:102EB000D9FFD1C0DAFF2D0EDF6E53EF17F0D0C06F
:102EC000C8F0D1C0C9F02DC0CAF02EC0CBF0000EA2
:102ED000CBBFFF0ECC6FCD6F000ECF6F0A0ECE6F43
:102EE0004CEC1DF02DC0D0F02EC0D1F01200C8C0A7
:102EF00004F0C9C005F044EC28F004C022F005C07D
:102F000023F020EE1DF0040EDE6AE806FDE220EE5E
:102F100018F0040EDE6AE806FDE2000E256E000ED3
:102F2000246E000E276E000E266E000E0001C66F86
:102F3000000EC56FC8C008F0C9C009F02B0E0A6E9C
:102F400046EC26F03C6EC8C008F0C9C009F02D0E52
:102F50000A6E46EC26F03B6EC8C008F0C9C009F006
:102F6000200E0A6E46EC26F00001C46FC8C008F0BF
:102F7000C9C009F0230E0A6E46EC26F03A6EC8C0AE
:102F800008F0C9C009F02E0E0A6EE7EC25F008C063
:102F900028F009C029F0000E2B6E010E2A6E37EFC3
:102FA00018F02A500001C825D96E2B50C921DA6EBD
:102FB0002F0EDF64DEEF17F0E0EF17F035EF18F0BB
:102FC0002A50C825D96E2B50C921DA6E3A0EDF601F
:102FD000ECEF17F0EEEF17F035EF18F028502A5C01
:102FE0002B50800A166E2950800A1658D8A0FBEF85
:102FF00017F0FDEF17F004EF18F029BE04EF18F0FA
:1030000002EF18F016EF18F02A50C825D96E2B5091
:10301000C921DA6E1D0E2424E16E000E2520E26E19
:10302000DFCFE7FF244A252A35EF18F02A50285C25
:103030002950800A166E2B50800A1658D8B023EFFC
:1030400018F025EF18F035EF18F02A50C825D96E82
:103050002B50C921DA6E180E2624E16E000E2720AF
:10306000E26EDFCFE7FF264A272A2A4A2B2A225080
:103070002A5C2B50800A166E2350800A1658D8A05E
:1030800044EF18F046EF18F0D1EF17F0300E1D188E
:10309000D8A44DEF18F04FEF18F052EF18F0010ED2
:1030A0000001C66F1D0E126E000E136EA3EC24F00D
:1030B000180E126E000E136EA3EC24F0CAC0D9FFD6
:1030C000CBC0DAFFDE2806E1DE28D8A46AEF18F0CC
:1030D0006CEF18F07AEF18F01D0E0A6E000E0B6EF2
:1030E0002CEC23F0CAC0D9FFCBC0DAFF0AC0DEFF48
:1030F0000BC0DDFF29BE7FEF18F081EF18F09DEFC8
:1031000018F0CCC0D9FFCDC0DAFFDE2806E1DE28FA
:10311000D8A48DEF18F08FEF18F09DEF18F0180E6F
:103120000A6E000E0B6E2CEC23F0CCC0D9FFCDC084
:10313000DAFF0AC0DEFF0BC0DDFF120008C004F09A
:1031400009C005F044EC28F004C010F005C011F0EF
:103150000AC0D9FF0BC0DAFFDECF0CF0DDCF0DF0D7
:1031600010500C5C0E6E11500D580F6E0FBEC1EF5B
:1031700018F00F5008E10E04D8A0C1EF18F0C3EF0B
:1031800018F0EEEF18F03B04D8A4C9EF18F0CBEF1D
:1031900018F0EEEF18F0000E136E000E126EDDEF59
:1031A00018F010500824D96E11500920DA6E200E44
:1031B000DF6E104A112A124A132A0E50125C135065
:1031C000800A0C6E0F50800A0C58D8A0EAEF18F055
:1031D000ECEF18F0D1EF18F0B3EF19F00FBEF9EFE4
:1031E00018F00F5008E10E04D8A0F9EF18F0FBEF2B
:1031F00018F0B3EF19F03B50D8A401EF19F003EF2A
:1032000019F0B3EF19F00AC0D9FF0BC0DAFFDECF17
:103210000CF0DDCF0DF0FF0E0C24126EFF0E0D2012
:10322000136E13BE18EF19F016EF19F01AEF19F01C
:10323000B3EF19F01006D8A011060001C605D8A4F6
:1032400024EF19F026EF19F095EF19F0C551D8A425
:103250002CEF19F02EEF19F095EF19F00E50125CCB
:103260001350800A0C6E0F50800A0C58D8A03BEF08
:1032700019F03DEF19F075EF19F010500824D96ED0
:1032800011500920DA6E2B0EDE18D8B44AEF19F06F
:103290004CEF19F05BEF19F010500824D96E115063
:1032A0000920DA6E2D0EDE18D8A459EF19F05BEF65
:1032B00019F065EF19F012500824D96E1350092047
:1032C000DA6E300EDF6EAEEF19F010500824D96EB2
:1032D00011500920DA6E12500824E16E13500920B3
:1032E000E26EDFCFE7FFAEEF19F012500824D96E7F
:1032F00013500920DA6E2B0EDE18D8B482EF19F0C5
:1033000084EF19F0AEEF19F012500824D96E135063
:103310000920DA6E2D0EDE18D8B491EF19F093EF74
:1033200019F0AEEF19F05BEF19F00E50125C13506C
:10333000800A0C6E0F50800A0C58D8A0A2EF19F02A
:10334000A4EF19F0A6EF19F065EF19F01250082458
:10335000D96E13500920DA6E200EDF6E1206D8A047
:10336000130611EF19F012001FC004F020C005F081
:1033700044EC28F004C027F005C028F01FC008F076
:1033800020C009F0650E0A6EE7EC25F008C029F0B0
:1033900009C02AF01FC008F020C009F02E0E0A6EE6
:1033A000E7EC25F008C025F009C026F021C0D9FFC0
:1033B00022C0DAFF010EDBBEE2EF19F0E0EF19F0F8
:1033C000EAEF19F021C0D9FF22C0DAFF040EDE6E49
:1033D000000EDD6E21C0D9FF22C0DAFFDECF23F060
:1033E000DDCF24F02550232626502422010E23244D
:1033F0002B6E000E24202C6E2B50295C2D6E2C5031
:103400002A582E6E2EBE0DEF1AF02E5008E12D0414
:10341000D8A00DEF1AF00FEF1AF064EF1AF01FC0EA
:103420000EF020C00FF029C010F02AC011F02BC000
:1034300012F02CC013F08CEC14F021C0D9FF22C084
:10344000DAFFDE50DE10D8A428EF1AF02AEF1AF0C7
:1034500037EF1AF03A50D8A430EF1AF032EF1AF0E2
:1034600037EF1AF02B06D8A02C062D4A2E2A2BC097
:103470002FF02CC030F053EF1AF02F501F24236E82
:1034800030502020246E2D502324D96E2E5024201D
:10349000DA6E2F501F24E16E30502020E26EDFCF15
:1034A000E7FF2F4A302A27502F5C3050800A236EC6
:1034B0002850800A2358D8A060EF1AF062EF1AF063
:1034C0003DEF1AF0B8EF1AF02EBE6BEF1AF069EF6D
:1034D0001AF0B8EF1AF02D50275C236E2E502858A2
:1034E000246EFF0E23242F6EFF0E2420306EA9EFD2
:1034F0001AF02B502F5C3050800A236E2C50800A1B
:103500002358D8A086EF1AF088EF1AF09EEF1AF031
:103510002F501F24236E30502020246E2D50232442
:10352000D96E2E502420DA6E2F501F24E16E3050B9
:103530002020E26EDFCFE7FFA6EF1AF02F501F2406
:10354000D96E30502020DA6E300EDF6E2F06D8A0F4
:10355000300629502F5C3050800A236E2A50800A92
:103560002358D8B0B6EF1AF0B8EF1AF079EF1AF086
:1035700012001FC004F020C005F044EC28F004C085
:103580002CF005C02DF01FC008F020C009F02E0E51
:103590000A6EE7EC25F008C028F009C029F021C028
:1035A000D9FF22C0DAFF010EDBBEDBEF1AF0D9EF44
:1035B0001AF0E3EF1AF021C0D9FF22C0DAFF040E9F
:1035C000DE6E000EDD6E21C0D9FF22C0DAFFDECF35
:1035D00023F0DDCF24F02850232629502422010E89
:1035E00023242A6E000E24202B6E2A502C5C266E7B
:1035F0002B502D58276E27BE06EF1BF0275008E1F1
:103600002604D8A006EF1BF008EF1BF063EF1BF0B9
:103610001FC00EF020C00FF0FF0E116E10682AC000
:1036200012F02BC013F08CEC14F021C0D9FF22C093
:10363000DAFFDE50DE10D8A420EF1BF022EF1BF0E3
:103640002AEF1BF03A50D8B428EF1BF02AEF1BF0FA
:103650003EEF1BF021C0D9FF22C0DAFFDECF23F0FE
:10366000DDCF24F02850232629502422010E2324C4
:103670002A6E000E24202B6E42EF1BF028C02AF089
:1036800029C02BF02AC02EF02BC02FF052EF1BF0D8
:103690002E501F24D96E2F502020DA6E000EDF6EC0
:1036A0002E4A2F2A2C502E5C2F50800A236E2D502C
:1036B000800A2358D8A05FEF1BF061EF1BF048EFA2
:1036C0001BF09FEF1BF027BE6AEF1BF068EF1BF0AB
:1036D0009FEF1BF01FC008F020C009F02E0E0A6EED
:1036E00046EC26F00009D8B478EF1BF07AEF1BF017
:1036F0009FEF1BF02CC02EF02DC02FF08AEF1BF097
:103700002E501F24D96E2F502020DA6E300EDF6E1F
:103710002E4A2F2A26502C5C236E27502D58246EBB
:1037200023502E5C2F50800A256E2450800A255885
:10373000D8A09DEF1BF09FEF1BF080EF1BF0120055
:103740000C6E0C50D8B4A7EF1BF0A9EF1BF0CBEF19
:103750001BF007BEB0EF1BF0AEEF1BF0CBEF1BF082
:1037600004C008F005C009F006C00AF007C00BF05D
:10377000081E091E0A1E0B1E082A000E09220A2214
:103780000B2208C00EF009C00FF00AC010F00BC0E9
:1037900011F0D3EF1BF004C00EF005C00FF006C00F
:1037A00010F007C011F00450051006100710D8A43F
:1037B000DCEF1BF0DEEF1BF0E8EF1BF0000E046EF9
:1037C000000E056E000E066E000E076E79EF1CF0FF
:1037D000960E0D6EF2EF1BF00D2AD89011321032BA
:1037E0000F320E32000E0E14086E000E0F14096E0A
:1037F000000E10140A6EFE0E11140B6E0850091004
:103800000A100B10D8A407EF1CF009EF1CF0ECEF26
:103810001BF017EF1CF00D2A010E0E26000E0F22D2
:1038200010221122D890113210320F320E32000EB7
:103830000E14086E000E0F14096E000E10140A6E9E
:10384000FF0E11140B6E085009100A100B10D8A4AB
:103850002CEF1CF02EEF1CF00BEF1CF036EF1CF0E1
:103860000D06D8900E360F361036113610BE3BEFCF
:103870001CF03DEF1CF045EF1CF0020E0D6043EF15
:103880001CF045EF1CF030EF1CF00DB04AEF1CF0BF
:103890004CEF1CF04DEF1CF0109ED8900D320DC077
:1038A00008F0096A0A6A0B6A08C00BF00A6A096A1A
:1038B000086A08500E1209500F120A5010120B50CD
:1038C00011120C50D8B467EF1CF069EF1CF071EFC7
:1038D0001CF007BE70EF1CF06EEF1CF071EF1CF0D7
:1038E000118E0EC004F00FC005F010C006F011C01C
:1038F00007F01200000E0A6E000E096E000E0C6E2C
:10390000000E0B6E000E0C6E000E0B6E0B500C10AA
:10391000D8A48DEF1CF091EF1CF0046A042A92EFFA
:103920001CF0046A0446044604468A500418F70B47
:1039300004188A6E0B040C10D8A4A1EF1CF0A5EF9C
:103940001CF0046A042AA6EF1CF0046A044604462C
:103950008A500418FB0B04188A6E020E0B180C1008
:10396000D8A4B5EF1CF0B9EF1CF0046A042ABAEF32
:103970001CF0046A04468A500418FD0B04188A6E71
:10398000030E0B180C10D8A4C8EF1CF0CCEF1CF0E1
:10399000046A042ACDEF1CF0046A8A500418FE0B56
:1039A00004188A6E9C0E046ED70EE82EFED7042EE5
:1039B000FCD700F081BEDFEF1CF0E1EF1CF0E7EF79
:1039C0001CF0000E0A6E000E096E2CEF1DF081BC7B
:1039D000ECEF1CF0EEEF1CF0F4EF1CF0000E0A6EA2
:1039E000010E096E2CEF1DF081BAF9EF1CF0FBEF10
:1039F0001CF001EF1DF0000E0A6E020E096E2CEF96
:103A00001DF081B806EF1DF008EF1DF00EEF1DF060
:103A1000000E0A6E030E096E2CEF1DF0030E0B183C
:103A20000C10D8A416EF1DF018EF1DF01CEF1DF0C0
:103A3000000E0A6E040E096E0B4A0C2A0CBE2AEF09
:103A40001DF00C5009E1040E0B5CD8A02AEF1DF00C
:103A50002CEF1DF086EF1CF009C004F00AC005F041
:103A6000D89004360536D89004360536A00E066E7A
:103A7000000E076E04500626055007220B50062440
:103A8000D96E0C500720DA6EDF50086E8A968A9441
:103A90008A928A9008501200000E216E000E206E4D
:103AA0000001CA51CB11CC11CD11D8A45AEF1DF091
:103AB0005CEF1DF06EEF1DF0C8C0D9FFC9C0DAFF82
:103AC000300EDF6E204A212A2050C825D96E2150A1
:103AD000C921DA6E000EDF6E0EEF1EF0CDBF75EF5E
:103AE0001DF073EF1DF0F4EF1DF00A0ECE19CF118B
:103AF000D8A47DEF1DF07FEF1DF0F4EF1DF0CD1F7A
:103B0000CC1FCB1FCA6D000ECB23CC23CD23F4EFEB
:103B10001DF0CAC004F0CBC005F0CCC006F0CDC08B
:103B200007F0CEC008F0CFC009F0000E09BEFF0EAE
:103B30000A6E0B6EB6EC22F004C01CF005C01DF03E
:103B400006C01EF007C01FF01FBEB4EF1DF01F50CF
:103B50001E101D1007E10A0E1C5CD8B0B2EF1DF05C
:103B6000B4EF1DF0C2EF1DF0300E1C24186E000ED5
:103B70001D20196E000E1E201A6E000E1F201B6ED7
:103B8000CEEF1DF0570E1C24186E000E1D20196E6E
:103B9000000E1E201A6E000E1F201B6E205000010A
:103BA000C825D96E2150C921DA6E18C0DFFF204A1E
:103BB000212ACAC004F0CBC005F0CCC006F0CDC0AD
:103BC00007F0CEC008F0CFC009F0000E09BEFF0E0E
:103BD0000A6E0B6E2BEC21F004C0CAF005C0CBF0CE
:103BE00006C0CCF007C0CDF00001CA51CB11CC11FA
:103BF000CD11D8A4FEEF1DF000EF1EF089EF1DF0EF
:103C00002050C825D96E2150C921DA6E000EDF6E12
:103C1000C8C012F0C9C013F0A3EC24F0120008C011
:103C200004F009C005F044EC28F004C00FF005C012
:103C300010F03A04D8A41FEF1EF021EF1EF07EEF23
:103C40001EF00A500B10D8B428EF1EF02AEF1EF019
:103C50007EEF1EF0780E0C18D8A431EF1EF033EF73
:103C60001EF07EEF1EF0010E0F24116E000E1020CC
:103C7000126E12BE47EF1EF0125007E1020E115CE9
:103C8000D8B045EF1EF047EF1EF049EF1EF06EEF83
:103C90001EF0115008240D6E125009200E6EFE0EFB
:103CA0000D24D96EFF0E0E20DA6E11500824E16E3D
:103CB00012500920E26EDFCFE7FF1106D8A01206EE
:103CC00012BE6EEF1EF0125007E1020E115CD8B06A
:103CD0006CEF1EF06EEF1EF049EF1EF008C0D9FF2A
:103CE00009C0DAFF300EDF6E20EE01F00850D92651
:103CF0000950DA22780EDF6ECAEF1EF03A04D8A41B
:103D000084EF1EF086EF1EF0CAEF1EF00A500B1073
:103D1000D8B48DEF1EF08FEF1EF0CAEF1EF06F0EBD
:103D20000C18D8A496EF1EF098EF1EF0CAEF1EF004
:103D30000FC011F010C012F012BEA9EF1EF0125009
:103D400006E11104D8B0A7EF1EF0A9EF1EF0ABEF0B
:103D50001EF0C4EF1EF0115008240D6E1250092001
:103D60000E6EFF0E0D24D96EFF0E0E20DA6E11506E
:103D70000824E16E12500920E26EDFCFE7FF110642
:103D8000D8A012069CEF1EF008C0D9FF09C0DAFFC8
:103D9000300EDF6E120012C004F013C005F044ECC8
:103DA00028F004C01AF005C01BF03C04D8B4DBEFC7
:103DB0001EF0DDEF1EF0E4EF1EF017BEE4EF1EF084
:103DC000E2EF1EF039EF1FF01AC01CF01BC01DF00F
:103DD0001DBEF5EF1EF01D5006E11C04D8B0F3EF38
:103DE0001EF0F5EF1EF0F7EF1EF010EF1FF01C5065
:103DF0001224186E1D501320196EFF0E1824D96E50
:103E0000FF0E1920DA6E1C501224E16E1D50132093
:103E1000E26EDFCFE7FF1C06D8A01D06E8EF1EF01C
:103E2000000E046E000E056E000E066E000E076E8C
:103E300014C008F015C009F016C00AF017C00BF046
:103E400034EC22F0D8B027EF1FF029EF1FF031EF4C
:103E50001FF012C0D9FF13C0DAFF2B0EDF6E74EF14
:103E60001FF012C0D9FF13C0DAFF2D0EDF6E74EF02
:103E70001FF00001C405D8A440EF1FF042EF1FF06F
:103E800074EF1FF01AC01CF01BC01DF01DBE53EFD5
:103E90001FF01D5006E11C04D8B051EF1FF053EF86
:103EA0001FF055EF1FF06EEF1FF01C501224186E1C
:103EB0001D501320196EFF0E1824D96EFF0E192005
:103EC000DA6E1C501224E16E1D501320E26EDFCF1B
:103ED000E7FF1C06D8A01D0646EF1FF012C0D9FF51
:103EE00013C0DAFF200EDF6E1200F0EC26F0480E51
:103EF000D76EE50ED66E000E046E000E056E000E37
:103F000094EC23F0000E046E010E056E010E94EC8D
:103F100023F03D0E396EE10E386E400EE82EFED7CE
:103F2000382EFCD7392EFAD77A0E0001D66F080E3C
:103F3000D76F46EC04F0010EA6EC27F0C7EC26F094
:103F40007AEC1CF00001C76FE8EF1FF0330ED66F5C
:103F5000080ED76F46EC04F08C908C923D0E396EB3
:103F6000E10E386E400EE82EFED7382EFCD7392EE3
:103F7000FAD78C908C8201EF20F0140ED66F080EC9
:103F8000D76F46EC04F08C908C923D0E396EE10EAA
:103F9000386E400EE82EFED7382EFCD7392EFAD7D1
:103FA0008C808C9201EF20F0690ED66F080ED76FCF
:103FB00046EC04F08C908C92500E0001D66F080EE7
:103FC000D76FC7C0D8F0D96B46EC04F001EF20F0F2
:103FD000C751386E396A3950000AD8B4F2EF1FF071
:103FE000DCEF1FF03850410AD8B4A6EF1FF0030AE7
:103FF000D8B4BDEF1FF0010AD8B4D4EF1FF0DCEF46
:104000001FF07A0E396EC10E386E820EE82EFED782
:10401000382EFCD7392EFAD79BEF1FF007EF00F0B0
:10402000000E206E000E1F6E1DC0D9FF1EC0DAFFED
:10403000DECF21F0DECF22F0DECF23F0DECF24F082
:104040003EEF20F021C004F022C005F023C006F0AE
:1040500024C007F0000E086E000E096E200E0A6ED6
:10406000410E0B6E26EC11F004C021F005C022F0C9
:1040700006C023F007C024F01F4A202A21C004F004
:1040800022C005F023C006F024C007F0000E086E21
:10409000000E096E800E0A6E3F0E0B6E34EC22F09D
:1040A000D8B055EF20F057EF20F022EF20F076EF58
:1040B00020F021C004F022C005F023C006F024C087
:1040C00007F0000E086E000E096E200E0A6E410EFB
:1040D0000B6E11EC0FF004C021F005C022F006C0F9
:1040E00023F007C024F01F06D8A0200621C004F04A
:1040F00022C005F023C006F024C007F0CD0E086EE4
:10410000CC0E096ECC0E0A6E3D0E0B6E34EC22F016
:10411000D8A08DEF20F08FEF20F059EF20F01DC0D8
:10412000D9FF1EC0DAFF21C0DEFF22C0DEFF23C0A0
:10413000DEFF24C0DEFF1FC01DF020C01EF01200F5
:1041400008C004F009C005F044EC28F004C012F0E7
:1041500005C013F00AC0D9FF0BC0DAFFDE2806E164
:10416000DE28D8A4B6EF20F0B8EF20F0C2EF20F0A0
:104170000AC0D9FF0BC0DAFF010EDE6E000EDD6E45
:10418000C5EF20F0010E0001C56F0AC0D9FF0BC0BA
:10419000DAFFDECF0CF0DDCF0DF012500C5C106EAC
:1041A00013500D58116E12C00EF013C00FF011BE57
:1041B000E2EF20F0115008E11004D8A0E2EF20F067
:1041C000E4EF20F02AEF21F00AC0D9FF0BC0DAFF9C
:1041D000DECF0CF0DDCF0DF0FF0E0C24146EFF0EC1
:1041E0000D20156E15BEF9EF20F0F7EF20F0FBEF74
:1041F00020F02AEF21F00E06D8A00F061050145C14
:104200001550800A0C6E1150800A0C58D8A00BEF84
:1042100021F00DEF21F01DEF21F00E500824D96E92
:104220000F500920DA6E14500824E16E1550092051
:10423000E26EDFCFE7FF25EF21F014500824D96E9E
:1042400015500920DA6E300EDF6E1406D8A0150660
:10425000F2EF20F01200000E0D6E0BBE34EF21F0D5
:1042600032EF21F03EEF21F00B1E0A1E091E086CF2
:10427000000E09220A220B22010E0D6E07BE45EF29
:1042800021F043EF21F04FEF21F0071E061E051E1F
:10429000046C000E052206220722010E0D1A000EE4
:1042A0000E6E000E0F6E000E106E000E116E085096
:1042B00009100A100B10D8B460EF21F062EF21F062
:1042C00098EF21F0010E0C6E6CEF21F0D8900836BB
:1042D00009360A360B360C2A0BAE71EF21F073EF5C
:1042E00021F066EF21F0D8900E360F3610361136D9
:1042F0000850045C095005580A5006580B500758DE
:10430000D8A085EF21F087EF21F090EF21F0085041
:10431000045E0950055A0A50065A0B50075A0E807F
:10432000D8900B320A32093208320C2E73EF21F08A
:104330000D50D8B49EEF21F0A0EF21F0A8EF21F0AE
:10434000111E101E0F1E0E6C000E0F2210221122C5
:104350000EC004F00FC005F010C006F011C007F049
:1043600012001F342034266E2650D8A4BAEF21F054
:10437000BCEF21F0C6EF21F0000E1D6E000E1E6E88
:10438000000E1F6E000E206E33EF22F01DC021F0D4
:104390001EC022F01FC023F020C024F0200ED6EF54
:1043A00021F0D8902432233222322132E82ED1EF6C
:1043B00021F02150256E1F8EFF0E1D16FF0E1E16BA
:1043C000FF0E1F16000E2016960E265E26BEEDEF7F
:1043D00021F0EBEF21F003EF22F02650800A970F37
:1043E000D8B0F5EF21F0F7EF21F0F9EF21F0BCEFB5
:1043F00021F0D89020321F321E321D32263EF9EFB6
:1044000021F01BEF22F01F0E266409EF22F00BEFC4
:1044100022F013EF22F0BCEF21F0D8901D361E36AB
:104420001F36203626062650D8A419EF22F01BEF9F
:1044300022F00DEF22F02550D8B421EF22F023EF27
:1044400022F02BEF22F0201E1F1E1E1E1D6C000EE0
:104450001E221F2220221DC01DF01EC01EF01FC0E4
:104460001FF020C020F01200000E04140C6E000E8D
:1044700005140D6E800E06140E6E7F0E07140F6E5F
:104480000C500D100E100F10D8A449EF22F04BEF76
:1044900022F053EF22F0000E046E000E056E000EA7
:1044A000066E000E076E000E08140C6E000E091446
:1044B0000D6E800E0A140E6E7F0E0B140F6E0C50D4
:1044C0000D100E100F10D8A468EF22F06AEF22F042
:1044D00072EF22F0000E086E000E096E000E0A6EDA
:1044E000000E0B6E07AE77EF22F079EF22F082EF2D
:1044F00022F0046C051ED8B0052A061ED8B0062A84
:10450000800E07560BAE87EF22F089EF22F092EF74
:1045100022F0086C091ED8B0092A0A1ED8B00A2A4F
:10452000800E0B56000E041A000E051A000E061A15
:10453000800E071A000E081A000E091A000E0A1A39
:10454000800E0B1A0850045C095005580A50065892
:104550000B500758D8B0AFEF22F0B1EF22F0B4EF14
:1045600022F0D890B5EF22F0D8801200000E0D6E28
:1045700007BEBFEF22F0BDEF22F0C9EF22F0071E09
:10458000061E051E046C000E052206220722010EDF
:104590000D6E0BBED0EF22F0CEEF22F0D8EF22F05E
:1045A0000B1E0A1E091E086C000E09220A220B228D
:1045B000085009100A100B10D8B4E1EF22F0E3EF15
:1045C00022F013EF23F0010E0C6EEDEF22F0D890E5
:1045D000083609360A360B360C2A0BAEF2EF22F0FB
:1045E000F4EF22F0E7EF22F00850045C0950055880
:1045F0000A5006580B500758D8A001EF23F003EFDC
:1046000023F00BEF23F00850045E0950055A0A50BE
:10461000065A0B50075AD8900B320A320932083228
:104620000C2EF4EF22F00D50D8B419EF23F01BEF4D
:1046300023F023EF23F0071E061E051E046C000E58
:1046400005220622072204C004F005C005F006C0BA
:1046500006F007C007F01200000E0E6E000E0D6E81
:10466000000E106E010E0F6E000E126E000E116E17
:104670007EEF23F011500A24D96E12500B20DA6E0F
:104680002F0EDF6446EF23F048EF23F08FEF23F087
:1046900011500A24D96E12500B20DA6E3A0EDF60E8
:1046A00054EF23F056EF23F08FEF23F011500A243C
:1046B000D96E12500B20DA6EDF500C6ED00E0C2427
:1046C000046E056AFF0E05220FC006F010C007F049
:1046D00072EC28F004500D2605500E220FC004F095
:1046E00010C005F0000E076E0A0E066E72EC28F080
:1046F00004C00FF005C010F0114A122A0AC004F0DD
:104700000BC005F044EC28F00450115C0550125821
:10471000D8A08DEF23F08FEF23F03AEF23F00DC0F8
:104720000AF00EC00BF01200086EDFEF23F0045009
:10473000D8A49DEF23F0A1EF23F0066A062AA2EF8A
:1047400023F0066A06468D500618FD0B06188D6E7E
:104750000550D8A4AEEF23F0B2EF23F0066A062A84
:10476000B3EF23F0066A8D500618FE0B06188D6E07
:10477000F4EF23F00450D8A4C0EF23F0C4EF23F0EB
:10478000066A062AC5EF23F0066A064606468B50DF
:104790000618FB0B06188B6E0550D8A4D2EF23F039
:1047A000D6EF23F0066A062AD7EF23F0066A0646FC
:1047B0008B500618FD0B06188B6EF4EF23F0085093
:1047C000066E076A0750000AD8B4E9EF23F0F4EF49
:1047D00023F00650000AD8B497EF23F0010AD8B4AA
:1047E000BAEF23F0F4EF23F01200066E20EF24F06E
:1047F000D590D592D5944DEF24F0D580D592D5940F
:104800004DEF24F0D590D582D5944DEF24F0D5808E
:10481000D582D5944DEF24F0D590D592D5844DEF27
:1048200024F0D580D592D5844DEF24F0D590D58253
:10483000D5844DEF24F0D580D582D5844DEF24F07A
:104840000650046E056A0550000AD8B42AEF24F019
:104850004DEF24F00450000AD8B4F8EF23F0010A19
:10486000D8B4FDEF23F0030AD8B402EF24F0010A14
:10487000D8B407EF24F0070AD8B40CEF24F0010AEB
:10488000D8B411EF24F0030AD8B416EF24F0010ACB
:10489000D8B41BEF24F04DEF24F01200000E0414E6
:1048A0000C6E000E05140D6E800E06140E6E7F0E3B
:1048B00007140F6E0C500D100E100F10D8A463EFDC
:1048C00024F065EF24F06DEF24F0000E046E000E6E
:1048D000056E000E066E000E076E000E08140C6EBC
:1048E000000E09140D6E800E0A140E6E7F0E0B144E
:1048F0000F6E0C500D100E100F10D8A482EF24F084
:1049000084EF24F08CEF24F0000E086E000E096E88
:10491000000E0A6E000E0B6E085004180FE10950CD
:1049200005180CE10A50061809E10B500718D8B415
:104930009CEF24F09EEF24F0A1EF24F0D890A2EF9A
:1049400024F0D880120012C004F013C005F044EC2B
:1049500028F0FF0E04240101406FFF0E0520416F77
:1049600022EE80F011EE00F03F0EDBCFE3FFE80611
:10497000FCE2000E436F000E426FD5EF24F042516F
:10498000125C146E43511358156E40511424D96EA5
:1049900041511520DA6E000E4225E16E010E4321D1
:1049A000E26EDFCFE7FF424B432B4251405D415166
:1049B000800A146E4351800A1458D8B0E2EF24F0F4
:1049C000E4EF24F0BFEF24F012C008F013C009F0A8
:1049D000000E0A6E010E0B6E18EC26F01200000E8F
:1049E0000C6E000E0B6E22EF25F00B500824D96ED2
:1049F0000C500920DA6E600EDF6401EF25F003EF42
:104A000025F020EF25F00B500824D96E0C5009201A
:104A1000DA6E7B0EDF600FEF25F011EF25F020EF4F
:104A200025F00B500824D96E0C500920DA6E0B507B
:104A30000824E16E0C500920E26EE750E00FDF6EB3
:104A40000B4A0C2A08C004F009C005F044EC28F019
:104A50000B50045C0C500558D8B031EF25F033EF03
:104A600025F0F5EF24F0120012C008F013C009F091
:104A700014C00AF015C00BF0000E046E6C0E056E2B
:104A8000DC0E066E020E076E2BEC21F004C016F051
:104A900005C017F006C018F007C019F016C004F0E2
:104AA00017C005F018C006F019C007F0040E086E14
:104AB000000E096E000E0A6E000E0B6E2BEC21F03C
:104AC000FF0E04241A6EFF0E05201B6E948C948E2C
:104AD000AB8EAC98AC84B8861B50B06E1AC0AFFFDA
:104AE000AC9CAC8AAB9CAB88120008C004F009C037
:104AF00005F044EC28F004C00EF005C00FF00AC029
:104B0000D9FF0BC0DAFFDE2808E1DE28D8B48BEF2E
:104B100025F08DEF25F0B0EF25F00AC0D9FF0BC0CE
:104B2000DAFFDECF10F0DDCF11F0A1EF25F010504D
:104B30000824D96E11500920DA6E000EDF6E104A7B
:104B4000112A0E50105C1150800A0C6E0F50800A12
:104B50000C58D8A0AEEF25F0B0EF25F097EF25F078
:104B60001200D00EF66E4F0EF76E000EF86E02EECB
:104B700080F010EE40F00900F5CFEEFFE550E15077
:104B8000FAE1E60EF66E4C0EF76E000EF86E00EED1
:104B900060F010EE54F00900F5CFEEFFE550E15063
:104BA000FAE102EE00F0800EEE6AE806FDE100EEAA
:104BB000B4F0140EEE6AE806FDE13C6A3B6A3A6A1C
:104BC0003D903D92000EF86E000175EF1FF0000E53
:104BD0000D6E000E0C6E04EF26F00C500824D96EFA
:104BE0000D500920DA6E0A50DE18D8A4FAEF25F02D
:104BF000FCEF25F002EF26F00CC008F00DC009F024
:104C000017EF26F00C4A0D2A08C004F009C005F081
:104C100044EC28F004500C5C05500D58D8A013EF5C
:104C200026F015EF26F0EDEF25F008680968120070
:104C30000AC00EF00BC00FF008C010F009C011F050
:104C40000E500C6E0F500D6E0E4A0F2A0CC0F6FF60
:104C50000DC0F7FFF86A10C0D9FF11C0DAFF104A83
:104C6000112A070EF76403D00800F55005D0F6CFDF
:104C7000E1FFF7CFE2FFE750DF6EDF50D8A443EF4C
:104C800026F045EF26F020EF26F01200000E0D6E04
:104C9000000E0C6E60EF26F00C500824D96E0D50FB
:104CA0000920DA6E0A50DE18D8A459EF26F05BEF1F
:104CB00026F05EEF26F0010E72EF26F00C4A0D2A68
:104CC00008C004F009C005F044EC28F004500C5C66
:104CD00005500D58D8A06FEF26F071EF26F04CEF7D
:104CE00026F0000E1200200000000000000000006E
:104CF00000000000000000000000000000000000B4
:104D000000000000000000000000000000000000A3
:104D10000000000000000000000000000000000093
:104D2000000000000000313233413435364237385C
:104D300039432A3023440000000008C004F009C0B1
:104D400005F044EC28F004C00BF005C00CF0000E98
:104D50000E6E000E0D6EB7EF26F00D500824D96EC2
:104D60000E500920DA6E000EDF6E0D4A0E2A0B502F
:104D70000D5C0E50800A0A6E0C50800A0A58D8A0AA
:104D8000C4EF26F0C6EF26F0ADEF26F01200813812
:104D90000F0B0F0B046E0E0E0418D8B4D2EF26F0D2
:104DA000D4EF26F0EFEF26F00D0E0418D8B4DBEFA9
:104DB00026F0DDEF26F0EFEF26F00B0E0418D8B446
:104DC000E4EF26F0E6EF26F0EFEF26F0070E0418EA
:104DD000D8A4EDEF26F0EFEF26F0C7EF26F0120093
:104DE00090EC28F098EC28F0000E046E000E056E92
:104DF000000E066E000E08EC28F0060EF5EC23F00F
:104E00009CEC28F0000E17EC27F0010E17EC27F0B1
:104E1000800E126E250E136E000E146E000E156EAF
:104E200034EC25F0959095928C908C921200066E41
:104E300026EF27F0969296908D928D903BEF27F07B
:104E4000949494928B948B923BEF27F00650046ECF
:104E5000056A0550000AD8B430EF27F03BEF27F081
:104E60000450000AD8B41AEF27F0010AD8B420EF92
:104E700027F03BEF27F012000600F2A442EF27F0E4
:104E800044EF27F05EEF27F0480ED76EE50ED66EA2
:104E90000001C24BC32B020EC219C311D8A453EF99
:104EA00027F055EF27F05DEF27F0000EC7EC27F055
:104EB000000E0001C36F000EC26FF2943D9211000C
:104EC000000E211A000E221A000E231A800E241A38
:104ED0001DC004F01EC005F01FC006F020C007F082
:104EE00021C008F022C009F023C00AF024C00BF052
:104EF000B1EC0CF004C01DF005C01EF006C01FF0A0
:104F000007C020F01200000E0B6E000E0A6E94EF28
:104F100027F00A500824D96E0B500920DA6EDF50B2
:104F200085EC28F00A4A0B2A08C004F009C005F0F5
:104F300044EC28F004500A5C05500B58D8A0A3EFAD
:104F400027F0A5EF27F089EF27F01200066EB1EFEA
:104F500027F08D728D70C6EF27F08B748B72C6EFC1
:104F600027F00650046E056A0550000AD8B4BBEF5E
:104F700027F0C6EF27F00450000AD8B4A9EF27F0B5
:104F8000010AD8B4ADEF27F0C6EF27F01200036E88
:104F9000D2EF27F08D728D70E7EF27F08B748B7254
:104FA000E7EF27F00350016E026A0250000AD8B4FE
:104FB000DCEF27F0E7EF27F00150000AD8B4CAEF82
:104FC00027F0010AD8B4CEEF27F0E7EF27F0120060
:104FD00020000000000000000000000000000000B1
:104FE00000000000000000000000000000000000C1
:104FF00000000000000000000000000000000000B1
:1050000000000000000000000000000000000000A0
:10501000076ED58E07B002D0D59C01D0D58C04B0D8
:1050200002D0D59A01D0D58A05B002D0D59801D04A
:10503000D58806B002D0D59601D0D5860450D8B414
:1050400024EF28F026EF28F027EF28F092881200AE
:105050000450051006100710D8B431EF28F033EFD4
:1050600028F03BEF28F0000E041A000E051A000E7F
:10507000061A800E071A04C004F005C005F006C029
:1050800006F007C007F0120004C006F005C007F0E4
:105090004CEF28F0044A052A04C0D9FF05C0DAFF06
:1050A000DF50D8A456EF28F058EF28F04AEF28F048
:1050B0000650045C046E07500558056E120012C0BD
:1050C00004F013C005F044EC28F004501224086EDC
:1050D00005501320096E14C00AF015C00BF018EC2F
:1050E00026F0120004500602F3CF08F0F4CF09F0C6
:1050F00004500702F350092605500602F350092612
:1051000008C004F009C005F01200046EACA28BEFD9
:1051100028F08DEF28F086EF28F004C0ADFF1200D4
:10512000000E816EF00E936E000E8A6EF19E1200DC
:0E513000D09EF28EF28C1200F28AF2941200DF
:020000040020DA
:08000000FFFFFFFFFFFFFFFF00
:020000040030CA
:0E000000240E3F1EFF8181FF0FC00FE00F4056
:00000001FF
