:020000040000FA
:0400000007EF00F016
:0A0008003D82CDED28F0F0EF26F068
:1008000000256373646978586F7566674765456E40
:10081000070006004D6F746F7220676972616E6425
:100820006F2061206C6120497A717569657264611D
:100830000A0A004D6F746F7220676972616E646F8F
:100840002061206C6120497A717569657264610A62
:100850000D004D6F746F7220676972616E646F2056
:1008600061206C6120446572656368610A0A004D0D
:100870006F746F7220676972616E646F2061206CA3
:100880006120446572656368610A0D004C612075E2
:100890006C74696D61207465636C61206675652098
:1008A00025750A0A004D6F746F7220646574656E59
:1008B00069646F0A0A004D6F746F72206465746515
:1008C0006E69646F0A004249454E56454E49444F91
:1008D0000A203A29004249454E56454E49444F0A9E
:0708E0000A002000250000C2
:1008E800E30E0301E66F000EE76F23EE00F07F0EC4
:1008F800DE6AE806FDE2000E836F000E826F000ECE
:10090800816F000E806F000ED16F000ED06F20EE49
:1009180060F013EE90F03F0EDBCFE3FFE806FCE259
:10092800000ED56F000ED46F19EF0AF0250ED019FE
:10093800D8A4A1EF04F0A3EF04F00CEF0AF0900E96
:10094800086E030E096E0BEC28F0840E086E030E79
:10095800096E0BEC28F00301DA69DB69E869E969DB
:10096800250E846F000ED96F000ED86F000EE56F4C
:10097800010EE46F07EF05F0E1C0F6FFE2C0F7FFF4
:10098800840EE425D96E030EE521DA6E0800F5CF52
:10099800DFFF0001E14BE22B000E0301DD6F000ECB
:1009A800DC6FDDBFE1EF04F0DD5109E10F0EDC5D26
:1009B800D8A0E1EF04F0E3EF04F0E5EF04F005EF71
:1009C80005F0840EE425D96E030EE521DA6EDF50BA
:1009D800366E010EDC25F66E080EDD21F76E080076
:1009E800F5503618D8A4FBEF04F0FDEF04F001EF42
:1009F80005F0E4C3D8F3E5C3D9F3DC4BDD2BD5EF21
:100A080004F0E44BE52BD851D911D8B40EEF05F01A
:100A180010EF05F0C0EF04F0000EE56F000EE46F74
:100A2800000EDD6F000EDC6F79EF05F0840EDC251B
:100A3800D96E030EDD21DA6E2A0EDE18D8A427EF50
:100A480005F029EF05F040EF05F0E451E511D8A4D1
:100A580030EF05F032EF05F040EF05F0E6C3D9FFBF
:100A6800E7C3DAFFDECFDAF3DDCFDBF3020EE627EA
:100A7800000EE72377EF05F0840EDC25D96E030E10
:100A8800DD21DA6E2A0EDE18D8A44DEF05F04FEFFF
:100A980005F066EF05F0E405E511D8A456EF05F07A
:100AA80058EF05F066EF05F0E6C3D9FFE7C3DAFFB4
:100AB800DECFE8F3DDCFE9F3020EE627000EE723E9
:100AC80077EF05F0840EDC25D96E030EDD21DA6E92
:100AD8002E0EDE18D8A473EF05F075EF05F077EF4A
:100AE80005F0E44BE52BDC4BDD2BD851DC5DDD510B
:100AF800800A366ED951800A3658D8A086EF05F09C
:100B080088EF05F01AEF05F0840E0001D36F030E8D
:100B1800D46FDA0ED56F030ED66FE80ED76F030EBB
:100B2800D86FA5EC17F00301DBBFA4EF05F0DB518C
:100B380009E1400EDA5DD8A0A4EF05F0A6EF05F0B4
:100B4800AAEF05F0000EDB6F000EDA6FE9BFB6EF13
:100B580005F0E95109E1400EE85DD8A0B6EF05F0CF
:100B6800B8EF05F09CEF09F0000EE96F000EE86F92
:100B78009CEF09F0900E086E030E096EE40E0A6EE3
:100B8800080E0B6E85EC27F0EBEF09F0E6C3D9FFF2
:100B9800E7C3DAFFDF50806F020EE627000EE72377
:100BA800900E086E030E096E800E0A6E030E0B6E11
:100BB80085EC27F0EBEF09F0E6C3D9FFE7C3DAFFCE
:100BC800DECF8EF3DDCF8FF3020EE627000EE7238C
:100BD800900E086E030E096E8EC30AF08FC30BF0D9
:100BE80085EC27F0900E086E030E096EE80E0A6E6B
:100BF800030E0B6EB4EC26F0EBEF09F0E6C3D9FF59
:100C0800E7C3DAFFDECFDEF3DDCFDFF3020EE62740
:100C1800000EE723900E0001D36F030ED46FDEC3DE
:100C2800D5F0DFC3D6F0000ED6BFFF0ED76FD86F52
:100C3800000EDA6F0A0ED96F71EC1EF0900E086E76
:100C4800030E096EE80E0A6E030E0B6E2AEC21F0F5
:100C5800900E126E030E136EDEC304F0DFC305F0B0
:100C6800000E05BEFF0E066E076E010EC5EC1CF0E9
:100C780004C014F005C015F006C016F007C017F040
:100C8800F0EC1FF0EBEF09F0E6C3D9FFE7C3DAFF9A
:100C9800DECFDEF3DDCFDFF3020EE627000EE7231B
:100CA800900E0001D36F030ED46FDEC3D5F0DFC3FF
:100CB800D6F0000ED6BFFF0ED76FD86F000EDA6FD2
:100CC8000A0ED96F71EC1EF0900E086E030E096EB5
:100CD800E80E0A6E030E0B6E2AEC21F0900E126ECF
:100CE800030E136EDEC304F0DFC305F0000E05BE6D
:100CF800FF0E066E076E010EC5EC1CF004C014F062
:100D080005C015F006C016F007C017F0F0EC1FF08C
:100D1800EBEF09F0E6C3D9FFE7C3DAFFDECFD2F382
:100D2800DDCFD3F3020EE627000EE723900E000175
:100D3800D36F030ED46FD2C3D5F0D3C3D6F0D76B1D
:100D4800D86B000EDA6F0A0ED96F71EC1EF0900E98
:100D5800086E030E096EE80E0A6E030E0B6E2AEC7F
:100D680021F0EBEF09F0E6C3D9FFE7C3DAFFDECFE6
:100D7800DEF3DDCFDFF3020EE627000EE723900E49
:100D88000001D36F030ED46FDEC3D5F0DFC3D6F0F6
:100D9800000ED6BFFF0ED76FD86F000EDA6F100E99
:100DA800D96F71EC1EF0900E086E030E096EE80EF6
:100DB8000A6E030E0B6E2AEC21F0900E086E030EDD
:100DC800096EDEC30AF0DFC30BF0780E0C6E34EC4C
:100DD8001FF0900E086E030E096E2EEC26F0EBEF56
:100DE80009F0E6C3D9FFE7C3DAFFDECFDEF3DDCFD4
:100DF800DFF3020EE627000EE723900E0001D36F03
:100E0800030ED46FDEC3D5F0DFC3D6F0000ED6BF15
:100E1800FF0ED76FD86F000EDA6F100ED96F71EC16
:100E28001EF0900E086E030E096EE80E0A6E030E91
:100E38000B6E2AEC21F0900E086E030E096EDEC3CD
:100E48000AF0DFC30BF0780E0C6E34EC1FF0EBEFFA
:100E580009F0E6C3D9FFE7C3DAFFDECFDEF3DDCF63
:100E6800DFF3020EE627000EE723900E0001D36F92
:100E7800030ED46FDEC3D5F0DFC3D6F0000ED6BFA5
:100E8800FF0ED76FD86F000EDA6F080ED96F71ECAE
:100E98001EF0900E086E030E096EE80E0A6E030E21
:100EA8000B6E2AEC21F0900E086E030E096EDEC35D
:100EB8000AF0DFC30BF06F0E0C6E34EC1FF0EBEF93
:100EC80009F0E6C3D9FFE7C3DAFFDECFE0F3DECFF0
:100ED800E1F3DECFE2F3DECFE3F3040EE627000E04
:100EE800E723900E276E030E286EE0C329F0E1C3B6
:100EF8002AF0E2C32BF0E3C32CF021EC13F0900EA0
:100F08001F6E030E206EE80E216E030E226EDEECBD
:100F18001BF0900E126E030E136EE0C314F0E1C3C3
:100F280015F0E2C316F0E3C317F0F0EC1FF0EBEF97
:100F380009F0E6C3D9FFE7C3DAFFDECFE0F3DECF7F
:100F4800E1F3DECFE2F3DECFE3F3040EE627000E93
:100F5800E723900E0001DB6F030EDC6FE0C3DDF0CA
:100F6800E1C3DEF0E2C3DFF0E3C3E0F035EC16F0F6
:100F7800900E1F6E030E206EE80E216E030E226E79
:100F8800E3EC19F08DEF07F0E6C3D9FFE7C3DAFF0A
:100F9800DECFE0F3DECFE1F3DECFE2F3DECFE3F343
:100FA800040EE627000EE723900E0001DB6F030E08
:100FB800DC6FE0C3DDF0E1C3DEF0E2C3DFF0E3C3E2
:100FC800E0F035EC16F0900E1F6E030E206EE80E62
:100FD800216E030E226EE3EC19F0900E126E030ED2
:100FE800136EE0C314F0E1C315F0E2C316F0E3C3D7
:100FF80017F0F0EC1FF0EDEF06F0E6C3D9FFE7C3FA
:10100800DAFFDECFE0F3DECFE1F3DECFE2F3DECFCF
:10101800E3F3040EE627000EE723900E0001DB6FD2
:10102800030EDC6FE0C3DDF0E1C3DEF0E2C3DFF006
:10103800E3C3E0F035EC16F0DBC0D6F3DCC0D7F341
:10104800900E276E030E286EE0C329F0E1C32AF044
:10105800E2C32BF0E3C32CF021EC13F0000E0301E4
:10106800DD6F000EDC6F000EE56F000EE46F6EEFB3
:1010780008F0900EE425D96E030EE521DA6E2E0EE7
:10108800DE18D8A44AEF08F04CEF08F04EEF08F04D
:1010980080EF08F0900EE425D96E030EE521DA6E94
:1010A8002F0EDF645AEF08F05CEF08F06CEF08F0E1
:1010B800900EE425D96E030EE521DA6E3A0EDF6054
:1010C80068EF08F06AEF08F06CEF08F0DC4BDD2BF6
:1010D800E44BE52B900E046E030E056ED7EC29F059
:1010E80004500301E45D0550E559D8A07EEF08F0EF
:1010F80080EF08F03DEF08F0E82906E1E929D8A4D7
:1011080088EF08F08AEF08F08EEF08F0000EE96F1C
:10111800060EE86FD7AF9CEF08F0FD0ED65DFF0E08
:10112800D759D8A09AEF08F09CEF08F0ABEF08F079
:10113800DC51E85DE951800A366EDD51800A365887
:10114800D8B0A9EF08F0ABEF08F0BAEF08F0900EAE
:101158000001DB6F030EDC6FE0C3DDF0E1C3DEF0FE
:10116800E2C3DFF0E3C3E0F035EC16F0900E1F6E3B
:10117800030E206EE80E216E030E226E33EC0AF089
:101188008DEF07F0E6C3D9FFE7C3DAFFDECFE0F360
:10119800DECFE1F3DECFE2F3DECFE3F3040EE627A2
:1011A800000EE723900E0001DB6F030EDC6FE0C337
:1011B800DDF0E1C3DEF0E2C3DFF0E3C3E0F035ECDD
:1011C80016F0DBC0D6F3DCC0D7F3900E276E030E03
:1011D800286EE0C329F0E1C32AF0E2C32BF0E3C391
:1011E8002CF021EC13F0000E0301DD6F000EDC6F14
:1011F800000EE56F000EE46F33EF09F0900EE42562
:10120800D96E030EE521DA6E2E0EDE18D8A40FEF84
:1012180009F011EF09F013EF09F045EF09F0900E0E
:10122800E425D96E030EE521DA6E2F0EDF641FEF79
:1012380009F021EF09F031EF09F0900EE425D96E9D
:10124800030EE521DA6E3A0EDF602DEF09F02FEF7D
:1012580009F031EF09F0DC4BDD2BE44BE52B900E68
:10126800046E030E056ED7EC29F004500301E45D0B
:101278000550E559D8A043EF09F045EF09F002EF12
:1012880009F0E82906E1E929D8A44DEF09F04FEF64
:1012980009F053EF09F0000EE96F060EE86FD7AFBB
:1012A80061EF09F0FD0ED65DFF0ED759D8A05FEFAC
:1012B80009F061EF09F070EF09F0DC51E85DE951E0
:1012C800800A366EDD51800A3658D8B06EEF09F0C4
:1012D80070EF09F07FEF09F0900E0001DB6F030E4D
:1012E800DC6FE0C3DDF0E1C3DEF0E2C3DFF0E3C3AF
:1012F800E0F035EC16F0900E1F6E030E206EE80E2F
:10130800216E030E226E33EC0AF0F1EF07F0900E17
:10131800086E030E096EE20E0A6E080E0B6E85EC5F
:1013280027F0EBEF09F0D407D8A0D507EBEF09F0C9
:10133800840ED825D96E030ED921DA6EDF50366EA9
:10134800376A3750000AD8B4ACEF09F097EF09F0C4
:101358003650250AD8B4BEEF05F0600AD8B4C8EFF5
:1013680007F0020AD8B4C6EF08F01F0AD8B4B7EFDE
:1013780006F03B0AD8B4CAEF05F0070AD8B402EF62
:1013880006F0010AD8B49DEF07F0030AD8B465EF58
:1013980007F0010AD8B401EF08F00E0AD8B448EFF4
:1013A80006F0070AD8B48BEF09F0010AD8B42DEF7C
:1013B80007F01C0AD8B4E0EF05F0060AD8B48EEF9F
:1013C80006F00D0AD8B4F5EF06F097EF09F0900E85
:1013D800086E030E096EDA0E0A6E030E0B6ECDEC64
:1013E80018F0000E126E030E136E900E146E030E9C
:1013F800156E31EC2AF0900E046E030E056ED7ECD4
:1014080029F00450030182270550832319EF0AF0BD
:10141800000E126E030E136ED00E146E030E156EB0
:1014280031EC2AF00301824B832BE1C0F6FFE2C0C6
:10143800F7FF0001E14BE22B0800F5CFD0F30301E1
:10144800D051D8A42AEF0AF02CEF0AF09AEF04F052
:10145800000E086E030E096E14EC29F012001FC06E
:1014680004F020C005F0D7EC29F004C02EF005C028
:101478002FF01FC008F020C009F0650E0A6E26EC98
:1014880027F008C02CF009C02DF01FC008F020C0BC
:1014980009F02E0E0A6E26EC27F008C026F009C0C7
:1014A80027F0000E296E000E286E000E2B6E000E1F
:1014B8002A6E21C0D9FF22C0DAFFDE2806E1DE2825
:1014C800D8A469EF0AF06BEF0AF073EF0AF021C0B5
:1014D800D9FF22C0DAFF060EDE6E000EDD6E2DBECD
:1014E80080EF0AF02D5006E12C04D8B07EEF0AF008
:1014F80080EF0AF086EF0AF02EC032F02FC033F0EA
:101508008AEF0AF02CC032F02DC033F0000E356E91
:10151800000E346EE8EF0AF034501F24D96E3550AF
:101528002020DA6E2F0EDF649CEF0AF09EEF0AF09F
:10153800D5EF0AF034501F24D96E35502020DA6ECA
:101548003A0EDF60AAEF0AF0ACEF0AF0D5EF0AF026
:1015580034501F24D96E35502020DA6E300EDE1834
:10156800D8A4B9EF0AF0BBEF0AF0C4EF0AF02A508A
:101578002B10D8B4C2EF0AF0C4EF0AF0E6EF0AF075
:101588002A4A2B2A2A042B10D8A4CDEF0AF0CFEF31
:101598000AF0E6EF0AF034C028F035C029F0E6EF8B
:1015A8000AF034501F24D96E35502020DA6E650EAB
:1015B800DE18D8A4E2EF0AF0E4EF0AF0E6EF0AF04A
:1015C800F7EF0AF0344A352A34502E5C2F50800A3F
:1015D800236E3550800A2358D8B0F5EF0AF0F7EF9C
:1015E8000AF090EF0AF0FF0E3224346EFF0E33201B
:1015F800356E35BE04EF0BF002EF0BF006EF0BF083
:1016080051EF0BF034501F24D96E35502020DA6E7C
:10161800300EDE18D8A413EF0BF015EF0BF01AEF0D
:101628000BF02A06D8A02B0647EF0BF034501F24E6
:10163800D96E35502020DA6E300EDF6426EF0BF0BD
:1016480028EF0BF036EF0BF034501F24D96E3550CD
:101658002020DA6E390EDF6434EF0BF036EF0BF032
:1016680051EF0BF034501F24D96E35502020DA6E1C
:101678002E0EDE18D8A443EF0BF045EF0BF047EF22
:101688000BF051EF0BF03406D8A0350635BE51EFFC
:101698000BF04FEF0BF006EF0BF021C0D9FF22C083
:1016A800DAFF2A50DE5CDE50800A256E2B50800A55
:1016B8002558D8B062EF0BF064EF0BF0DEEF0CF0BA
:1016C80021C0D9FF22C0DAFFDECF23F0DDCF24F01E
:1016D80028502324346E29502420356E2650285C47
:1016E8002950800A236E2750800A2358D8B07FEFEC
:1016F8000BF081EF0BF092EF0BF02650345C355075
:10170800800A236E2750800A2358D8A08EEF0BF04A
:1017180090EF0BF092EF0BF0344A352A3450325CDC
:10172800306E35503358316E31BEA3EF0BF0315067
:1017380008E13004D8A0A3EF0BF0A5EF0BF030EFD1
:101748000CF01FC00EF020C00FF02CC010F02DC000
:1017580011F034C012F035C013F0BAEC14F00E04D6
:101768000F10D8A4BAEF0BF0BCEF0BF005EF0CF09C
:10177800000E336E000E326EE6EF0BF032501F246F
:10178800D96E33502020DA6E300EDF64CEEF0BF0C6
:10179800D0EF0BF0E4EF0BF032501F24D96E33502A
:1017A8002020DA6E3A0EDF60DCEF0BF0DEEF0BF094
:1017B800E4EF0BF032C028F033C029F0F7EF0BF05C
:1017C800344A352A1FC004F020C005F0D7EC29F0B0
:1017D8003250045C33500558D8B0F5EF0BF0F7EFF2
:1017E8000BF0C2EF0BF021C0D9FF22C0DAFFDECF29
:1017F80023F0DDCF24F028502324346E29502420F0
:10180800356E34C032F035C033F021EF0CF0325071
:101818001F24236E33502020246E30502324D96E89
:1018280031502420DA6E32501F24E16E33502020CC
:10183800E26EDFCFE7FF324A332A2E50325C335054
:10184800800A236E2F50800A2358D8A02EEF0CF060
:1018580030EF0CF00BEF0CF03B50D8A436EF0CF047
:1018680038EF0CF0DEEF0CF01FC008F020C009F0D4
:101878002E0E0A6E26EC27F008C026F009C027F0C5
:101888001FC004F020C005F0D7EC29F004C02EF0EA
:1018980005C02FF01FC008F020C009F0650E0A6EC1
:1018A80026EC27F008C02CF009C02DF02DBE67EFFC
:1018B8000CF02D5006E12C04D8B065EF0CF067EF62
:1018C8000CF06DEF0CF02EC032F02FC033F071EF3A
:1018D8000CF02CC032F02DC033F0FF0E3224306EE5
:1018E800FF0E3320316ECFEF0CF030501F24D96E2D
:1018F80031502020DA6E300EDF6485EF0CF087EF70
:101908000CF097EF0CF030501F24D96E3150202086
:10191800DA6E3A0EDF6093EF0CF095EF0CF097EF6C
:101928000CF0DEEF0CF01FC004F020C005F0D7EC7F
:1019380029F004C02EF005C02FF030C034F031C0BB
:1019480035F0BDEF0CF034501F24236E35502020A5
:10195800246E010E2324D96E000E2420DA6E345032
:101968001F24E16E35502020E26EDFCFE7FF344AB6
:10197800352A34502E5C2F50800A236E3550800A49
:101988002358D8B0CAEF0CF0CCEF0CF0A7EF0CF04E
:101998003006D8A031062650305C3150800A236EBC
:1019A8002750800A2358D8B0DCEF0CF0DEEF0CF09B
:1019B80079EF0CF012000750800B106E07500724C7
:1019C800126E06AEEAEF0CF0ECEF0CF0EDEF0CF057
:1019D80012801250D8B4F3EF0CF0F5EF0CF00AEFC8
:1019E8000DF01228D8A4FBEF0CF0FDEF0CF005EF7A
:1019F8000DF0000E046E000E056E000E066E000E51
:101A0800076E068E000E076E12EF0DF0000E046EC4
:101A1800000E056E000E066E000E076E0B50800B52
:101A2800116E10501118D8B41CEF0DF01EEF0DF008
:101A38001FEF0DF0108C0B500B24116E0AAE27EF20
:101A48000DF029EF0DF02AEF0DF011801150D8B4E8
:101A580030EF0DF032EF0DF047EF0DF01128D8A45C
:101A680038EF0DF03AEF0DF042EF0DF0000E086E72
:101A7800000E096E000E0A6E000E0B6E0A8E000E26
:101A88000B6E4FEF0DF0000E086E000E096E000E83
:101A98000A6E000E0B6E1250115CD8B056EF0DF0A6
:101AA80058EF0DF07FEF0DF010AC5DEF0DF05FEF2C
:101AB8000DF061EF0DF0800E101A12C013F011C076
:101AC80012F013C011F004C013F008C004F013C0E2
:101AD80008F005C013F009C005F013C009F006C0EE
:101AE80013F00AC006F013C00AF007C013F00BC0C9
:101AF80007F013C00BF0000E136E125011C00CF05B
:101B08000D6A0C5E000E0D5A0DBE94EF0DF00D50CF
:101B180009E11A0E0C5CD8A094EF0DF096EF0DF0C9
:101B2800CDEF0DF00450051006100710D8A49FEF54
:101B38000DF0A2EF0DF0010EA3EF0DF0000E136EE5
:101B4800000E046E000E056E000E066E000E076E87
:101B580011C012F0D6EF0DF013A0B5EF0DF0B7EFEE
:101B68000DF0BDEF0DF0D89013300109136EBFEFE3
:101B78000DF0D890133204A0C4EF0DF0C6EF0DF0AD
:101B8800C7EF0DF0138E07340732063205320432E0
:101B9800122A1150125CD8A0D4EF0DF0D6EF0DF038
:101BA800B0EF0DF010BCDBEF0DF0DDEF0DF01DEF29
:101BB8000EF01250D8A4E3EF0DF0E5EF0DF0EFEFC3
:101BC8000DF0000E046E000E056E000E066E000E7F
:101BD800076E3EEF0FF008500426095005220A5000
:101BE80006220B50072207A0FCEF0DF0FEEF0DF0C8
:101BF800AAEF0EF013A003EF0EF005EF0EF00BEFB7
:101C08000EF0D89013300109136E0DEF0EF0D89036
:101C1800133204A012EF0EF014EF0EF015EF0EF0D1
:101C2800138E07340732063205320432122AAAEF1D
:101C38000EF00850045C095005580A500658075021
:101C4800800A0C6E0B50800A0C58D8B02EEF0EF09C
:101C580030EF0EF05BEF0EF00450085C0C6E055090
:101C680009580D6E06500A580E6E07500B580F6E25
:101C7800FF0E0C24046EFF0E0D20056EFF0E0E20C5
:101C8800066EFF0E0F20076E800E101A136C13508D
:101C9800D8A451EF0EF053EF0EF063EF0EF0010EE3
:101CA8000426000E05220622072263EF0EF00850D4
:101CB800045E0950055A0A50065A0B50075A045038
:101CC800051006100710D8A46CEF0EF06EEF0EF09A
:101CD800A3EF0EF01350D8A474EF0EF076EF0EF0C9
:101CE800A3EF0EF0000E046E000E056E000E066ED9
:101CF800000E076E3EEF0FF0D89004360536063614
:101D0800073613AE8AEF0EF08CEF0EF08DEF0EF063
:101D1800048013A092EF0EF094EF0EF098EF0EF0FF
:101D2800D88013369AEF0EF0D89013361250D8B4E4
:101D3800A0EF0EF0A2EF0EF0A3EF0EF0120606AE23
:101D4800A8EF0EF0AAEF0EF080EF0EF0000E116E65
:101D580013AEB1EF0EF0B3EF0EF0CBEF0EF013C0F1
:101D68000CF07F0E0C16D8B4BCEF0EF0BEEF0EF0E0
:101D7800C2EF0EF0010E116ECBEF0EF004A0C7EF0C
:101D88000EF0C9EF0EF0CBEF0EF0BEEF0EF01150D3
:101D9800D8B4D1EF0EF0D3EF0EF0FEEF0EF0010E37
:101DA8000426000E05220622072207A0DEEF0EF009
:101DB800E0EF0EF0FEEF0EF004C00CF005C00DF0E1
:101DC80006C00EF007C00FF00F340F320E320D327E
:101DD8000C320CC004F00DC005F00EC006F00FC0A8
:101DE80007F01228D8B4FBEF0EF0FDEF0EF0FEEF6F
:101DF8000EF0122A1228D8B404EF0FF006EF0FF0F5
:101E08000EEF0FF01250D8A40CEF0FF00EEF0FF0FA
:101E180020EF0FF0000E046E000E056E000E066E29
:101E2800000E076E1250D8A41CEF0FF01EEF0FF033
:101E380020EF0FF0000E106E12A025EF0FF027EF25
:101E48000FF02AEF0FF0068E2BEF0FF0069ED890BA
:101E58001230076E10AE33EF0FF035EF0FF036EF9C
:101E68000FF0078E04C004F005C005F006C006F0A8
:101E780007C007F012000750800B106E07500724A8
:101E8800166E06AE4AEF0FF04CEF0FF04DEF0FF065
:101E980016801650D8B453EF0FF055EF0FF068EFD7
:101EA8000FF01628D8A45BEF0FF05DEF0FF065EF89
:101EB8000FF0000E046E000E056E000E066E000E8A
:101EC800076E068E70EF0FF0000E046E000E056EA2
:101ED800000E066E000E076E0B50800B101A0B508A
:101EE8000B24116E0AAE7BEF0FF07DEF0FF07EEF43
:101EF8000FF011801150D8B484EF0FF086EF0FF077
:101F080099EF0FF01128D8A48CEF0FF08EEF0FF097
:101F180096EF0FF0000E086E000E096E000E0A6EA6
:101F2800000E0B6E0A8EA1EF0FF0000E086E000E69
:101F3800096E000E0A6E000E0B6E1150D8B4A7EF92
:101F48000FF0A9EF0FF0B1EF0FF01650D8A4AFEFD4
:101F58000FF0B1EF0FF0BBEF0FF0000E046E000EA4
:101F6800056E000E066E000E076E53EF11F00A5054
:101F78000402F3CF1BF0F4CF1CF01B50126E136A4F
:101F8800146A156A1C50176E186A196A1A6A095079
:101F98000502F3CF1BF0F4CF1CF01B501226000EE5
:101FA8001322142215221C501726000E182219225B
:101FB8001A2208500602F3CF1BF0F4CF1CF01B5076
:101FC8001226000E1322142215221C501726000E6A
:101FD800182219221A2214C015F013C014F012C0C6
:101FE80013F0126A08500502F3CF1BF0F4CF1CF06F
:101FF8001B5012261C501322000E1422000E15220C
:1020080009500402F3CF1BF0F4CF1CF01B5012262A
:102018001C501322000E1422000E152214C015F0B5
:1020280013C014F012C013F0126A08500402F3CF60
:102038001BF0F4CF1CF01B5012261C501322000E6C
:102048001422000E15220A500502F3CF1BF0F4CF1C
:102058001CF01B5017261C501822000E1922000EC7
:102068001A2209500602F3CF1BF0F4CF1CF01B50C4
:1020780017261C501822000E1922000E1A220A5088
:102088000602F3CF1BF0F4CF1CF01B500C6E1C5053
:102098000D6E0E6A0F6A0EC00FF00DC00EF00CC068
:1020A8000DF00C6A0C5017260D5018220E501922EC
:1020B8000F501A2212C00CF013C00DF014C00EF00D
:1020C80015C00FF0190E6EEF10F0D8900F320E32C7
:1020D8000D320C32E82E69EF10F00C5017260D5017
:1020E80018220E5019220F501A2214C015F013C0CE
:1020F80014F012C013F0126A115016C00CF00D6AD9
:102108000C26000E0D22820E0C241B6EFF0E0D20D5
:102118001C6EA4EF10F0D8901736183619361A36F8
:1021280015AE99EF10F09BEF10F09CEF10F01780B0
:10213800D89012361336143615361B06D8A01C064E
:1021480019AEA9EF10F0ABEF10F08FEF10F0000E02
:10215800116E15AEB2EF10F0B4EF10F0D8EF10F02A
:10216800FF0E12140C6EFF0E13140D6EFF0E1414D6
:102178000E6E7F0E15140F6E0C500D100E100F10F2
:10218800D8B4C9EF10F0CBEF10F0CFEF10F0010E7C
:10219800116ED8EF10F017A0D4EF10F0D6EF10F0B2
:1021A800D8EF10F0CBEF10F01150D8B4DEEF10F0EC
:1021B800E0EF10F004EF11F0010E1726000E1822C0
:1021C80019221A221AA0EBEF10F0EDEF10F004EF2D
:1021D80011F017C00CF018C00DF019C00EF01AC09D
:1021E8000FF00F340F320E320D320C320CC017F0D4
:1021F8000DC018F00EC019F00FC01AF01B4A1C2AA7
:102208001CBE0FEF11F01C5008E11B28D8A00FEFDF
:1022180011F011EF11F01BEF11F0000E176E000E08
:10222800186E800E196E7F0E1A6E49EF11F01CBEE3
:1022380028EF11F01C5006E11B04D8B026EF11F06E
:1022480028EF11F034EF11F0000E176E000E186E23
:10225800000E196E000E1A6E000E106E49EF11F086
:102268001BC016F0FF0E1716FF0E18167F0E191654
:10227800000E1A1616A043EF11F045EF11F046EFC5
:1022880011F0198ED89016301A6E10501A1217C005
:1022980004F018C005F019C006F01AC007F01200C3
:1022A8000750800B146E075007241B6E06AE5FEFB5
:1022B80011F061EF11F062EF11F01B801B50D8B4E0
:1022C80068EF11F06AEF11F07FEF11F01B28D8A426
:1022D80070EF11F072EF11F07AEF11F0000E046E4A
:1022E800000E056E000E066E000E076E068E000EBE
:1022F800076E87EF11F0000E046E000E056E000EDB
:10230800066E000E076E0B50800B141A0B500B2430
:102318001C6E0AAE92EF11F094EF11F095EF11F0E8
:102328001C801C50D8B49BEF11F09DEF11F0B2EF58
:1023380011F01C28D8A4A3EF11F0A5EF11F0ADEF10
:1023480011F0000E086E000E096E000E0A6E000EE7
:102358000B6E0A8E000E0B6EBAEF11F0000E086EAF
:10236800000E096E000E0A6E000E0B6E0850091062
:102378000A100B10D8A4C3EF11F0C5EF11F0DDEF70
:1023880011F0000E046E000E056E000E066E000EB3
:10239800076E800E06127F0E07121450071204C033
:1023A80004F005C005F006C006F007C007F020EFEE
:1023B80013F01B50D8A4E3EF11F0E5EF11F0EFEFA5
:1023C80011F0000E046E000E056E000E066E000E73
:1023D800076E20EF13F01C501BC00CF00D6A0C5E4A
:1023E800000E0D5A7F0E0C24156E000E0D20166E71
:1023F80004C010F005C011F006C012F007C013F0B9
:10240800000E046E000E056E000E066E000E076EBE
:10241800000E176E000E186E000E196E000E1A6E62
:10242800000E1C6E50EF12F01C50D8B41EEF12F0C4
:1024380020EF12F037EF12F0D8901036113612361E
:102448001336D89004360536063607361AAE2FEFFF
:1024580012F031EF12F032EF12F00480D8901736F4
:10246800183619361A360850105C095011580A5097
:1024780012580B501358D8A044EF12F046EF12F040
:102488004FEF12F01A8C0850105E0950115A0A507A
:10249800125A0B50135A1C2A190E1C6456EF12F0CC
:1024A80058EF12F018EF12F010501110121013100C
:1024B800D8B461EF12F063EF12F07BEF12F01780DF
:1024C8007BEF12F0D89004360536063607361AAE7A
:1024D80070EF12F072EF12F073EF12F00480D890E0
:1024E8001736183619361A361506D8A0160606AE47
:1024F80080EF12F082EF12F066EF12F0000E1C6E01
:102508001AAE89EF12F08BEF12F0AFEF12F0FF0E58
:1025180017140C6EFF0E18140D6EFF0E19140E6EA4
:102528007F0E1A140F6E0C500D100E100F10D8B429
:10253800A0EF12F0A2EF12F0A6EF12F0010E1C6E3F
:10254800AFEF12F004A0ABEF12F0ADEF12F0AFEF67
:1025580012F0A2EF12F01C50D8B4B5EF12F0B7EF9A
:1025680012F0DBEF12F0010E0426000E05220622FF
:10257800072207A0C2EF12F0C4EF12F0DBEF12F04F
:1025880004C00CF005C00DF006C00EF007C00FF037
:102598000F340F320E320D320C320CC004F00DC065
:1025A80005F00EC006F00FC007F0154A162A16BE31
:1025B800E6EF12F0165008E11528D8A0E6EF12F061
:1025C800E8EF12F0F3EF12F0000E166E1568000E29
:1025D800046E000E056E000E066E000E076E16BE27
:1025E80000EF13F0165006E11504D8B0FEEF12F014
:1025F80000EF13F00EEF13F0000E166E000E156EBE
:10260800000E046E000E056E000E066E000E076EBC
:10261800000E146E15C01BF01BA015EF13F017EF7A
:1026280013F01AEF13F0068E1BEF13F0069ED890E6
:102638001B30076ED1EF11F01200000E346E000E41
:10264800336E29C004F02AC005F02BC006F02CC058
:1026580007F0000E086E000E096E000E0A6E000EDE
:102668000B6E3AEC25F0D8A03CEF13F03EEF13F0D8
:102678005EEF13F027C0D9FF28C0DAFF300EDF6EF7
:1026880020EE01F02750D9262850DA222E0EDF6ED0
:1026980020EE02F02750D9262850DA22300EDF6EBD
:1026A80020EE03F02750D9262850DA22000EDF6EDC
:1026B800B9EF14F02CBE65EF13F063EF13F077EF6A
:1026C80013F029C004F02AC005F02BC006F02CC076
:1026D80007F0BBEC29F004C029F005C02AF006C0B9
:1026E8002BF007C02CF0290E1D6E000E1E6E9AEC02
:1026F80020F01DC031F01EC032F0E9EF13F0000EDB
:10270800086E000E096E200E0A6E410E0B6E29C06F
:1027180004F02AC005F02BC006F02CC007F03FECEF
:102728000FF004C01DF005C01EF006C01FF007C062
:1027380020F03BEC22F01DC02DF01EC02EF02D50D5
:10274800300F27C0D9FF28C0DAFFDF6E274A282AB2
:10275800000E086E000E096E200E0A6E410E0B6EFA
:1027680029C004F02AC005F02BC006F02CC007F0E1
:102778003FEC0FF004C01DF005C01EF006C01FF0AE
:1027880007C020F02DC004F02EC005F0000E05BED5
:10279800FF0E066E076E010EC5EC1CF004C021F09A
:1027A80005C022F006C023F007C024F0F1EC28F0A1
:1027B8001DC029F01EC02AF01FC02BF020C02CF02D
:1027C800334A342A3106D8A0320632BEF6EF13F067
:1027D800325006E13104D8B0F4EF13F0F6EF13F0FD
:1027E80083EF13F033503410D8A4FDEF13F0FFEF4C
:1027F80013F007EF14F027C0D9FF28C0DAFF300E16
:10280800DF6E274A282A34BE15EF14F0345007E14A
:10281800070E335CD8B013EF14F015EF14F02BEF5C
:1028280014F027C0D9FF28C0DAFF2E0EDF6E274A22
:10283800282A2BEF14F027C0D9FF28C0DAFF300E62
:10284800DF6E274A282A314A322A334A342A32BECE
:1028580032EF14F030EF14F0A5EF14F034BE3EEF71
:1028680014F0345009E1070E335CD8A03EEF14F0A1
:1028780040EF14F01FEF14F0A5EF14F0000E086EEF
:10288800000E096E200E0A6E410E0B6E29C004F070
:102898002AC005F02BC006F02CC007F03FEC0FF063
:1028A80004C01DF005C01EF006C01FF007C020F0D0
:1028B8003BEC22F01DC02FF01EC030F02F50300F1F
:1028C80027C0D9FF28C0DAFFDF6E274A282A000E62
:1028D800086E000E096E200E0A6E410E0B6E29C09E
:1028E80004F02AC005F02BC006F02CC007F03FEC1E
:1028F8000FF004C01DF005C01EF006C01FF007C091
:1029080020F02FC004F030C005F0000E05BEFF0E09
:10291800066E076E010EC5EC1CF004C021F005C060
:1029280022F006C023F007C024F0F1EC28F01DC007
:1029380029F01EC02AF01FC02BF020C02CF0334A0B
:10294800342A34BEB1EF14F0345009E1070E335C79
:10295800D8A0B1EF14F0B3EF14F042EF14F027C091
:10296800D9FF28C0DAFF000EDF6E12000EC004F097
:102978000FC005F0D7EC29F004C017F005C018F017
:102988000EC008F00FC009F02E0E0A6E26EC27F0D4
:1029980008C019F009C01AF0FF0E12241D6EFF0EB0
:1029A80013201E6E1EBEDDEF14F0DBEF14F0DFEF18
:1029B80014F04EEF15F01D500E24D96E1E500F2046
:1029C800DA6E390EDF60EBEF14F0EDEF14F049EF3B
:1029D80015F01D500E24D96E1E500F20DA6E2E0EE3
:1029E800DE18D8B4FAEF14F0FCEF14F049EF15F044
:1029F80012500E24D96E13500F20DA6E340EDF6495
:102A080008EF15F00AEF15F04EEF15F01D500E24E3
:102A1800D96E1E500F20DA6EDF2A38EF15F01D50E0
:102A28000E24146E1E500F20156E010E1424D96E3C
:102A3800000E1520DA6E2E0EDE18D8B426EF15F02B
:102A480028EF15F036EF15F01D500E24146E1E50A9
:102A58000F20156E010E1424D96E000E1520DA6EA3
:102A6800300EDF6E1D4A1E2A12501D5C1E50800A51
:102A7800146E1350800A1458D8A045EF15F047EF8C
:102A880015F013EF15F04EEF15F01D06D8A01E0631
:102A9800D6EF14F01D2806E11E28D8A456EF15F02D
:102AA80058EF15F0E0EF15F0102806E11128D8A42A
:102AB80060EF15F062EF15F0E0EF15F00EC0D9FFEA
:102AC8000FC0DAFF2B0EDE18D8B46DEF15F06FEFDC
:102AD80015F07CEF15F00EC0D9FF0FC0DAFF2D0EF0
:102AE800DE18D8A47AEF15F07CEF15F08AEF15F010
:102AF80020EE01F00E50D9260F50DA22310EDF6E8B
:102B0800000E1C6E020E1B6ECFEF15F00EC0D9FF23
:102B18000FC0DAFF310EDF6E000E1C6E010E1B6E49
:102B2800CFEF15F01B500E24D96E1C500F20DA6E13
:102B38002E0EDE18D8A4A3EF15F0A5EF15F0BFEF01
:102B480015F01B500E24D96E1C500F20DA6E300E73
:102B5800DF6E1B500E24146E1C500F20156E010ED4
:102B68001424D96E000E1520DA6E2E0EDF6E1B4A65
:102B78001C2AC7EF15F01B500E24D96E1C500F20CD
:102B8800DA6E300EDF6E1B4A1C2A000E0F6E010E25
:102B98000E6E34EF16F017501B5C1C50800A146E32
:102BA8001850800A1458D8A0DCEF15F0DEEF15F0A5
:102BB80096EF15F030EF16F01D2806E11E28D8A470
:102BC800E8EF15F0EAEF15F030EF16F0102808E1FD
:102BD8001128D8B4F2EF15F0F4EF15F030EF16F035
:102BE80019500E24146E1A500F20156EFF0E14245F
:102BF800D96EFF0E1520DA6E310EDF6E010E192424
:102C08001B6E000E1A201C6E14EF16F01B500E24BB
:102C1800D96E1C500F20DA6E300EDF6E1B4A1C2A4C
:102C280010501B5C1C50800A146E1150800A1458F6
:102C3800D8A021EF16F023EF16F00AEF16F0105087
:102C48000E24146E11500F20156E020E1424D96E26
:102C5800000E1520DA6EDF2A000E0F6E000E0E6EC3
:102C68001200DDC004F0DEC005F0DFC006F0E0C0F1
:102C780007F0000E086E000E096E000E0A6E000EB8
:102C88000B6E3AEC25F0D8A04CEF16F04EEF16F08C
:102C980063EF16F0DBC0D9FFDCC0DAFF300EDF6E61
:102CA800000120EE01F0DB51D926DC51DA22000EBA
:102CB800DF6E000EDC6F000EDB6FA4EF17F0000173
:102CC800E0BF6BEF16F069EF16F07DEF16F0DDC090
:102CD80004F0DEC005F0DFC006F0E0C007F0BBEC92
:102CE80029F004C0DDF005C0DEF006C0DFF007C043
:102CF800E0F0DD0E1D6E000E1E6E9AEC20F01DC079
:102D08002DF01EC02EF0000E086E000E096E200E6B
:102D18000A6E410E0B6EDDC004F0DEC005F0DFC0A8
:102D280006F0E0C007F03FEC0FF004C01DF005C04E
:102D38001EF006C01FF007C020F03BEC22F01DC0BB
:102D480027F01EC028F02750300FDBC0D9FFDCC0A9
:102D5800DAFFDF6E0001DB4BDC2B000E086E000E85
:102D6800096E200E0A6E410E0B6EDDC004F0DEC047
:102D780005F0DFC006F0E0C007F03FEC0FF004C03C
:102D88001DF005C01EF006C01FF007C020F027C0C8
:102D980004F028C005F0000E05BEFF0E066E076E93
:102DA800010EC5EC1CF004C021F005C022F006C0DD
:102DB80023F007C024F0F1EC28F01DC0DDF01EC0A0
:102DC800DEF01FC0DFF020C0E0F02D06D8A02E06F0
:102DD800DBC0D9FFDCC0DAFF2E0EDF6E0001DB4B53
:102DE800DC2B000E2C6E000E2B6E000E086E000EF3
:102DF800096E200E0A6E410E0B6EDDC004F0DEC0B7
:102E080005F0DFC006F0E0C007F03FEC0FF004C0AB
:102E18001DF005C01EF006C01FF007C020F03BECF7
:102E280022F01DC029F01EC02AF02950300FDBC047
:102E3800D9FFDCC0DAFFDF6E0001DB4BDC2B000EB4
:102E4800086E000E096E200E0A6E410E0B6EDDC074
:102E580004F0DEC005F0DFC006F0E0C007F03FEC8C
:102E68000FF004C01DF005C01EF006C01FF007C01B
:102E780020F029C004F02AC005F0000E05BEFF0EA0
:102E8800066E076E010EC5EC1CF004C021F005C0EB
:102E980022F006C023F007C024F0F1EC28F01DC092
:102EA800DDF01EC0DEF01FC0DFF020C0E0F02B4ACE
:102EB8002C2A2CBE69EF17F02C5009E1060E2B5C6A
:102EC800D8A069EF17F06BEF17F0F9EF16F0DBC039
:102ED800D9FFDCC0DAFF650EDF6E0001DB4BDC2BAF
:102EE8002EBE79EF17F07BEF17F085EF17F0DBC0F8
:102EF800D9FFDCC0DAFF2B0EDF6EDB4BDC2B8DEF4E
:102F080017F0DBC0D9FFDCC0DAFF2D0EDF6E81EFD2
:102F180017F0DBC0D3F0DCC0D4F02DC0D5F02EC044
:102F2800D6F0000ED6BFFF0ED76FD86F000EDA6F3F
:102F38000A0ED96F71EC1EF02DC0DBF02EC0DCF04C
:102F48001200D3C004F0D4C005F0D7EC29F004C0B7
:102F580022F005C023F020EE1DF0040EDE6AE8061C
:102F6800FDE220EE18F0040EDE6AE806FDE2000E2F
:102F7800256E000E246E000E276E000E266E000EC3
:102F88000001D06F000ECF6FD3C008F0D4C009F095
:102F98002B0E0A6EB3EC27F00001D16FD3C008F0F6
:102FA800D4C009F02D0E0A6EB3EC27F03C6ED3C0E6
:102FB80008F0D4C009F0200E0A6EB3EC27F0000127
:102FC800CE6FD3C008F0D4C009F0230E0A6EB3EC5C
:102FD80027F03B6ED3C008F0D4C009F02E0E0A6E5D
:102FE80026EC27F008C028F009C029F0000E2B6E47
:102FF800010E2A6E66EF18F02A500001D325D96E0B
:103008002B50D421DA6E2F0EDF640DEF18F00FEF7E
:1030180018F064EF18F02A50D325D96E2B50D4211C
:10302800DA6E3A0EDF601BEF18F01DEF18F064EF50
:1030380018F028502A5C2B50800A166E2950800AF6
:103048001658D8A02AEF18F02CEF18F033EF18F024
:1030580029BE33EF18F031EF18F045EF18F02A5079
:10306800D325D96E2B50D421DA6E1D0E2424E16E9F
:10307800000E2520E26EDFCFE7FF244A252A64EF01
:1030880018F02A50285C2950800A166E2B50800AA6
:103098001658D8B052EF18F054EF18F064EF18F043
:1030A8002A50D325D96E2B50D421DA6E180E262437
:1030B800E16E000E2720E26EDFCFE7FF264A272ABF
:1030C8002A4A2B2A22502A5C2B50800A166E23503B
:1030D800800A1658D8A073EF18F075EF18F000EFB3
:1030E80018F0300E1D18D8A47CEF18F07EEF18F0F9
:1030F80081EF18F0010E0001D06F1D0E126E000E48
:10310800136EE2EC25F0180E126E000E136EE2EC50
:1031180025F0D5C0D9FFD6C0DAFFDE2806E1DE28C3
:10312800D8A499EF18F09BEF18F0A9EF18F01D0E2E
:103138000A6E000E0B6EB6EC23F0D5C0D9FFD6C0D0
:10314800DAFF0AC0DEFF0BC0DDFF29BEAEEF18F0C4
:10315800B0EF18F0CCEF18F0D7C0D9FFD8C0DAFF1D
:10316800DE2806E1DE28D8A4BCEF18F0BEEF18F080
:10317800CCEF18F0180E0A6E000E0B6EB6EC23F0AA
:10318800D7C0D9FFD8C0DAFF0AC0DEFF0BC0DDFF09
:10319800120008C004F009C005F0D7EC29F004C0FB
:1031A80010F005C011F00AC0D9FF0BC0DAFFDECF5E
:1031B8000CF0DDCF0DF010500C5C0E6E11500D5858
:1031C8000F6E0FBEF0EF18F00F5008E10E04D8A0F4
:1031D800F0EF18F0F2EF18F01DEF19F03C04D8A446
:1031E800F8EF18F0FAEF18F01DEF19F0000E136E53
:1031F800000E126E0CEF19F010500824D96E115001
:103208000920DA6E200EDF6E104A112A124A132A9C
:103218000E50125C1350800A0C6E0F50800A0C5826
:10322800D8A019EF19F01BEF19F000EF19F0E2EF31
:1032380019F00FBE28EF19F00F5008E10E04D8A0BE
:1032480028EF19F02AEF19F0E2EF19F03C50D8A452
:1032580030EF19F032EF19F0E2EF19F00AC0D9FF98
:103268000BC0DAFFDECF0CF0DDCF0DF0FF0E0C2423
:10327800126EFF0E0D20136E13BE47EF19F045EFC7
:1032880019F049EF19F0E2EF19F01006D8A011066D
:103298000001D005D8A453EF19F055EF19F0C4EF89
:1032A80019F0CF51D8A45BEF19F05DEF19F0C4EF16
:1032B80019F00E50125C1350800A0C6E0F50800AE1
:1032C8000C58D8A06AEF19F06CEF19F0A4EF19F0B8
:1032D80010500824D96E11500920DA6E2B0EDE1812
:1032E800D8B479EF19F07BEF19F08AEF19F0105084
:1032F8000824D96E11500920DA6E2D0EDE18D8A4D4
:1033080088EF19F08AEF19F094EF19F01250082499
:10331800D96E13500920DA6E300EDF6EDDEF19F02A
:1033280010500824D96E11500920DA6E1250082462
:10333800E16E13500920E26EDFCFE7FFDDEF19F0F1
:1033480012500824D96E13500920DA6E2B0EDE189D
:10335800D8B4B1EF19F0B3EF19F0DDEF19F012504E
:103368000824D96E13500920DA6E2D0EDE18D8B451
:10337800C0EF19F0C2EF19F0DDEF19F08AEF19F07C
:103388000E50125C1350800A0C6E0F50800A0C58B5
:10339800D8A0D1EF19F0D3EF19F0D5EF19F094EFC9
:1033A80019F012500824D96E13500920DA6E200E35
:1033B800DF6E1206D8A0130640EF19F012001FC0E6
:1033C80004F020C005F0D7EC29F004C027F005C0B0
:1033D80028F01FC008F020C009F0650E0A6E26EC20
:1033E80027F008C029F009C02AF01FC008F020C043
:1033F80009F02E0E0A6E26EC27F008C025F009C049
:1034080026F021C0D9FF22C0DAFF010EDBBE11EF82
:103418001AF00FEF1AF019EF1AF021C0D9FF22C0E5
:10342800DAFF040EDE6E000EDD6E21C0D9FF22C069
:10343800DAFFDECF23F0DDCF24F0255023262650F7
:103448002422010E23242B6E000E24202C6E2B50D8
:10345800295C2D6E2C502A582E6E2EBE3CEF1AF089
:103468002E5008E12D04D8A03CEF1AF03EEF1AF0D8
:1034780093EF1AF01FC00EF020C00FF029C010F013
:103488002AC011F02BC012F02CC013F0BAEC14F0C3
:1034980021C0D9FF22C0DAFFDE50DE10D8A457EFD2
:1034A8001AF059EF1AF066EF1AF03B50D8A45FEF04
:1034B8001AF061EF1AF066EF1AF02B06D8A02C0666
:1034C8002D4A2E2A2BC02FF02CC030F082EF1AF094
:1034D8002F501F24236E30502020246E2D5023247B
:1034E800D96E2E502420DA6E2F501F24E16E3050F2
:1034F8002020E26EDFCFE7FF2F4A302A27502F5CCB
:103508003050800A236E2850800A2358D8A08FEFA5
:103518001AF091EF1AF06CEF1AF0E7EF1AF02EBEDE
:103528009AEF1AF098EF1AF0E7EF1AF02D50275C8F
:10353800236E2E502858246EFF0E23242F6EFF0E64
:103548002420306ED8EF1AF02B502F5C3050800AB0
:10355800236E2C50800A2358D8A0B5EF1AF0B7EF85
:103568001AF0CDEF1AF02F501F24236E3050202070
:10357800246E2D502324D96E2E502420DA6E2F501D
:103588001F24E16E30502020E26EDFCFE7FFD5EF39
:103598001AF02F501F24D96E30502020DA6E300ECA
:1035A800DF6E2F06D8A0300629502F5C3050800AD5
:1035B800236E2A50800A2358D8B0E5EF1AF0E7EFB7
:1035C8001AF0A8EF1AF012005EEC28F0480ED76E39
:1035D800E50ED66E000E046E000E056E000E80EC31
:1035E80024F03D0E396EE10E386E400EE82EFED7FF
:1035F800382EFCD7392EFAD7D50E0001E16F080E08
:10360800E26F74EC04F0000E086E000E096E010EF5
:103618006AEC2AF0B40E0E6E000E0F6E000E106EDD
:10362800E0EC27F035EC28F09FEC1DF00001D26F9C
:10363800B5EF1BF06F0E0F6E080E106E1EEC24F027
:10364800520E0001E16F080EE26F74EC04F08B92E9
:103658008B943D0E396EE10E386E400EE82EFED783
:10366800382EFCD7392EFAD78B928B84CEEF1BF0ED
:10367800330E0F6E080E106E1EEC24F0140E0001AF
:10368800E16F080EE26F74EC04F08B928B943D0EA0
:10369800396EE10E386E400EE82EFED7382EFCD774
:1036A800392EFAD78B828B94CEEF1BF0B60E0F6EA5
:1036B800080E106E1EEC24F0A50E0001E16F080E36
:1036C800E26F74EC04F08B928B94CEEF1BF08C0EAF
:1036D800E16F080EE26FD2C0E3F0E46B74EC04F023
:1036E800300E0001D219D8A47CEF1BF07EEF1BF03E
:1036F80082EF1BF007EC2AF0CEEF1BF02A0ED2194E
:10370800D8A489EF1BF08BEF1BF094EF1BF0000E91
:10371800086E000E096E000E6AEC2AF0CEEF1BF060
:10372800230ED219D8A49BEF1BF09DEF1BF0A6EF38
:103738001BF0010E086E010E096E010E6AEC2AF0EC
:10374800CEEF1BF007EC2AF0030E086E000EA8EC73
:1037580028F0C60E0F6E080E106E1EEC24F0CEEF89
:103768001BF0D251386E396A3950000AD8B4BFEF0D
:103778001BF06BEF1BF03850410AD8B41EEF1BF05A
:10378800030AD8B43CEF1BF0010AD8B45AEF1BF077
:103798006BEF1BF01F0E396E710E386E1E0EE82E81
:1037A800FED7382EFCD7392EFAD700D016EF1BF0EB
:1037B80007EF00F01FC004F020C005F0D7EC29F097
:1037C80004C02CF005C02DF01FC008F020C009F07F
:1037D8002E0E0A6E26EC27F008C028F009C029F042
:1037E80021C0D9FF22C0DAFF010EDBBE00EF1CF0BA
:1037F800FEEF1BF008EF1CF021C0D9FF22C0DAFF52
:10380800040EDE6E000EDD6E21C0D9FF22C0DAFF85
:10381800DECF23F0DDCF24F02850232629502422A0
:10382800010E23242A6E000E24202B6E2A502C5CB5
:10383800266E2B502D58276E27BE2BEF1CF02750D5
:1038480008E12604D8A02BEF1CF02DEF1CF088EF20
:103858001CF01FC00EF020C00FF0FF0E116E106894
:103868002AC012F02BC013F0BAEC14F021C0D9FF13
:1038780022C0DAFFDE50DE10D8A445EF1CF047EF77
:103888001CF04FEF1CF03B50D8B44DEF1CF04FEF3D
:103898001CF063EF1CF021C0D9FF22C0DAFFDECF95
:1038A80023F0DDCF24F02850232629502422010EAE
:1038B80023242A6E000E24202B6E67EF1CF028C0EC
:1038C8002AF029C02BF02AC02EF02BC02FF077EF5A
:1038D8001CF02E501F24D96E2F502020DA6E000EB7
:1038E800DF6E2E4A2F2A2C502E5C2F50800A236E12
:1038F8002D50800A2358D8A084EF1CF086EF1CF0C6
:103908006DEF1CF0C4EF1CF027BE8FEF1CF08DEF9D
:103918001CF0C4EF1CF01FC008F020C009F02E0EE8
:103928000A6EB3EC27F00009D8B49DEF1CF09FEFA6
:103938001CF0C4EF1CF02CC02EF02DC02FF0AFEF00
:103948001CF02E501F24D96E2F502020DA6E300E16
:10395800DF6E2E4A2F2A26502C5C236E27502D58B6
:10396800246E23502E5C2F50800A256E2450800A26
:103978002558D8A0C2EF1CF0C4EF1CF0A5EF1CF02E
:1039880012000C6E0C50D8B4CCEF1CF0CEEF1CF02B
:10399800F0EF1CF007BED5EF1CF0D3EF1CF0F0EFF2
:1039A8001CF004C008F005C009F006C00AF007C002
:1039B8000BF0081E091E0A1E0B1E082A000E0922FB
:1039C8000A220B2208C00EF009C00FF00AC010F03E
:1039D8000BC011F0F8EF1CF004C00EF005C00FF09A
:1039E80006C010F007C011F00450051006100710AB
:1039F800D8A401EF1DF003EF1DF00DEF1DF0000E30
:103A0800046E000E056E000E066E000E076E9EEF29
:103A18001DF0960E0D6E17EF1DF00D2AD89011327D
:103A280010320F320E32000E0E14086E000E0F14F4
:103A3800096E000E10140A6EFE0E11140B6E08505B
:103A480009100A100B10D8A42CEF1DF02EEF1DF052
:103A580011EF1DF03CEF1DF00D2A010E0E26000E91
:103A68000F2210221122D890113210320F320E324A
:103A7800000E0E14086E000E0F14096E000E1014BE
:103A88000A6EFF0E11140B6E085009100A100B1065
:103A9800D8A451EF1DF053EF1DF030EF1DF05BEF90
:103AA8001DF00D06D8900E360F361036113610BEA2
:103AB80060EF1DF062EF1DF06AEF1DF0020E0D6061
:103AC80068EF1DF06AEF1DF055EF1DF00DB06FEFB8
:103AD8001DF071EF1DF072EF1DF0109ED8900D32A1
:103AE8000DC008F0096A0A6A0B6A08C00BF00A6A76
:103AF800096A086A08500E1209500F120A5010126B
:103B08000B5011120C50D8B48CEF1DF08EEF1DF035
:103B180096EF1DF007BE95EF1DF093EF1DF096EFA1
:103B28001DF0118E0EC004F00FC005F010C006F095
:103B380011C007F01200000E0A6E000E096E000E8A
:103B48000C6E000E0B6E000E0C6E000E0B6E0B5002
:103B58000C10D8A4B2EF1DF0B6EF1DF0046A042AC9
:103B6800B7EF1DF0046A0446044604468A50041858
:103B7800F70B04188A6E0B040C10D8A4C6EF1DF0BE
:103B8800CAEF1DF0046A042ACBEF1DF0046A04464C
:103B980004468A500418FB0B04188A6E020E0B1890
:103BA8000C10D8A4DAEF1DF0DEEF1DF0046A042A29
:103BB800DFEF1DF0046A04468A500418FD0B041850
:103BC8008A6E030E0B180C10D8A4EDEF1DF0F1EF60
:103BD8001DF0046A042AF2EF1DF0046A8A500418E2
:103BE800FE0B04188A6E9C0E046ED70EE82EFED7C4
:103BF800042EFCD700F081BE04EF1EF006EF1EF085
:103C08000CEF1EF0000E0A6E000E096E51EF1EF04A
:103C180081BC11EF1EF013EF1EF019EF1EF0000E1D
:103C28000A6E010E096E51EF1EF081BA1EEF1EF0EA
:103C380020EF1EF026EF1EF0000E0A6E020E096E2F
:103C480051EF1EF081B82BEF1EF02DEF1EF033EF71
:103C58001EF0000E0A6E030E096E51EF1EF0030EE1
:103C68000B180C10D8A43BEF1EF03DEF1EF041EFEF
:103C78001EF0000E0A6E040E096E0B4A0C2A0CBECA
:103C88004FEF1EF00C5009E1040E0B5CD8A04FEF6B
:103C98001EF051EF1EF0ABEF1DF009C004F00AC092
:103CA80005F0D89004360536D89004360536A00EAF
:103CB800066E000E076E04500626055007220B50AC
:103CC8000624D96E0C500720DA6EDF50086E8A96EB
:103CD8008A948A928A9008501200000E216E000E73
:103CE800206E0001D551D611D711D811D8A47FEF75
:103CF8001EF081EF1EF093EF1EF0D3C0D9FFD4C0A1
:103D0800DAFF300EDF6E204A212A2050D325D96EE3
:103D18002150D421DA6E000EDF6E33EF1FF0D8BFCA
:103D28009AEF1EF098EF1EF019EF1FF00A0ED9193E
:103D3800DA11D8A4A2EF1EF0A4EF1EF019EF1FF0BD
:103D4800D81FD71FD61FD56D000ED623D723D8234B
:103D580019EF1FF0D5C004F0D6C005F0D7C006F0A3
:103D6800D8C007F0D9C008F0DAC009F0000E09BEC3
:103D7800FF0E0A6E0B6E40EC23F004C01CF005C069
:103D88001DF006C01EF007C01FF01FBED9EF1EF0C1
:103D98001F501E101D1007E10A0E1C5CD8B0D7EF8B
:103DA8001EF0D9EF1EF0E7EF1EF0300E1C24186E3F
:103DB800000E1D20196E000E1E201A6E000E1F2008
:103DC8001B6EF3EF1EF0570E1C24186E000E1D20FC
:103DD800196E000E1E201A6E000E1F201B6E20503A
:103DE8000001D325D96E2150D421DA6E18C0DFFF27
:103DF800204A212AD5C004F0D6C005F0D7C006F065
:103E0800D8C007F0D9C008F0DAC009F0000E09BE22
:103E1800FF0E0A6E0B6EB5EC21F004C0D5F005C09C
:103E2800D6F006C0D7F007C0D8F00001D551D6119A
:103E3800D711D811D8A423EF1FF025EF1FF0AEEF4C
:103E48001EF02050D325D96E2150D421DA6E000EF1
:103E5800DF6ED3C012F0D4C013F0E2EC25F01200EC
:103E680008C004F009C005F0D7EC29F004C00FF031
:103E780005C010F03B04D8A444EF1FF046EF1FF034
:103E8800A3EF1FF00A500B10D8B44DEF1FF04FEFFF
:103E98001FF0A3EF1FF0780E0C18D8A456EF1FF0F0
:103EA80058EF1FF0A3EF1FF0010E0F24116E000E44
:103EB8001020126E12BE6CEF1FF0125007E1020EB6
:103EC800115CD8B06AEF1FF06CEF1FF06EEF1FF0B7
:103ED80093EF1FF0115008240D6E125009200E6E3A
:103EE800FE0E0D24D96EFF0E0E20DA6E1150082436
:103EF800E16E12500920E26EDFCFE7FF1106D8A06D
:103F0800120612BE93EF1FF0125007E1020E115C69
:103F1800D8B091EF1FF093EF1FF06EEF1FF008C0BD
:103F2800D9FF09C0DAFF300EDF6E20EE01F008502D
:103F3800D9260950DA22780EDF6EEFEF1FF03B0426
:103F4800D8A4A9EF1FF0ABEF1FF0EFEF1FF00A5056
:103F58000B10D8B4B2EF1FF0B4EF1FF0EFEF1FF063
:103F68006F0E0C18D8A4BBEF1FF0BDEF1FF0EFEFDA
:103F78001FF00FC011F010C012F012BECEEF1FF0EC
:103F8800125006E11104D8B0CCEF1FF0CEEF1FF0AD
:103F9800D0EF1FF0E9EF1FF0115008240D6E1250FA
:103FA80009200E6EFF0E0D24D96EFF0E0E20DA6E5C
:103FB80011500824E16E12500920E26EDFCFE7FFAE
:103FC8001106D8A01206C1EF1FF008C0D9FF09C01A
:103FD800DAFF300EDF6E120012C004F013C005F0D5
:103FE800D7EC29F004C01AF005C01BF00001D10578
:103FF800D8B401EF20F003EF20F00AEF20F017BE4D
:104008000AEF20F008EF20F05FEF20F01AC01CF054
:104018001BC01DF01DBE1BEF20F01D5006E11C0447
:10402800D8B019EF20F01BEF20F01DEF20F036EF8D
:1040380020F01C501224186E1D501320196EFF0E0C
:104048001824D96EFF0E1920DA6E1C501224E16E66
:104058001D501320E26EDFCFE7FF1C06D8A01D0617
:104068000EEF20F0000E046E000E056E000E066EB8
:10407800000E076E14C008F015C009F016C00AF04B
:1040880017C00BF0BEEC22F0D8B04DEF20F04FEF88
:1040980020F057EF20F012C0D9FF13C0DAFF2B0E23
:1040A800DF6E99EF20F012C0D9FF13C0DAFF2D0E92
:1040B800DF6E99EF20F0CE05D8A465EF20F067EF0A
:1040C80020F099EF20F01AC01CF01BC01DF01DBE97
:1040D80078EF20F01D5006E11C04D8B076EF20F0F0
:1040E80078EF20F07AEF20F093EF20F01C501224A4
:1040F800186E1D501320196EFF0E1824D96EFF0E6E
:104108001920DA6E1C501224E16E1D501320E26E45
:10411800DFCFE7FF1C06D8A01D066BEF20F012C00A
:10412800D9FF13C0DAFF200EDF6E1200000E206EDA
:10413800000E1F6E1DC0D9FF1EC0DAFFDECF21F0B2
:10414800DECF22F0DECF23F0DECF24F0C8EF20F060
:1041580021C004F022C005F023C006F024C007F0F7
:10416800000E086E000E096E200E0A6E410E0B6ED0
:1041780054EC11F004C021F005C022F006C023F071
:1041880007C024F01F4A202A21C004F022C005F0ED
:1041980023C006F024C007F0000E086E000E096E5A
:1041A800800E0A6E3F0E0B6EBEEC22F0D8B0DFEF29
:1041B80020F0E1EF20F0ACEF20F000EF21F021C07B
:1041C80004F022C005F023C006F024C007F0000E5A
:1041D800086E000E096E200E0A6E410E0B6E3FEC43
:1041E8000FF004C021F005C022F006C023F007C07C
:1041F80024F01F06D8A0200621C004F022C005F034
:1042080023C006F024C007F0CD0E086ECC0E096E50
:10421800CC0E0A6E3D0E0B6EBEEC22F0D8A017EF46
:1042280021F019EF21F0E3EF20F01DC0D9FF1EC0E7
:10423800DAFF21C0DEFF22C0DEFF23C0DEFF24C07C
:10424800DEFF1FC01DF020C01EF0120008C004F0E1
:1042580009C005F0D7EC29F004C012F005C013F02E
:104268000AC0D9FF0BC0DAFFDE2806E1DE28D8A491
:1042780040EF21F042EF21F04CEF21F00AC0D9FFC6
:104288000BC0DAFF010EDE6E000EDD6E4FEF21F07F
:10429800010E0001CF6F0AC0D9FF0BC0DAFFDECFD5
:1042A8000CF0DDCF0DF012500C5C106E13500D5851
:1042B800116E12C00EF013C00FF011BE6CEF21F09A
:1042C800115008E11004D8A06CEF21F06EEF21F036
:1042D800B4EF21F00AC0D9FF0BC0DAFFDECF0CF033
:1042E800DDCF0DF0FF0E0C24146EFF0E0D20156EA1
:1042F80015BE83EF21F081EF21F085EF21F0B4EFB7
:1043080021F00E06D8A00F061050145C1550800A34
:104318000C6E1150800A0C58D8A095EF21F097EF39
:1043280021F0A7EF21F00E500824D96E0F50092074
:10433800DA6E14500824E16E15500920E26EDFCFC2
:10434800E7FFAFEF21F014500824D96E155009206B
:10435800DA6E300EDF6E1406D8A015067CEF21F059
:104368001200000E0D6E0BBEBEEF21F0BCEF21F067
:10437800C8EF21F00B1E0A1E091E086C000E092248
:104388000A220B22010E0D6E07BECFEF21F0CDEFF2
:1043980021F0D9EF21F0071E061E051E046C000E41
:1043A800052206220722010E0D1A000E0E6E000EBF
:1043B8000F6E000E106E000E116E085009100A10D4
:1043C8000B10D8B4EAEF21F0ECEF21F022EF22F045
:1043D800010E0C6EF6EF21F0D890083609360A3631
:1043E8000B360C2A0BAEFBEF21F0FDEF21F0F0EFBE
:1043F80021F0D8900E360F36103611360850045C6E
:10440800095005580A5006580B500758D8A00FEF06
:1044180022F011EF22F01AEF22F00850045E095042
:10442800055A0A50065A0B50075A0E80D8900B327C
:104438000A32093208320C2EFDEF21F00D50D8B4A3
:1044480028EF22F02AEF22F032EF22F0111E101E80
:104458000F1E0E6C000E0F22102211220EC004F047
:104468000FC005F010C006F011C007F012001F348D
:104478002034266E2650D8A444EF22F046EF22F0CE
:1044880050EF22F0000E1D6E000E1E6E000E1F6E05
:10449800000E206EBDEF22F01DC021F01EC022F0DC
:1044A8001FC023F020C024F0200E60EF22F0D89027
:1044B8002432233222322132E82E5BEF22F02150BF
:1044C800256E1F8EFF0E1D16FF0E1E16FF0E1F16E1
:1044D800000E2016960E265E26BE77EF22F075EFA8
:1044E80022F08DEF22F02650800A970FD8B07FEF88
:1044F80022F081EF22F083EF22F046EF22F0D890ED
:1045080020321F321E321D32263E83EF22F0A5EFE5
:1045180022F01F0E266493EF22F095EF22F09DEF14
:1045280022F046EF22F0D8901D361E361F36203670
:1045380026062650D8A4A3EF22F0A5EF22F097EF85
:1045480022F02550D8B4ABEF22F0ADEF22F0B5EF52
:1045580022F0201E1F1E1E1E1D6C000E1E221F2272
:1045680020221DC01DF01EC01EF01FC01FF020C05D
:1045780020F01200000E04140C6E000E05140D6ECF
:10458800800E06140E6E7F0E07140F6E0C500D1061
:104598000E100F10D8A4D3EF22F0D5EF22F0DDEFE4
:1045A80022F0000E046E000E056E000E066E000E60
:1045B800076E000E08140C6E000E09140D6E800EA6
:1045C8000A140E6E7F0E0B140F6E0C500D100E1089
:1045D8000F10D8A4F2EF22F0F4EF22F0FCEF22F053
:1045E800000E086E000E096E000E0A6E000E0B6EAD
:1045F80007AE01EF23F003EF23F00CEF23F0046C78
:10460800051ED8B0052A061ED8B0062A800E075601
:104618000BAE11EF23F013EF23F01CEF23F0086C1F
:10462800091ED8B0092A0A1ED8B00A2A800E0B56CD
:10463800000E041A000E051A000E061A800E071A3C
:10464800000E081A000E091A000E0A1A800E0B1A1C
:104658000850045C095005580A5006580B50075872
:10466800D8B039EF23F03BEF23F03EEF23F0D8909A
:104678003FEF23F0D8801200000E0D6E07BE49EF01
:1046880023F047EF23F053EF23F0071E061E051E05
:10469800046C000E052206220722010E0D6E0BBEC9
:1046A8005AEF23F058EF23F062EF23F00B1E0A1E97
:1046B800091E086C000E09220A220B220850091054
:1046C8000A100B10D8B46BEF23F06DEF23F09DEFB9
:1046D80023F0010E0C6E77EF23F0D89008360936D8
:1046E8000A360B360C2A0BAE7CEF23F07EEF23F054
:1046F80071EF23F00850045C095005580A50065819
:104708000B500758D8A08BEF23F08DEF23F095EFCF
:1047180023F00850045E0950055A0A50065A0B50F7
:10472800075AD8900B320A32093208320C2E7EEF23
:1047380023F00D50D8B4A3EF23F0A5EF23F0ADEF8D
:1047480023F0071E061E051E046C000E0522062215
:10475800072204C004F005C005F006C006F007C033
:1047680007F01200000E0E6E000E0D6E000E106E99
:10477800010E0F6E000E126E000E116E08EF24F07F
:1047880011500A24D96E12500B20DA6E2F0EDF64F6
:10479800D0EF23F0D2EF23F019EF24F011500A24C0
:1047A800D96E12500B20DA6E3A0EDF60DEEF23F07E
:1047B800E0EF23F019EF24F011500A24D96E1250BB
:1047C8000B20DA6EDF500C6ED00E0C24046E056AD6
:1047D800FF0E05220FC006F010C007F044EC2AF0C7
:1047E80004500D2605500E220FC004F010C005F02D
:1047F800000E076E0A0E066E44EC2AF004C00FF095
:1048080005C010F0114A122A0AC004F00BC005F0C6
:10481800D7EC29F00450115C05501258D8A017EFB6
:1048280024F019EF24F0C4EF23F00DC00AF00EC0F5
:104838000BF01200000E166E000E156E6BEF24F0D2
:10484800010E3A1AC6C008F03A50A8EC28F069EFF1
:1048580024F0000E0001C76F000EC66FC6C008F036
:104868003A50A8EC28F069EF24F015500F24116E87
:1048780016501020126E11C0F6FF12C0F7FF080084
:10488800F55037EC29F069EF24F015500F24116E1C
:1048980016501020126E11C0F6FF12C0F7FF080064
:1048A800F550136E146A1450000AD8B45EEF24F061
:1048B80039EF24F013500A0AD8B424EF24F0070A79
:1048C800D8B42DEF24F039EF24F0154A162A1550E4
:1048D8000F24116E16501020126E11C0F6FF12C070
:1048E800F7FF0800F5500009D8A47DEF24F07FEF0A
:1048F80024F049EF24F01200086ECBEF24F00450A6
:10490800D8A489EF24F08DEF24F0066A062A8EEFEA
:1049180024F0066A06468D500618FD0B06188D6EA3
:104928000550D8A49AEF24F09EEF24F0066A062AD0
:104938009FEF24F0066A8D500618FE0B06188D6E40
:10494800E0EF24F00450D8A4ACEF24F0B0EF24F04A
:10495800066A062AB1EF24F0066A064606468B5018
:104968000618FB0B06188B6E0550D8A4BEEF24F072
:10497800C2EF24F0066A062AC3EF24F0066A064648
:104988008B500618FD0B06188B6EE0EF24F00850CC
:10499800066E076A0750000AD8B4D5EF24F0E0EF96
:1049A80024F00650000AD8B483EF24F0010AD8B4E2
:1049B800A6EF24F0E0EF24F01200066E0CEF25F0CD
:1049C800D590D592D59439EF25F0D580D592D59448
:1049D80039EF25F0D590D582D59439EF25F0D580DB
:1049E800D582D59439EF25F0D590D592D58439EF75
:1049F80025F0D580D592D58439EF25F0D590D5828C
:104A0800D58439EF25F0D580D582D58439EF25F0C6
:104A18000650046E056A0550000AD8B416EF25F052
:104A280039EF25F00450000AD8B4E4EF24F0010A65
:104A3800D8B4E9EF24F0030AD8B4EEEF24F0010A61
:104A4800D8B4F3EF24F0070AD8B4F8EF24F0010A39
:104A5800D8B4FDEF24F0030AD8B402EF25F0010A18
:104A6800D8B407EF25F039EF25F01200000E041432
:104A78000C6E000E05140D6E800E06140E6E7F0E61
:104A880007140F6E0C500D100E100F10D8A44FEF16
:104A980025F051EF25F059EF25F0000E046E000EB9
:104AA800056E000E066E000E076E000E08140C6EE2
:104AB800000E09140D6E800E0A140E6E7F0E0B1474
:104AC8000F6E0C500D100E100F10D8A46EEF25F0BD
:104AD80070EF25F078EF25F0000E086E000E096ED5
:104AE800000E0A6E000E0B6E085004180FE10950F4
:104AF80005180CE10A50061809E10B500718D8B43C
:104B080088EF25F08AEF25F08DEF25F0D8908EEF0D
:104B180025F0D8801200000E956E8C948C908C92A3
:104B2800EA0E086EC30EE82EFED7082EFCD700F05A
:104B3800000E066E030E1CEC2AF03F0E086E550E92
:104B4800E82EFED7082EFCD700F0000E066E030EE6
:104B58001CEC2AF03F0E086E550EE82EFED7082EE4
:104B6800FCD700F0000E066E030E1CEC2AF0000EB7
:104B7800066E020E1CEC2AF0010E066E280E1CECC6
:104B88002AF0010E066E0E0E1CEC2AF0010E066EBF
:104B9800010E1CEC2AF0100E086E940EE82EFED7BB
:104BA800082EFCD700D0010E066E060E1CEC2AF06B
:104BB800010E066E800E1CEC2AF0120012C004F0E2
:104BC80013C005F0D7EC29F0FF0E04240101406F53
:104BD800FF0E0520416F22EE80F011EE00F03F0E2F
:104BE800DBCFE3FFE806FCE2000E436F000E426FE6
:104BF80014EF26F04251125C146E43511358156E8F
:104C080040511424D96E41511520DA6E000E422508
:104C1800E16E010E4321E26EDFCFE7FF424B432BEB
:104C28004251405D4151800A146E4351800A145824
:104C3800D8B021EF26F023EF26F0FEEF25F012C0C2
:104C480008F013C009F0000E0A6E010E0B6E85EC19
:104C580027F01200000E0C6E000E0B6E61EF26F0AE
:104C68000B500824D96E0C500920DA6E600EDF64F0
:104C780040EF26F042EF26F05FEF26F00B500824B5
:104C8800D96E0C500920DA6E7B0EDF604EEF26F0ED
:104C980050EF26F05FEF26F00B500824D96E0C5029
:104CA8000920DA6E0B500824E16E0C500920E26EE0
:104CB800E750E00FDF6E0B4A0C2A08C004F009C069
:104CC80005F0D7EC29F00B50045C0C500558D8B00F
:104CD80070EF26F072EF26F034EF26F0120012C0C3
:104CE80008F013C009F014C00AF015C00BF0000E4C
:104CF800046E6C0E056EDC0E066E020E076EB5ECC9
:104D080021F004C016F005C017F006C018F007C05F
:104D180019F016C004F017C005F018C006F019C045
:104D280007F0040E086E000E096E000E0A6E000EE3
:104D38000B6EB5EC21F0FF0E04241A6EFF0E052051
:104D48001B6E948C948EAB8EAC98AC84B8861B503A
:104D5800B06E1AC0AFFFAC9CAC8AAB9CAB8812009B
:104D680008C004F009C005F0D7EC29F004C00EF023
:104D780005C00FF00AC0D9FF0BC0DAFFDE2808E132
:104D8800DE28D8B4CAEF26F0CCEF26F0EFEF26F0F5
:104D98000AC0D9FF0BC0DAFFDECF10F0DDCF11F06B
:104DA800E0EF26F010500824D96E11500920DA6E71
:104DB800000EDF6E104A112A0E50105C1150800A46
:104DC8000C6E0F50800A0C58D8A0EDEF26F0EFEFCC
:104DD80026F0D6EF26F01200F60EF66E520EF76E9B
:104DE800000EF86E02EE80F010EE40F00900F5CFEC
:104DF800EEFFE550E150FAE1AE0EF66E4E0EF76E9C
:104E0800000EF86E00EE60F010EE5CF00900F5CFD1
:104E1800EEFFE550E150FAE102EE00F0800EEE6A96
:104E2800E806FDE100EEBCF0170EEE6AE806FDE1CB
:104E38003C6A3B6A3A6A3D903D92000EF86E00016A
:104E4800E8EF1AF0000E0D6E000E0C6E43EF27F01F
:104E58000C500824D96E0D500920DA6E0A50DE185D
:104E6800D8A439EF27F03BEF27F041EF27F00CC02B
:104E780008F00DC009F056EF27F00C4A0D2A08C0BB
:104E880004F009C005F0D7EC29F004500C5C05507B
:104E98000D58D8A052EF27F054EF27F02CEF27F049
:104EA80008680968120020000000000000000000E7
:104EB80000000000000000000000000000000000EA
:104EC80000000000000000000000000000000000DA
:104ED80000000000000000000000000000000000CA
:104EE8000000000000003132334134353642373893
:104EF80039432A302344000000000E0E04041F0426
:104F08000A0A0AC00EF00BC00FF008C010F009C062
:104F180011F00E500C6E0F500D6E0E4A0F2A0CC079
:104F2800F6FF0DC0F7FFF86A10C0D9FF11C0DAFF0D
:104F3800104A112A070EF76403D00800F55005D06F
:104F4800F6CFE1FFF7CFE2FFE750DF6EDF50D8A4DE
:104F5800B0EF27F0B2EF27F08DEF27F01200000E28
:104F68000D6E000E0C6ECDEF27F00C500824D96E94
:104F78000D500920DA6E0A50DE18D8A4C6EF27F0C3
:104F8800C8EF27F0CBEF27F0010EDFEF27F00C4A30
:104F98000D2A08C004F009C005F0D7EC29F0045028
:104FA8000C5C05500D58D8A0DCEF27F0DEEF27F099
:104FB800B9EF27F0000E1200080E1002F350106E21
:104FC800000E126E000E116E1050112457EC2AF0CC
:104FD80011500E24D96E12500F20DA6EDF507CEC7F
:104FE8002AF0114A122A12BE03EF28F0125009E1E2
:104FF800080E115CD8A003EF28F005EF28F0E8EFC1
:1050080027F0C6C008F03A50A8EC28F0120008C0F3
:1050180004F009C005F0D7EC29F004C00BF005C076
:105028000CF0000E0E6E000E0D6E25EF28F00D50E0
:105038000824D96E0E500920DA6E000EDF6E0D4A74
:105048000E2A0B500D5C0E50800A0A6E0C50800A16
:105058000A58D8A032EF28F034EF28F01BEF28F0D8
:10506800120081380F0B0F0B046E0E0E0418D8B403
:1050780040EF28F042EF28F05DEF28F00D0E0418FD
:10508800D8B449EF28F04BEF28F05DEF28F00B0E6D
:105098000418D8B452EF28F054EF28F05DEF28F048
:1050A800070E0418D8A45BEF28F05DEF28F035EF61
:1050B80028F012008FEC25F0A7EC2AF0AFEC2AF0CC
:1050C800000E046E000E056E000E066E000E9BECC0
:1050D80029F0060EE1EC24F0B3EC2AF0000E83EC84
:1050E80028F0010E83EC28F0800E126E250E136E48
:1050F800000E146E000E156E73EC26F01200066E8C
:1051080092EF28F0969296908D928D90A7EF28F0C6
:10511800949494928B948B92A7EF28F00650046E87
:10512800056A0550000AD8B49CEF28F0A7EF28F0CC
:105138000450000AD8B486EF28F0010AD8B48CEFDE
:1051480028F0A7EF28F012000D6E100E0860AFEFE0
:1051580028F0B1EF28F0CCEF28F00D50400DF3CF38
:1051680009F0F4CF0AF008500926000E0A22800E32
:1051780009240B6E000E0A200C6E010E066E0B50F1
:105188001CEC2AF008C0C6F00001C76B0DC03AF04D
:1051980012000600F2A4D3EF28F0D5EF28F0EFEFC5
:1051A80028F0480ED76EE50ED66E0001CC4BCD2BFD
:1051B800020ECC19CD11D8A4E4EF28F0E6EF28F0C0
:1051C800EEEF28F0000E5AEC29F0000E0001CD6F2A
:1051D800000ECC6FF2943D921100000E211A000EC1
:1051E800221A000E231A800E241A1DC004F01EC0B5
:1051F80005F01FC006F020C007F021C008F022C04B
:1052080009F023C00AF024C00BF0DFEC0CF004C056
:105218001DF005C01EF006C01FF007C020F01200E8
:10522800000E0B6E000E0A6E25EF29F00A500824B6
:10523800D96E0B500920DA6EDF5088EC2AF00A4A42
:105248000B2A08C004F009C005F0D7EC29F0045077
:105258000A5C05500B58D8A034EF29F036EF29F036
:105268001AEF29F012000E6E0E507CEC2AF00001A5
:10527800C64BC72B100EC619C711D8A446EF29F084
:1052880048EF29F059EF29F03A50D8A44EEF29F009
:1052980050EF29F057EF29F0000E086E010EA8EC28
:1052A80028F059EF29F0F2EC29F01200036E65EFAF
:1052B80029F08D728D707AEF29F08B748B727AEFEA
:1052C80029F00350016E026A0250000AD8B46FEF49
:1052D80029F07AEF29F00150000AD8B45DEF29F0DF
:1052E800010AD8B461EF29F07AEF29F01200200002
:1052F80000000000000000000000000000000000A6
:105308000000000000000000000000000000000095
:105318000000000000000000000000000000000085
:105328000000000000000000000000000000076E00
:10533800D58E07B002D0D59C01D0D58C04B002D050
:10534800D59A01D0D58A05B002D0D59801D0D58894
:1053580006B002D0D59601D0D5860450D8B4B7EFA0
:1053680029F0B9EF29F0BAEF29F092881200045019
:10537800051006100710D8B4C4EF29F0C6EF29F0BD
:10538800CEEF29F0000E041A000E051A000E061AB8
:10539800800E071A04C004F005C005F006C006F028
:1053A80007C007F0120004C006F005C007F0DFEFE1
:1053B80029F0044A052A04C0D9FF05C0DAFFDF50E6
:1053C800D8A4E9EF29F0EBEF29F0DDEF29F006503A
:1053D800045C046E07500558056E1200010E066E37
:1053E800020E1CEC2AF0100E086E940EE82EFED762
:1053F800082EFCD700D0000E0001C76F000EC66F44
:10540800000E3A6E1200010E066E010E1CEC2AF018
:10541800100E086E940EE82EFED7082EFCD700D08A
:10542800000E0001C76F000EC66F000E3A6E120024
:10543800076E8C948C920650D8B425EF2AF027EF8B
:105448002AF02AEF2AF007509EEC2AF0073AF00ECD
:10545800071607509EEC2AF0120012C004F013C081
:1054680005F0D7EC29F004501224086E05501320DB
:10547800096E14C00AF015C00BF085EC27F0120075
:1054880004500602F3CF08F0F4CF09F004500702E5
:10549800F350092605500602F350092608C004F007
:1054A80009C005F01200096E400E09605EEF2AF08F
:1054B80060EF2AF069EF2AF0400E086E09500812D2
:1054C800010E066E08501CEC2AF012000A6E080E37
:1054D8000B6E0A44E846FC0B0B12085008240B120A
:1054E80009500B12010E066E0B501CEC2AF012002C
:1054F800066E8C8206509EEC2AF0063AF00E0616CE
:1055080006509EEC2AF01200046EACA28EEF2AF030
:1055180090EF2AF089EF2AF004C0ADFF12008C80CA
:10552800100E046E940EE82EFED7042EFCD700D081
:105538008C901200056E0F0E8C160550F00B8C1215
:1055480093EC2AF01200000E816EF00E936E000E9E
:105558008A6EF19E1200D09EF28EF28C1200F28AB0
:04556800F2941200A7
:020000040020DA
:08000000FFFFFFFFFFFFFFFF00
:020000040030CA
:0E000000240E3F1EFF8181FF0FC00FE00F4056
:00000001FF
