:020000040000FA
:0400000007EF00F016
:100008005C82D0ED28F020EF26F021EE00F07F0E84
:10001800DE6AE806FDE2000E0101D36F000ED26F22
:10002800000E816F000E806F000ECF6F000ECE6F36
:1000380021EE8EF03F0EDE6AE806FDE2000ED76F75
:10004800000ED66F27EF06F0250ECE19D8A42FEF95
:1000580000F031EF00F01AEF06F08E0E086E010E78
:10006800096EB4EC27F0820E086E010E096EB4EC2E
:1000780027F00101DA69DB69E669E769250E826F15
:10008800000ED96F000ED86F000EE56F010EE46FF9
:1000980099EF00F0BCC0F6FFBDC0F7FF820EE42563
:1000A800D96E010EE521DA6E0800F5CFDFFF0001F9
:1000B800BC4BBD2B000E0101DD6F000EDC6FDDBFF8
:1000C8006FEF00F0DD5109E10F0EDC5DD8A06FEF96
:1000D80000F071EF00F073EF00F097EF00F0820E80
:1000E800E425D96E010EE521DA6EDF500001C06FFC
:1000F800890E0101DC25F66E7E0EDD21F76E080003
:10010800F5500001C019D8A48CEF00F08EEF00F074
:1001180092EF00F0E4C1D8F1E5C1D9F10101DC4B5F
:10012800DD2B63EF00F0E44BE52BD851D911D8B49F
:10013800A0EF00F0A2EF00F04EEF00F0000EE56F28
:10014800000EE46F000EDD6F000EDC6F1CEF01F097
:10015800820E0101DC25D96E010EDD21DA6E2A0E30
:10016800DE18D8A4BAEF00F0BCEF00F0DBEF00F027
:10017800E451E511D8A4C3EF00F0C5EF00F0DBEFC0
:1001880000F0BEC0D9FFBFC0DAFFDFCFC0F0020E5B
:10019800DE26DFCFC1F0000EDD22C0C0D9FFC1C00E
:1001A800DAFFDECFDAF1DDCFDBF11AEF01F0820EF4
:1001B800DC25D96E010EDD21DA6E2A0EDE18D8A4F0
:1001C800E8EF00F0EAEF00F009EF01F0E405E511CF
:1001D800D8A4F1EF00F0F3EF00F009EF01F0BEC092
:1001E800D9FFBFC0DAFFDFCFC0F0020EDE26DFCFB7
:1001F800C1F0000EDD22C0C0D9FFC1C0DAFFDECFDA
:10020800E6F1DDCFE7F11AEF01F0820EDC25D96EB9
:10021800010EDD21DA6E2E0EDE18D8A416EF01F0DD
:1002280018EF01F01AEF01F0E44BE52BDC4BDD2B66
:10023800D851DC5DDD51800A0001C06F0101D95140
:10024800800A0001C059D8A02CEF01F02EEF01F070
:10025800ACEF00F0820EA46F010EA56FDA0EA66F48
:10026800010EA76FE60EA86F010EA96F33EC18F008
:100278000101DBBF49EF01F0DB5109E1400EDA5D16
:10028800D8A049EF01F04BEF01F04FEF01F0000E5D
:10029800DB6F000EDA6FE7BF5BEF01F0E75109E1B2
:1002A800400EE65DD8A05BEF01F05DEF01F0A9EF2D
:1002B80005F0000EE76F000EE66FA9EF05F08E0E51
:1002C800086E010E096EF00E0A6E7E0E0B6E2EEC95
:1002D80027F0F9EF05F0BEC0D9FFBFC0DAFFDFCFC6
:1002E800C0F0020EDE26DFCFC1F0000EDD22C0C056
:1002F800D9FFC1C0DAFFDF500101806F8E0E086E92
:10030800010E096E800E0A6E010E0B6E2EEC27F0A0
:10031800F9EF05F0BEC0D9FFBFC0DAFFDFCFC0F0EC
:10032800020EDE26DFCFC1F0000EDD22C0C0D9FFED
:10033800C1C0DAFFDECF8CF1DDCF8DF18E0E086EF5
:10034800010E096E8CC10AF08DC10BF02EEC27F05E
:100358008E0E086E010E096EE60E0A6E010E0B6E09
:100368005CEC26F0F9EF05F0BEC0D9FFBFC0DAFF9C
:10037800DFCFC0F0020EDE26DFCFC1F0000EDD2297
:10038800C0C0D9FFC1C0DAFFDECFDEF1DDCFDFF1BB
:100398008E0EA46F010EA56FDEC1A6F0DFC1A7F017
:1003A800000EA7BFFF0EA86FA96F000EAB6F0A0E55
:1003B800AA6F37EC1DF08E0E086E010E096EE60E60
:1003C8000A6E010E0B6EF3EC1FF08E0E1E6E010E00
:1003D8001F6EDEC110F0DFC111F0000E11BEFF0E5E
:1003E800126E136E010E5DEC1CF010C020F011C0EF
:1003F80021F012C022F013C023F0B6EC1EF0F9EF82
:1004080005F0BEC0D9FFBFC0DAFFDFCFC0F0020ED3
:10041800DE26DFCFC1F0000EDD22C0C0D9FFC1C08B
:10042800DAFFDECFDEF1DDCFDFF18E0EA46F010E35
:10043800A56FDEC1A6F0DFC1A7F0000EA7BFFF0EB3
:10044800A86FA96F000EAB6F0A0EAA6F37EC1DF0EC
:100458008E0E086E010E096EE60E0A6E010E0B6E08
:10046800F3EC1FF08E0E1E6E010E1F6EDEC110F033
:10047800DFC111F0000E11BEFF0E126E136E010ED9
:100488005DEC1CF010C020F011C021F012C022F069
:1004980013C023F0B6EC1EF0F9EF05F0BEC0D9FF8B
:1004A800BFC0DAFFDFCFC0F0020EDE26DFCFC1F01B
:1004B800000EDD22C0C0D9FFC1C0DAFFDECFD0F107
:1004C800DDCFD1F18E0EA46F010EA56FD0C1A6F0BD
:1004D800D1C1A7F0A86BA96B000EAB6F0A0EAA6F6B
:1004E80037EC1DF08E0E086E010E096EE60E0A6ED0
:1004F800010E0B6EF3EC1FF0F9EF05F0BEC0D9FF4B
:10050800BFC0DAFFDFCFC0F0020EDE26DFCFC1F0BA
:10051800000EDD22C0C0D9FFC1C0DAFFDECFDEF198
:10052800DDCFDFF18E0EA46F010EA56FDEC1A6F040
:10053800DFC1A7F0000EA7BFFF0EA86FA96F000EBE
:10054800AB6F100EAA6F37EC1DF08E0E086E010E01
:10055800096EE60E0A6E010E0B6EF3EC1FF08E0E9E
:10056800086E010E096EDEC10AF0DFC10BF0780ECD
:100578000C6EFAEC1DF08E0E086E010E096E56EC2C
:1005880025F0F9EF05F0BEC0D9FFBFC0DAFFDFCF15
:10059800C0F0020EDE26DFCFC1F0000EDD22C0C0A3
:1005A800D9FFC1C0DAFFDECFDEF1DDCFDFF18E0E7D
:1005B800A46F010EA56FDEC1A6F0DFC1A7F0000E83
:1005C800A7BFFF0EA86FA96F000EAB6F100EAA6F22
:1005D80037EC1DF08E0E086E010E096EE60E0A6EDF
:1005E800010E0B6EF3EC1FF08E0E086E010E096EF5
:1005F800DEC10AF0DFC10BF0780E0C6EFAEC1DF0CC
:10060800F9EF05F0BEC0D9FFBFC0DAFFDFCFC0F0F9
:10061800020EDE26DFCFC1F0000EDD22C0C0D9FFFA
:10062800C1C0DAFFDECFDEF1DDCFDFF18E0EA46FC1
:10063800010EA56FDEC1A6F0DFC1A7F0000EA7BFAF
:10064800FF0EA86FA96F000EAB6F080EAA6F37ECEC
:100658001DF08E0E086E010E096EE60E0A6E010E72
:100668000B6EF3EC1FF08E0E086E010E096EDEC1E4
:100678000AF0DFC10BF06F0E0C6EFAEC1DF0F9EF0B
:1006880005F0BEC0D9FFBFC0DAFFDFCFC0F0040E4F
:10069800DE26DFCFC1F0000EDD22C0C0D9FFC1C009
:1006A800DAFFDECFE0F1DECFE1F1DECFE2F1DECF3F
:1006B800E3F18E0E936F010E946FE0C195F0E1C1E6
:1006C80096F0E2C197F0E3C198F01FEC11F08E0E9E
:1006D8001F6E010E206EE60E216E010E226E76EC64
:1006E8001BF08E0E1E6E010E1F6EE0C120F0E1C1E0
:1006F80021F0E2C122F0E3C123F0B6EC1EF0F9EFDD
:1007080005F0BEC0D9FFBFC0DAFFDFCFC0F0040ECE
:10071800DE26DFCFC1F0000EDD22C0C0D9FFC1C088
:10072800DAFFDECFE0F1DECFE1F1DECFE2F1DECFBE
:10073800E3F18E0EAC6F010EAD6FE0C1AEF0E1C11A
:10074800AFF0E2C1B0F0E3C1B1F03BEC14F08E0EB3
:100758001F6E010E206EE60E216E010E226E71ECE8
:100768001AF075EF03F0BEC0D9FFBFC0DAFFDFCFC4
:10077800C0F0040EDE26DFCFC1F0000EDD22C0C0BF
:10078800D9FFC1C0DAFFDECFE0F1DECFE1F1DECF85
:10079800E2F1DECFE3F18E0EAC6F010EAD6FE0C17A
:1007A800AEF0E1C1AFF0E2C1B0F0E3C1B1F03BECB3
:1007B80014F08E0E1F6E010E206EE60E216E010ED5
:1007C800226E71EC1AF08E0E1E6E010E1F6EE0C1C5
:1007D80020F0E1C121F0E2C122F0E3C123F0B6EC40
:1007E8001EF0BFEF02F0BEC0D9FFBFC0DAFFDFCFF7
:1007F800C0F0040EDE26DFCFC1F0000EDD22C0C03F
:10080800D9FFC1C0DAFFDECFE0F1DECFE1F1DECF04
:10081800E2F1DECFE3F18E0EAC6F010EAD6FE0C1F9
:10082800AEF0E1C1AFF0E2C1B0F0E3C1B1F03BEC32
:1008380014F0ACC0D4F1ADC0D5F18E0E0001936FA9
:10084800010E946FE0C195F0E1C196F0E2C197F016
:10085800E3C198F01FEC11F0000E0101DD6F000EEE
:10086800DC6F000EE56F000EE46F6CEF04F08E0E87
:10087800E425D96E010EE521DA6E2E0EDE18D8A415
:1008880048EF04F04AEF04F04CEF04F07EEF04F078
:100898008E0EE425D96E010EE521DA6E2F0EDF6487
:1008A80058EF04F05AEF04F06AEF04F08E0EE425D6
:1008B800D96E010EE521DA6E3A0EDF6066EF04F0BC
:1008C80068EF04F06AEF04F0DC4BDD2BE44BE52B1A
:1008D8008E0E046E010E056E7EEC29F004500101A7
:1008E800E45D0550E559D8A07CEF04F07EEF04F0F4
:1008F8003BEF04F0E62906E1E729D8A486EF04F0E7
:1009080088EF04F08CEF04F0000EE76F060EE66F38
:10091800D5AF9AEF04F0FD0ED45DFF0ED559D8A0DF
:1009280098EF04F09AEF04F0ACEF04F0DC51E65DC8
:10093800E751800A0001C06F0101DD51800A000102
:10094800C059D8B0AAEF04F0ACEF04F0BBEF04F044
:100958008E0E0001AC6F010EAD6FE0C1AEF0E1C1CB
:10096800AFF0E2C1B0F0E3C1B1F03BEC14F08E0E91
:100978001F6E010E206EE60E216E010E226E57ECE0
:1009880006F075EF03F0BEC0D9FFBFC0DAFFDFCFB6
:10099800C0F0040EDE26DFCFC1F0000EDD22C0C09D
:1009A800D9FFC1C0DAFFDECFE0F1DECFE1F1DECF63
:1009B800E2F1DECFE3F18E0EAC6F010EAD6FE0C158
:1009C800AEF0E1C1AFF0E2C1B0F0E3C1B1F03BEC91
:1009D80014F0ACC0D4F1ADC0D5F18E0E0001936F08
:1009E800010E946FE0C195F0E1C196F0E2C197F075
:1009F800E3C198F01FEC11F0000E0101DD6F000E4D
:100A0800DC6F000EE56F000EE46F3CEF05F08E0E14
:100A1800E425D96E010EE521DA6E2E0EDE18D8A473
:100A280018EF05F01AEF05F01CEF05F04EEF05F092
:100A38008E0EE425D96E010EE521DA6E2F0EDF64E5
:100A480028EF05F02AEF05F03AEF05F08E0EE425C1
:100A5800D96E010EE521DA6E3A0EDF6036EF05F049
:100A680038EF05F03AEF05F0DC4BDD2BE44BE52BD6
:100A78008E0E046E010E056E7EEC29F00450010105
:100A8800E45D0550E559D8A04CEF05F04EEF05F0B0
:100A98000BEF05F0E62906E1E729D8A456EF05F0A3
:100AA80058EF05F05CEF05F0000EE76F060EE66FF5
:100AB800D5AF6AEF05F0FD0ED45DFF0ED559D8A06D
:100AC80068EF05F06AEF05F07CEF05F0DC51E65DB4
:100AD800E751800A0001C06F0101DD51800A000161
:100AE800C059D8B07AEF05F07CEF05F08BEF05F030
:100AF8008E0E0001AC6F010EAD6FE0C1AEF0E1C12A
:100B0800AFF0E2C1B0F0E3C1B1F03BEC14F08E0EEF
:100B18001F6E010E206EE60E216E010E226E57EC3E
:100B280006F0E7EF03F08E0E086E010E096EFC0E5C
:100B38000A6E7F0E0B6E2EEC27F0F9EF05F001011F
:100B4800D607D8A0D707F9EF05F0820ED825D96EB9
:100B5800010ED921DA6EDF500001C06FC16BC1519F
:100B6800000AD8B4BAEF05F0A3EF05F0C051250A82
:100B7800D8B463EF01F0600AD8B4B7EF03F0020A03
:100B8800D8B4C7EF04F01F0AD8B482EF02F03B0ACA
:100B9800D8B46FEF01F0070AD8B4B8EF01F0010A32
:100BA800D8B485EF03F0030AD8B445EF03F0010A7F
:100BB800D8B4F7EF03F00E0AD8B405EF02F0070A2D
:100BC800D8B497EF05F0010AD8B406EF03F01C0A71
:100BD800D8B48EEF01F0060AD8B452EF02F00D0A2D
:100BE800D8B4C7EF02F0A3EF05F08E0E086E010E21
:100BF800096EDA0E0A6E010E0B6E5BEC19F0000E30
:100C0800126E010E136E8E0E146E010E156EC3EC6D
:100C180029F08E0E046E010E056E7EEC29F004504C
:100C28000101D2270550D32327EF06F0000E126EDC
:100C3800010E136ECE0E146E010E156EC3EC29F064
:100C48000101D24BD32BBCC0F6FFBDC0F7FF00019A
:100C5800BC4BBD2B0800F5CFCEF10101CE51D8A475
:100C680038EF06F03AEF06F028EF00F0BAC008F0C7
:100C7800BBC009F0000E0A6E010E0B6E2EEC27F0B9
:100C88000101D7BF4AEF06F04CEF06F052EF06F02D
:100C9800D2C1BAF0D3C1BBF056EF06F0D6C1BAF054
:100CA800D7C1BBF012001FC004F020C005F07EECD5
:100CB80029F004C02EF005C02FF01FC008F020C096
:100CC80009F0650E0A6ECCEC26F008C02CF009C0BD
:100CD8002DF01FC008F020C009F02E0E0A6ECCECD3
:100CE80026F008C026F009C027F0000E296E000E75
:100CF800286E000E2B6E000E2A6E21C0D9FF22C06E
:100D0800DAFFDE2806E1DE28D8A48DEF06F08FEFA3
:100D180006F097EF06F021C0D9FF22C0DAFF060ED1
:100D2800DE6E000EDD6E2DBEA4EF06F02D5006E13E
:100D38002C04D8B0A2EF06F0A4EF06F0AAEF06F054
:100D48002EC032F02FC033F0AEEF06F02CC032F0D8
:100D58002DC033F0000E356E000E346E0CEF07F028
:100D680034501F24D96E35502020DA6E2F0EDF64E0
:100D7800C0EF06F0C2EF06F0F9EF06F034501F247A
:100D8800D96E35502020DA6E3A0EDF60CEEF06F0CD
:100D9800D0EF06F0F9EF06F034501F24D96E355025
:100DA8002020DA6E300EDE18D8A4DDEF06F0DFEF73
:100DB80006F0E8EF06F02A502B10D8B4E6EF06F05C
:100DC800E8EF06F00AEF07F02A4A2B2A2A042B102C
:100DD800D8A4F1EF06F0F3EF06F00AEF07F034C0FD
:100DE80028F035C029F00AEF07F034501F24D96ED7
:100DF80035502020DA6E650EDE18D8A406EF07F00D
:100E080008EF07F00AEF07F01BEF07F0344A352A1E
:100E180034502E5C2F50800A236E3550800A235898
:100E2800D8B019EF07F01BEF07F0B4EF06F0FF0E8C
:100E38003224346EFF0E3320356E35BE28EF07F0AE
:100E480026EF07F02AEF07F075EF07F034501F245C
:100E5800D96E35502020DA6E300EDE18D8A437EF60
:100E680007F039EF07F03EEF07F02A06D8A02B0667
:100E78006BEF07F034501F24D96E35502020DA6EFE
:100E8800300EDF644AEF07F04CEF07F05AEF07F037
:100E980034501F24D96E35502020DA6E390EDF64A5
:100EA80058EF07F05AEF07F075EF07F034501F249A
:100EB800D96E35502020DA6E2E0EDE18D8A467EFD2
:100EC80007F069EF07F06BEF07F075EF07F03406EE
:100ED800D8A0350635BE75EF07F073EF07F02AEF97
:100EE80007F021C0D9FF22C0DAFF2A50DE5CDE50AD
:100EF800800A256E2B50800A2558D8B086EF07F057
:100F080088EF07F002EF09F021C0D9FF22C0DAFF0D
:100F1800DECF23F0DDCF24F028502324346E29506F
:100F28002420356E2650285C2950800A236E2750CD
:100F3800800A2358D8B0A3EF07F0A5EF07F0B6EF63
:100F480007F02650345C3550800A236E2750800AFB
:100F58002358D8A0B2EF07F0B4EF07F0B6EF07F0C8
:100F6800344A352A3450325C306E35503358316E3D
:100F780031BEC7EF07F0315008E13004D8A0C7EF01
:100F880007F0C9EF07F054EF08F01FC00EF020C0BB
:100F98000FF02CC010F02DC011F034C012F035C085
:100FA80013F0C0EC12F00E040F10D8A4DEEF07F017
:100FB800E0EF07F029EF08F0000E336E000E326EF6
:100FC8000AEF08F032501F24D96E33502020DA6E11
:100FD800300EDF64F2EF07F0F4EF07F008EF08F0E7
:100FE80032501F24D96E33502020DA6E3A0EDF605B
:100FF80000EF08F002EF08F008EF08F032C028F020
:1010080033C029F01BEF08F0344A352A1FC004F01A
:1010180020C005F07EEC29F03250045C33500558AE
:10102800D8B019EF08F01BEF08F0E6EF07F021C081
:10103800D9FF22C0DAFFDECF23F0DDCF24F028501D
:101048002324346E29502420356E34C032F035C044
:1010580033F045EF08F032501F24236E3350202020
:10106800246E30502324D96E31502420DA6E325049
:101078001F24E16E33502020E26EDFCFE7FF324AB3
:10108800332A2E50325C3350800A236E2F50800A48
:101098002358D8A052EF08F054EF08F02FEF08F0CB
:1010A8005A50D8A45AEF08F05CEF08F002EF09F0A4
:1010B8001FC008F020C009F02E0E0A6ECCEC26F0F6
:1010C80008C026F009C027F01FC004F020C005F0B2
:1010D8007EEC29F004C02EF005C02FF01FC008F0E8
:1010E80020C009F0650E0A6ECCEC26F008C02CF082
:1010F80009C02DF02DBE8BEF08F02D5006E12C0411
:10110800D8B089EF08F08BEF08F091EF08F02EC007
:1011180032F02FC033F095EF08F02CC032F02DC01C
:1011280033F0FF0E3224306EFF0E3320316EF3EFB2
:1011380008F030501F24D96E31502020DA6E300E5E
:10114800DF64A9EF08F0ABEF08F0BBEF08F0305010
:101158001F24D96E31502020DA6E3A0EDF60B7EFC7
:1011680008F0B9EF08F0BBEF08F002EF09F01FC074
:1011780004F020C005F07EEC29F004C02EF005C074
:101188002FF030C034F031C035F0E1EF08F03450C2
:101198001F24236E35502020246E010E2324D96E7F
:1011A800000E2420DA6E34501F24E16E35502020C2
:1011B800E26EDFCFE7FF344A352A34502E5C2F50D9
:1011C800800A236E3550800A2358D8B0EEEF08F015
:1011D800F0EF08F0CBEF08F03006D8A03106265023
:1011E800305C3150800A236E2750800A2358D8B0CB
:1011F80000EF09F002EF09F09DEF08F012003A50F5
:10120800800B436E3A503A24456E39AE0EEF09F022
:1012180010EF09F011EF09F045804550D8B417EFE9
:1012280009F019EF09F02EEF09F04528D8A41FEFAF
:1012380009F021EF09F029EF09F0000E376E000ED2
:10124800386E000E396E000E3A6E398E000E3A6E08
:1012580036EF09F0000E376E000E386E000E396E4C
:10126800000E3A6E3E50800B446E43504418D8B47A
:1012780040EF09F042EF09F043EF09F0438C3E508C
:101288003E24446E3DAE4BEF09F04DEF09F04EEFB2
:1012980009F044804450D8B454EF09F056EF09F0EF
:1012A8006BEF09F04428D8A45CEF09F05EEF09F071
:1012B80066EF09F0000E3B6E000E3C6E000E3D6EB0
:1012C800000E3E6E3D8E000E3E6E73EF09F0000E6E
:1012D8003B6E000E3C6E000E3D6E000E3E6E45509D
:1012E800445CD8B07AEF09F07CEF09F0A3EF09F07D
:1012F80043AC81EF09F083EF09F085EF09F0800E28
:10130800431A45C046F044C045F046C044F037C0D3
:1013180046F03BC037F046C03BF038C046F03CC012
:1013280038F046C03CF039C046F03DC039F046C000
:101338003DF03AC046F03EC03AF046C03EF0000EDE
:10134800466E455044C03FF0406A3F5E000E405A2A
:1013580040BEB8EF09F0405009E11A0E3F5CD8A032
:10136800B8EF09F0BAEF09F0F1EF09F0375038108B
:1013780039103A10D8A4C3EF09F0C6EF09F0010EEE
:10138800C7EF09F0000E466E000E376E000E386E7D
:10139800000E396E000E3A6E44C045F0FAEF09F0BF
:1013A80046A0D9EF09F0DBEF09F0E1EF09F0D8909A
:1013B80046300109466EE3EF09F0D890463237A06F
:1013C800E8EF09F0EAEF09F0EBEF09F0468E3A345E
:1013D8003A32393238323732452A4450455CD8A03F
:1013E800F8EF09F0FAEF09F0D4EF09F043BCFFEF8A
:1013F80009F001EF0AF041EF0AF04550D8A407EFD1
:101408000AF009EF0AF013EF0AF0000E376E000E2B
:10141800386E000E396E000E3A6E62EF0BF03B50DC
:1014280037263C5038223D5039223E503A223AA0C5
:1014380020EF0AF022EF0AF0CEEF0AF046A027EFDD
:101448000AF029EF0AF02FEF0AF0D8904630010988
:10145800466E31EF0AF0D890463237A036EF0AF0E0
:1014680038EF0AF039EF0AF0468E3A343A32393218
:1014780038323732452ACEEF0AF03B50375C3C50C1
:1014880038583D5039583A50800A3F6E3E50800ACD
:101498003F58D8B052EF0AF054EF0AF07FEF0AF045
:1014A80037503B5C3F6E38503C58406E39503D5881
:1014B800416E3A503E58426EFF0E3F24376EFF0E83
:1014C8004020386EFF0E4120396EFF0E42203A6EE2
:1014D800800E431A466C4650D8A475EF0AF077EF91
:1014E8000AF087EF0AF0010E3726000E382239225B
:1014F8003A2287EF0AF03B50375E3C50385A3D504D
:10150800395A3E503A5A3750381039103A10D8A440
:1015180090EF0AF092EF0AF0C7EF0AF04650D8A40D
:1015280098EF0AF09AEF0AF0C7EF0AF0000E376E4C
:10153800000E386E000E396E000E3A6E62EF0BF038
:10154800D8903736383639363A3646AEAEEF0AF0E6
:10155800B0EF0AF0B1EF0AF0378046A0B6EF0AF014
:10156800B8EF0AF0BCEF0AF0D8804636BEEF0AF0B2
:10157800D89046364550D8B4C4EF0AF0C6EF0AF002
:10158800C7EF0AF0450639AECCEF0AF0CEEF0AF005
:10159800A4EF0AF0000E446E46AED5EF0AF0D7EF7E
:1015A8000AF0EFEF0AF046C03FF07F0E3F16D8B4BE
:1015B800E0EF0AF0E2EF0AF0E6EF0AF0010E446EFF
:1015C800EFEF0AF037A0EBEF0AF0EDEF0AF0EFEFDC
:1015D8000AF0E2EF0AF04450D8B4F5EF0AF0F7EF5A
:1015E8000AF022EF0BF0010E3726000E38223922BE
:1015F8003A223AA002EF0BF004EF0BF022EF0BF0C7
:1016080037C03FF038C040F039C041F03AC042F02E
:1016180042344232413240323F323FC037F040C05C
:1016280038F041C039F042C03AF04528D8B41FEF2D
:101638000BF021EF0BF022EF0BF0452A4528D8B428
:1016480028EF0BF02AEF0BF032EF0BF04550D8A43F
:1016580030EF0BF032EF0BF044EF0BF0000E376E6B
:10166800000E386E000E396E000E3A6E4550D8A442
:1016780040EF0BF042EF0BF044EF0BF0000E436E1F
:1016880045A049EF0BF04BEF0BF04EEF0BF0398E06
:101698004FEF0BF0399ED89045303A6E43AE57EF76
:1016A8000BF059EF0BF05AEF0BF03A8E37C037F0CA
:1016B80038C038F039C039F03AC03AF012004A5010
:1016C800800B0001606F4A504A24666F49AE6FEF85
:1016D8000BF071EF0BF072EF0BF066816651D8B426
:1016E80078EF0BF07AEF0BF08DEF0BF06629D8A4AA
:1016F80080EF0BF082EF0BF08AEF0BF0000E476ED5
:10170800000E486E000E496E000E4A6E498E95EF27
:101718000BF0000E476E000E486E000E496E000E6C
:101728004A6E4E50800B601B4E504E24616F4DAE7A
:10173800A0EF0BF0A2EF0BF0A3EF0BF0618161516A
:10174800D8B4A9EF0BF0ABEF0BF0BEEF0BF06129AB
:10175800D8A4B1EF0BF0B3EF0BF0BBEF0BF0000E1A
:101768004B6E000E4C6E000E4D6E000E4E6E4D8E82
:10177800C6EF0BF0000E4B6E000E4C6E000E4D6E59
:10178800000E4E6E6151D8B4CCEF0BF0CEEF0BF0DB
:10179800D6EF0BF06651D8A4D4EF0BF0D6EF0BF0D0
:1017A800E0EF0BF0000E476E000E486E000E496E1B
:1017B800000E4A6E78EF0DF04D504702F3CF6BF0F4
:1017C800F4CF6CF06B51626F636B646B656B6C513B
:1017D800676F686B696B6A6B4C504802F3CF6BF0AC
:1017E800F4CF6CF06B516227000E632364236523EA
:1017F8006C516727000E682369236A234B504902FE
:10180800F3CF6BF0F4CF6CF06B516227000E6323BB
:10181800642365236C516727000E682369236A23B4
:1018280064C065F063C064F062C063F0626B4B50E3
:101838004802F3CF6BF0F4CF6CF06B5162276C5118
:101848006323000E6423000E65234C504702F3CF38
:101858006BF0F4CF6CF06B5162276C516323000E70
:101868006423000E652364C065F063C064F062C041
:1018780063F0626B4B504702F3CF6BF0F4CF6CF020
:101888006B5162276C516323000E6423000E65239D
:101898004D504802F3CF6BF0F4CF6CF06B516727D3
:1018A8006C516823000E6923000E6A234C504902CC
:1018B800F3CF6BF0F4CF6CF06B5167276C51682352
:1018C800000E6923000E6A234D504902F3CF6BF0D6
:1018D800F4CF6CF06B514F6E6C51506E516A526A76
:1018E80051C052F050C051F04FC050F04F6A4F50A5
:1018F8006727505068235150692352506A2362C0A9
:101908004FF063C050F064C051F065C052F0190E3A
:1019180093EF0CF0D8905232513250324F32E82EB9
:101928008EEF0CF04F5067275050682351506923B1
:1019380052506A2364C065F063C064F062C063F00B
:10194800626B615166C04FF0506A4F26000E5022FC
:10195800820E4F246B6FFF0E50206C6FC9EF0CF096
:10196800D8906737683769376A3765AFBEEF0CF0CC
:10197800C0EF0CF0C1EF0CF06781D8906237633785
:10198800643765376B07D8A06C0769AFCEEF0CF0EA
:10199800D0EF0CF0B4EF0CF0000E616F65AFD7EF2D
:1019A8000CF0D9EF0CF0FDEF0CF0FF0E62154F6E46
:1019B800FF0E6315506EFF0E6415516E7F0E651590
:1019C800526E4F50501051105210D8B4EEEF0CF028
:1019D800F0EF0CF0F4EF0CF0010E616FFDEF0CF07E
:1019E80067A1F9EF0CF0FBEF0CF0FDEF0CF0F0EF56
:1019F8000CF06151D8B403EF0DF005EF0DF029EFAD
:101A08000DF0010E6727000E682369236A236AA177
:101A180010EF0DF012EF0DF029EF0DF067C04FF049
:101A280068C050F069C051F06AC052F05234523266
:101A3800513250324F324FC067F050C068F051C039
:101A480069F052C06AF06B4B6C2B6CBF34EF0DF031
:101A58006C5108E16B29D8A034EF0DF036EF0DF08A
:101A680040EF0DF0000E676F000E686F800E696F13
:101A78007F0E6A6F6EEF0DF06CBF4DEF0DF06C517D
:101A880006E16B05D8B04BEF0DF04DEF0DF059EFB7
:101A98000DF0000E676F000E686F000E696F000E84
:101AA8006A6F000E606F6EEF0DF06BC066F0FF0E90
:101AB8006717FF0E68177F0E6917000E6A1766A171
:101AC80068EF0DF06AEF0DF06BEF0DF0698FD890AD
:101AD80066316A6F60516A1367C047F068C048F0A2
:101AE80069C049F06AC04AF01200D1C083F0D2C080
:101AF80084F0D3C085F0D4C086F075C083F076C07A
:101B080084F077C085F078C086F083C053F084C035
:101B180054F085C055F086C056F0180E99EF0DF0B8
:101B2800D8905632553254325332E82E94EF0DF095
:101B3800535000017D6F7E6B7EBFACEF0DF07E5180
:101B480009E1960E7D5DD8A0ACEF0DF0AEEF0DF07B
:101B5800B8EF0DF075C075F076C076F077C077F005
:101B680078C078F051EF0FF083C053F084C054F080
:101B780085C055F086C056F0200EC8EF0DF0D890FD
:101B88005632553254325332E82EC3EF0DF05350CB
:101B9800541055105610D8B4D4EF0DF0D6EF0DF000
:101BA800E8EF0DF075C004F076C005F077C006F0D8
:101BB80078C007F02CEC29F004C075F005C076F069
:101BC80006C077F007C078F000017EBFF7EF0DF090
:101BD8007E5107E17E0E7D5DD8B0F5EF0DF0F7EF91
:101BE8000DF013EF0EF083C047F084C048F085C0B5
:101BF80049F086C04AF0000E4B6E000E4C6E000E87
:101C08004D6E000E4E6E63EC0BF047C075F048C089
:101C180076F049C077F04AC078F051EF0FF0000E27
:101C28003B6E000E3C6E000E3D6E4B0E3E6E75C058
:101C380037F076C038F077C039F078C03AF003EC66
:101C480009F037C07FF038C080F039C081F03AC061
:101C580082F0000E3B6E000E3C6E000E3D6ECB0E09
:101C68003E6E7FC037F080C038F081C039F082C046
:101C78003AF003EC09F037C079F038C07AF039C08F
:101C88007BF03AC07CF079C06DF07AC06EF07BC012
:101C98006FF07CC070F075C071F076C072F077C0DC
:101CA80073F078C074F028EC28F06DC087F06EC02F
:101CB80088F06FC089F070C08AF0000E046E000EC4
:101CC800056E000E066E3F0E076E87C008F088C0CE
:101CD80009F089C00AF08AC00BF088EC21F0D8B06E
:101CE80078EF0EF07AEF0EF0B0EF0EF075C03BF023
:101CF80076C03CF077C03DF078C03EF087C037F042
:101D080088C038F089C039F08AC03AF003EC09F08D
:101D180037C07FF038C080F039C081F03AC082F017
:101D28007FC037F080C038F081C039F082C03AF007
:101D3800000E3B6E000E3C6E800E3D6EBF0E3E6E7A
:101D480003EC09F037C087F038C088F039C089F053
:101D58003AC08AF019EF0FF0000E046E000E056EFF
:101D6800000E066EBF0E076E87C008F088C009F027
:101D780089C00AF08AC00BF088EC21F0D8A0C7EF20
:101D88000EF0C9EF0EF0FFEF0EF075C03BF076C015
:101D98003CF077C03DF078C03EF087C037F088C08F
:101DA80038F089C039F08AC03AF003EC09F037C03E
:101DB8007FF038C080F039C081F03AC082F07FC02F
:101DC80037F080C038F081C039F082C03AF0000E98
:101DD8003B6E000E3C6E800E3D6E3F0E3E6E03EC79
:101DE80009F037C087F038C088F039C089F03AC0A8
:101DF8008AF019EF0FF087C037F088C038F089C033
:101E080039F08AC03AF075C03BF076C03CF077C034
:101E18003DF078C03EF003EC09F037C087F038C0D9
:101E280088F039C089F03AC08AF083C053F084C082
:101E380054F085C055F086C056F0200E29EF0FF0FB
:101E4800D8905632553254325332E82E24EF0FF0E0
:101E58005350541055105610D8B435EF0FF037EFD3
:101E68000FF049EF0FF087C004F088C005F089C073
:101E780006F08AC007F02CEC29F004C087F005C0F2
:101E880088F006C089F007C08AF087C075F088C05E
:101E980076F089C077F08AC078F012002150800B64
:101EA8002E6E21502124356E20AE5DEF0FF05FEFCE
:101EB8000FF060EF0FF035803550D8B466EF0FF0B3
:101EC80068EF0FF07DEF0FF03528D8A46EEF0FF014
:101ED80070EF0FF078EF0FF0000E1E6E000E1F6E01
:101EE800000E206E000E216E208E000E216E85EFF2
:101EF8000FF0000E1E6E000E1F6E000E206E000EFC
:101F0800216E2550800B2E1A25502524366E24AEBE
:101F180090EF0FF092EF0FF093EF0FF036803650FE
:101F2800D8B499EF0FF09BEF0FF0B0EF0FF0362811
:101F3800D8A4A1EF0FF0A3EF0FF0ABEF0FF0000E56
:101F4800226E000E236E000E246E000E256E248E67
:101F5800000E256EB8EF0FF0000E226E000E236EF5
:101F6800000E246E000E256E22502310241025101A
:101F7800D8A4C1EF0FF0C3EF0FF0DBEF0FF0000EA6
:101F88001E6E000E1F6E000E206E000E216E800E5B
:101F980020127F0E21122E5021121EC01EF01FC0CB
:101FA8001FF020C020F021C021F01EEF11F03550A5
:101FB800D8A4E1EF0FF0E3EF0FF0EDEF0FF0000E14
:101FC8001E6E000E1F6E000E206E000E216E1EEF9C
:101FD80011F0365035C026F0276A265E000E275AC3
:101FE8007F0E26242F6E000E2720306E1EC02AF08A
:101FF8001FC02BF020C02CF021C02DF0000E1E6E4B
:10200800000E1F6E000E206E000E216E000E316E47
:10201800000E326E000E336E000E346E000E366EF9
:102028004EEF10F03650D8B41CEF10F01EEF10F041
:1020380035EF10F0D8902A362B362C362D36D8901E
:102048001E361F362036213634AE2DEF10F02FEF16
:1020580010F030EF10F01E80D8903136323633361B
:10206800343622502A5C23502B5824502C582550A3
:102078002D58D8A042EF10F044EF10F04DEF10F0BB
:10208800348C22502A5E23502B5A24502C5A255027
:102098002D5A362A190E366454EF10F056EF10F008
:1020A80016EF10F02A502B102C102D10D8B45FEF1B
:1020B80010F061EF10F079EF10F0318079EF10F047
:1020C800D8901E361F362036213634AE6EEF10F00B
:1020D80070EF10F071EF10F01E80D8903136323664
:1020E800333634362F06D8A0300620AE7EEF10F0F7
:1020F80080EF10F064EF10F0000E366E34AE87EF0C
:1021080010F089EF10F0ADEF10F0FF0E3114266ECD
:10211800FF0E3214276EFF0E3314286E7F0E341410
:10212800296E2650271028102910D8B49EEF10F0D9
:10213800A0EF10F0A4EF10F0010E366EADEF10F026
:102148001EA0A9EF10F0ABEF10F0ADEF10F0A0EF6C
:1021580010F03650D8B4B3EF10F0B5EF10F0D9EF57
:1021680010F0010E1E26000E1F222022212221A07F
:10217800C0EF10F0C2EF10F0D9EF10F01EC026F03B
:102188001FC027F020C028F021C029F029342932A7
:1021980028322732263226C01EF027C01FF028C05A
:1021A80020F029C021F02F4A302A30BEE4EF10F089
:1021B800305008E12F28D8A0E4EF10F0E6EF10F037
:1021C800F1EF10F0000E306E2F68000E1E6E000E3C
:1021D8001F6E000E206E000E216E30BEFEEF10F056
:1021E800305006E12F04D8B0FCEF10F0FEEF10F0ED
:1021F8000CEF11F0000E306E000E2F6E000E1E6EEA
:10220800000E1F6E000E206E000E216E000E2E6E48
:102218002FC035F035A013EF11F015EF11F018EFBE
:1022280011F0208E19EF11F0209ED8903530216ED4
:10223800CFEF0FF01200000E0001A06F000E9F6F8D
:1022480095C004F096C005F097C006F098C007F056
:10225800000E086E000E096E000E0A6E000E0B6E60
:1022680012EC24F0D8A03BEF11F03DEF11F05EEF37
:1022780011F093C0D9FF94C0DAFF300EDF6E000171
:1022880020EE01F09351D9269451DA222E0EDF6EFA
:1022980020EE02F09351D9269451DA22300EDF6EE7
:1022A80020EE03F09351D9269451DA22000EDF6E06
:1022B800BFEF12F0000198BF66EF11F064EF11F064
:1022C80078EF11F095C004F096C005F097C006F0BD
:1022D80098C007F02CEC29F004C095F005C096F0E2
:1022E80006C097F007C098F0950E536E000E546E16
:1022F80060EC1FF053C09DF054C09EF0ECEF11F05D
:10230800000E4B6E000E4C6E200E4D6E410E4E6E42
:1023180095C047F096C048F097C049F098C04AF079
:1023280063EC0BF047C08BF048C08CF049C08DF0CF
:102338004AC08EF004EC21F08BC099F08CC09AF062
:1023480000019951300F93C0D9FF94C0DAFFDF6EB6
:10235800934B942B000E4B6E000E4C6E200E4D6E60
:10236800410E4E6E95C047F096C048F097C049F0B0
:1023780098C04AF063EC0BF047C06DF048C06EF0AF
:1023880049C06FF04AC070F099C010F09AC011F0BF
:10239800000E11BEFF0E126E136E010E5DEC1CF0E6
:1023A80010C071F011C072F012C073F013C074F055
:1023B80028EC28F06DC095F06EC096F06FC097F0CD
:1023C80070C098F000019F4BA02B9D07D8A09E07D6
:1023D80000019EBFFAEF11F09E5106E19D05D8B0AD
:1023E800F8EF11F0FAEF11F084EF11F09F51A011FE
:1023F800D8A401EF12F003EF12F00BEF12F093C024
:10240800D9FF94C0DAFF300EDF6E934B942BA0BF38
:1024180019EF12F0A05107E1070E9F5DD8B017EF32
:1024280012F019EF12F02FEF12F093C0D9FF94C0F9
:10243800DAFF2E0EDF6E934B942B2FEF12F093C022
:10244800D9FF94C0DAFF300EDF6E934B942B9D4B6F
:102458009E2B9F4BA02B9EBF36EF12F034EF12F04D
:10246800ABEF12F0A0BF42EF12F0A05109E1070E46
:102478009F5DD8A042EF12F044EF12F023EF12F064
:10248800ABEF12F0000E4B6E000E4C6E200E4D6E30
:10249800410E4E6E95C047F096C048F097C049F07F
:1024A80098C04AF063EC0BF047C08BF048C08CF042
:1024B80049C08DF04AC08EF004EC21F08BC09BF02F
:1024C8008CC09CF000019B51300F93C0D9FF94C081
:1024D800DAFFDF6E934B942B000E4B6E000E4C6EA2
:1024E800200E4D6E410E4E6E95C047F096C048F0D6
:1024F80097C049F098C04AF063EC0BF047C06DF004
:1025080048C06EF049C06FF04AC070F09BC010F030
:102518009CC011F0000E11BEFF0E126E136E010E5C
:102528005DEC1CF010C071F011C072F012C073F0B5
:1025380013C074F028EC28F06DC095F06EC096F0CA
:102548006FC097F070C098F000019F4BA02BA0BF00
:10255800B7EF12F0A05109E1070E9F5DD8A0B7EFC1
:1025680012F0B9EF12F046EF12F093C0D9FF94C001
:10257800DAFF000EDF6E12000EC004F00FC005F087
:102588007EEC29F004C017F005C018F00EC008F062
:102598000FC009F02E0E0A6ECCEC26F008C019F018
:1025A80009C01AF0FF0E12241D6EFF0E13201E6EB6
:1025B8001EBEE3EF12F0E1EF12F0E5EF12F054EF78
:1025C80013F01D500E24D96E1E500F20DA6E390EEE
:1025D800DF60F1EF12F0F3EF12F04FEF13F01D5040
:1025E8000E24D96E1E500F20DA6E2E0EDE18D8B4C7
:1025F80000EF13F002EF13F04FEF13F012500E2418
:10260800D96E13500F20DA6E340EDF640EEF13F01C
:1026180010EF13F054EF13F01D500E24D96E1E5016
:102628000F20DA6EDF2A3EEF13F01D500E24146ED1
:102638001E500F20156E010E1424D96E000E1520A1
:10264800DA6E2E0EDE18D8B42CEF13F02EEF13F03E
:102658003CEF13F01D500E24146E1E500F20156E03
:10266800010E1424D96E000E1520DA6E300EDF6EBE
:102678001D4A1E2A12501D5C1E50800A146E1350EB
:10268800800A1458D8A04BEF13F04DEF13F019EF50
:1026980013F054EF13F01D06D8A01E06DCEF12F05D
:1026A8001D2806E11E28D8A45CEF13F05EEF13F096
:1026B800E6EF13F0102806E11128D8A466EF13F00E
:1026C80068EF13F0E6EF13F00EC0D9FF0FC0DAFF82
:1026D8002B0EDE18D8B473EF13F075EF13F082EFFA
:1026E80013F00EC0D9FF0FC0DAFF2D0EDE18D8A4E4
:1026F80080EF13F082EF13F090EF13F020EE01F06B
:102708000E50D9260F50DA22310EDF6E000E1C6EE5
:10271800020E1B6ED5EF13F00EC0D9FF0FC0DAFF03
:10272800310EDF6E000E1C6E010E1B6ED5EF13F01E
:102738001B500E24D96E1C500F20DA6E2E0EDE1898
:10274800D8A4A9EF13F0ABEF13F0C5EF13F01B50AB
:102758000E24D96E1C500F20DA6E300EDF6E1B501F
:102768000E24146E1C500F20156E010E1424D96E01
:10277800000E1520DA6E2E0EDF6E1B4A1C2ACDEFD6
:1027880013F01B500E24D96E1C500F20DA6E300E39
:10279800DF6E1B4A1C2A000E0F6E010E0E6E3AEFFA
:1027A80014F017501B5C1C50800A146E1850800AD5
:1027B8001458D8A0E2EF13F0E4EF13F09CEF13F0F5
:1027C80036EF14F01D2806E11E28D8A4EEEF13F00A
:1027D800F0EF13F036EF14F0102808E11128D8B400
:1027E800F8EF13F0FAEF13F036EF14F019500E2447
:1027F800146E1A500F20156EFF0E1424D96EFF0E9A
:102808001520DA6E310EDF6E010E19241B6E000ED4
:102818001A201C6E1AEF14F01B500E24D96E1C508F
:102828000F20DA6E300EDF6E1B4A1C2A10501B5C1C
:102838001C50800A146E1150800A1458D8A027EF33
:1028480014F029EF14F010EF14F010500E24146E49
:1028580011500F20156E020E1424D96E000E15208B
:10286800DA6EDF2A000E0F6E000E0E6E1200AEC07A
:1028780004F0AFC005F0B0C006F0B1C007F0000E1C
:10288800086E000E096E000E0A6E000E0B6E12EC3A
:1028980024F0D8A052EF14F054EF14F069EF14F0BC
:1028A800ACC0D9FFADC0DAFF300EDF6E000120EEFC
:1028B80001F0AC51D926AD51DA22000EDF6E000EC0
:1028C800AD6F000EAC6FAAEF15F00001B1BF71EF4C
:1028D80014F06FEF14F083EF14F0AEC004F0AFC043
:1028E80005F0B0C006F0B1C007F02CEC29F004C028
:1028F800AEF005C0AFF006C0B0F007C0B1F0AE0E44
:10290800536E000E546E60EC1FF053C0B8F054C004
:10291800B9F0000E4B6E000E4C6E200E4D6E410E3F
:102928004E6EAEC047F0AFC048F0B0C049F0B1C07D
:102938004AF063EC0BF047C08BF048C08CF049C0FC
:102948008DF04AC08EF004EC21F08BC0B2F08CC040
:10295800B3F00001B251300FACC0D9FFADC0DAFFFF
:10296800DF6EAC4BAD2B000E4B6E000E4C6E200E86
:102978004D6E410E4E6EAEC047F0AFC048F0B0C0CD
:1029880049F0B1C04AF063EC0BF047C06DF048C0A5
:102998006EF049C06FF04AC070F0B2C010F0B3C01A
:1029A80011F0000E11BEFF0E126E136E010E5DECDB
:1029B8001CF010C071F011C072F012C073F013C097
:1029C80074F028EC28F06DC0AEF06EC0AFF06FC0A8
:1029D800B0F070C0B1F00001B807D8A0B907ACC01A
:1029E800D9FFADC0DAFF2E0EDF6EAC4BAD2B000E5B
:1029F800B76F000EB66F000E4B6E000E4C6E200EB9
:102A08004D6E410E4E6EAEC047F0AFC048F0B0C03C
:102A180049F0B1C04AF063EC0BF047C08BF048C0F6
:102A28008CF049C08DF04AC08EF004EC21F08BC0C8
:102A3800B4F08CC0B5F00001B451300FACC0D9FF70
:102A4800ADC0DAFFDF6EAC4BAD2B000E4B6E000E47
:102A58004C6E200E4D6E410E4E6EAEC047F0AFC0AC
:102A680048F0B0C049F0B1C04AF063EC0BF047C081
:102A78006DF048C06EF049C06FF04AC070F0B4C045
:102A880010F0B5C011F0000E11BEFF0E126E136EDD
:102A9800010E5DEC1CF010C071F011C072F012C094
:102AA80073F013C074F028EC28F06DC0AEF06EC05F
:102AB800AFF06FC0B0F070C0B1F00001B64BB72BEB
:102AC800B7BF70EF15F0B75109E1060EB65DD8A093
:102AD80070EF15F072EF15F0FFEF14F0ACC0D9FFEE
:102AE800ADC0DAFF650EDF6EAC4BAD2BB9BF7FEF23
:102AF80015F081EF15F08BEF15F0ACC0D9FFADC024
:102B0800DAFF2B0EDF6EAC4BAD2B93EF15F0ACC09C
:102B1800D9FFADC0DAFF2D0EDF6E87EF15F0ACC020
:102B2800A4F0ADC0A5F0B8C0A6F0B9C0A7F0000EDB
:102B3800A7BFFF0EA86FA96F000EAB6F0A0EAA6F92
:102B480037EC1DF0B8C0ACF0B9C0ADF012003E0EC5
:102B58000001BA6FC30EBB6FAE0EBC6F380EBD6FEF
:102B6800D5BCB9EF15F0BBEF15F0C5EF15F0FF0EAA
:102B7800B16FFF0EB26F000EB36F000EB46FCDEFE2
:102B880015F0FF0EB16F000EB26F000EB36F000E9E
:102B9800B46FB1C010F0B2C011F0B3C012F0B4C03D
:102BA80013F0010E5DEC1CF010C0B6F011C0B7F0C8
:102BB80012C0B8F013C0B9F0BAC04BF0BBC04CF0AB
:102BC800BCC04DF0BDC04EF00001EA51106E116A54
:102BD800126A136A010E5DEC1CF010C047F011C0B8
:102BE80048F012C049F013C04AF063EC0BF047C03C
:102BF800A5F048C0A6F049C0A7F04AC0A8F0A5C0F3
:102C080047F0A6C048F0A7C049F0A8C04AF0B6C02F
:102C18004BF0B7C04CF0B8C04DF0B9C04EF063EC03
:102C28000BF047C09DF048C09EF049C09FF04AC0D5
:102C3800A0F00001EA51106E116A126A136A010EBF
:102C48005DEC1CF010C047F011C048F012C049F00C
:102C580013C04AF0BAC04BF0BBC04CF0BCC04DF03A
:102C6800BDC04EF063EC0BF047C0A1F048C0A2F025
:102C780049C0A3F04AC0A4F0000E0001B56F9DC082
:102C880004F09EC005F09FC006F0A0C007F099C0F0
:102C980008F09AC009F09BC00AF09CC00BF088ECC1
:102CA80021F0D8A05AEF16F05CEF16F0FDEF16F001
:102CB80099C004F09AC005F09BC006F09CC007F0CC
:102CC800A1C008F0A2C009F0A3C00AF0A4C00BF08C
:102CD80088EC21F0D8A073EF16F075EF16F0FDEF31
:102CE80016F0BAC04BF0BBC04CF0BCC04DF0BDC034
:102CF8004EF0000E3B6E000E3C6E800E3D6E3F0E99
:102D08003E6E0001EA51106E116A126A136A010ED2
:102D18005DEC1CF010C037F011C038F012C039F06B
:102D280013C03AF003EC09F037C047F038C048F058
:102D380039C049F03AC04AF063EC0BF047C022F0C2
:102D480048C023F049C024F04AC025F099C01EF0BD
:102D58009AC01FF09BC020F09CC021F052EC0FF0ED
:102D68001EC0A9F01FC0AAF020C0ABF021C0ACF073
:102D7800A9C093F0AAC094F0ABC095F0ACC096F08F
:102D88000FEC29F093C010F094C011F095C012F028
:102D980096C013F0010E5DEC1CF010C0ADF011C030
:102DA800AEF012C0AFF013C0B0F0ADC071F0AEC05D
:102DB80072F0AFC073F0B0C074F0B6C06DF0B7C0B9
:102DC8006EF0B8C06FF0B9C070F028EC28F06DC094
:102DD8008BF06EC08CF06FC08DF070C08EF004EC7C
:102DE80021F08BC097F08CC098F042EC2AF002EFEB
:102DF80017F052EC2AF0010E0001B56F0001B55131
:102E0800120020EE4CF0040EDE6AE806FDE2000E29
:102E1800516E8B90020E486E380E476EAD0EE82E3E
:102E2800FED7472EFCD7482EFAD700F08B80948027
:102E3800000E056E040E046E010E98EC26F0045088
:102E48000510D8A42AEF17F02CEF17F02EEF17F083
:102E5800010E516E000E056E080E046E000E98EC01
:102E680026F004500510D8A43CEF17F03EEF17F0F9
:102E780040EF17F0010E516E000E056E080E046E3D
:102E8800010E98EC26F0000E536E000E526E000EE6
:102E9800556E070E546E000E056E050E046E000E7C
:102EA80098EC26F0000E056E070E046E010E98ECE5
:102EB80026F004C04AF005C04BF04BBE6DEF17F08A
:102EC8004B5009E1040E4A5CD8A06DEF17F06FEF84
:102ED80017F083EF17F054C047F0010E486E472AE9
:102EE80078EF17F0D8904836472E76EF17F04C0E4B
:102EF8005224D96E000E5320DA6E4850DF12540661
:102F0800D8A0550655BE8DEF17F08BEF17F04FEF91
:102F180017F0524A532A53BE9BEF17F0535009E15A
:102F2800050E525CD8A09BEF17F09DEF17F04BEF02
:102F380017F094908B804D504E244F244C24496EAA
:102F480049505018D8A4ABEF17F0ADEF17F02FEF9A
:102F580018F05150D8A4B3EF17F0B5EF17F02FEFD2
:102F680018F04C50106E116A126A136A000E5DEC6C
:102F78001CF010C037F011C038F012C039F013C07F
:102F88003AF0000E226E000E236E200E246E410EC3
:102F9800256E4D50106E116A126A136A010E5DECAF
:102FA8001CF010C01EF011C01FF012C020F013C09A
:102FB80021F052EC0FF01EC03BF01FC03CF020C0C7
:102FC8003DF021C03EF003EC09F037C0D5F038C021
:102FD800D6F039C0D7F03AC0D8F04E50106E116A0A
:102FE800126A136A000E5DEC1CF010C037F011C0B5
:102FF80038F012C039F013C03AF0000E226E000EFD
:10300800236E200E246E410E256E4F50106E116AED
:10301800126A136A010E5DEC1CF010C01EF011C09C
:103028001FF012C020F013C021F052EC0FF01EC0A8
:103038003BF01FC03CF020C03DF021C03EF003EC47
:1030480009F037C0D9F038C0DAF039C0DBF03AC03F
:10305800DCF031EF18F0010E516E51501200A4C08F
:1030680004F0A5C005F07EEC29F004C022F005C0EC
:1030780023F020EE1DF0040EDE6AE806FDE220EEE5
:1030880018F0040EDE6AE806FDE2000E256E000E5A
:10309800246E000E276E000E266E000E0001E76FEC
:1030A800000EE66FA4C008F0A5C009F02B0E0A6E4A
:1030B8005CEC27F00001E86FA4C008F0A5C009F097
:1030C8002D0E0A6E5CEC27F05B6EA4C008F0A5C05C
:1030D80009F0200E0A6E5CEC27F00001E56FA4C031
:1030E80008F0A5C009F0230E0A6E5CEC27F05A6EB2
:1030F800A4C008F0A5C009F02E0E0A6ECCEC26F08C
:1031080008C028F009C029F0000E2B6E010E2A6EA7
:10311800F4EF18F02A500001A425D96E2B50A521F0
:10312800DA6E2F0EDF649BEF18F09DEF18F0F2EFC8
:1031380018F02A50A425D96E2B50A521DA6E3A0E24
:10314800DF60A9EF18F0ABEF18F0F2EF18F0285095
:103158002A5C2B50800A166E2950800A1658D8A06F
:10316800B8EF18F0BAEF18F0C1EF18F029BEC1EFA8
:1031780018F0BFEF18F0D3EF18F02A50A425D96E35
:103188002B50A521DA6E1D0E2424E16E000E252099
:10319800E26EDFCFE7FF244A252AF2EF18F02A5023
:1031A800285C2950800A166E2B50800A1658D8B011
:1031B800E0EF18F0E2EF18F0F2EF18F02A50A4252B
:1031C800D96E2B50A521DA6E180E2624E16E000E5A
:1031D8002720E26EDFCFE7FF264A272A2A4A2B2A32
:1031E80022502A5C2B50800A166E2350800A1658EB
:1031F800D8A001EF19F003EF19F08EEF18F0300E98
:103208001D18D8A40AEF19F00CEF19F00FEF19F0F8
:10321800010E0001E76F1D0E126E000E136E0AEC10
:1032280025F0180E126E000E136E0AEC25F0A6C0DB
:10323800D9FFA7C0DAFFDE2806E1DE28D8A427EFE9
:1032480019F029EF19F037EF19F01D0E0A6E000E6C
:103258000B6EEEEC22F0A6C0D9FFA7C0DAFF0AC0B9
:10326800DEFF0BC0DDFF29BE3CEF19F03EEF19F081
:103278005AEF19F0A8C0D9FFA9C0DAFFDE2806E185
:10328800DE28D8A44AEF19F04CEF19F05AEF19F0DC
:10329800180E0A6E000E0B6EEEEC22F0A8C0D9FFD5
:1032A800A9C0DAFF0AC0DEFF0BC0DDFF120008C0AC
:1032B80004F009C005F07EEC29F004C010F005C048
:1032C80011F00AC0D9FF0BC0DAFFDECF0CF0DDCF5A
:1032D8000DF010500C5C0E6E11500D580F6E0FBE95
:1032E8007EEF19F00F5008E10E04D8A07EEF19F018
:1032F80080EF19F0ABEF19F05B04D8A486EF19F052
:1033080088EF19F0ABEF19F0000E136E000E126E75
:103318009AEF19F010500824D96E11500920DA6E6E
:10332800200EDF6E104A112A124A132A0E50125C20
:103338001350800A0C6E0F50800A0C58D8A0A7EFC3
:1033480019F0A9EF19F08EEF19F070EF1AF00FBE0F
:10335800B6EF19F00F5008E10E04D8A0B6EF19F037
:10336800B8EF19F070EF1AF05B50D8A4BEEF19F05F
:10337800C0EF19F070EF1AF00AC0D9FF0BC0DAFFDE
:10338800DECF0CF0DDCF0DF0FF0E0C24126EFF0E19
:103398000D20136E13BED5EF19F0D3EF19F0D7EF48
:1033A80019F070EF1AF01006D8A011060001E70511
:1033B800D8A4E1EF19F0E3EF19F052EF1AF0E65153
:1033C800D8A4E9EF19F0EBEF19F052EF1AF00E500C
:1033D800125C1350800A0C6E0F50800A0C58D8A04B
:1033E800F8EF19F0FAEF19F032EF1AF0105008243C
:1033F800D96E11500920DA6E2B0EDE18D8B407EFFB
:103408001AF009EF1AF018EF1AF010500824D96EC4
:1034180011500920DA6E2D0EDE18D8A416EF1AF016
:1034280018EF1AF022EF1AF012500824D96E135030
:103438000920DA6E300EDF6E6BEF1AF01050082498
:10344800D96E11500920DA6E12500824E16E13501B
:103458000920E26EDFCFE7FF6BEF1AF01250082465
:10346800D96E13500920DA6E2B0EDE18D8B43FEF50
:103478001AF041EF1AF06BEF1AF012500824D96EC7
:1034880013500920DA6E2D0EDE18D8B44EEF1AF05C
:1034980050EF1AF06BEF1AF018EF1AF00E50125C9A
:1034A8001350800A0C6E0F50800A0C58D8A05FEF9A
:1034B8001AF061EF1AF063EF1AF022EF1AF01250C7
:1034C8000824D96E13500920DA6E200EDF6E12061A
:1034D800D8A01306CEEF19F012001FC004F020C0C8
:1034E80005F07EEC29F004C027F005C028F01FC0C5
:1034F80008F020C009F0650E0A6ECCEC26F008C072
:1035080029F009C02AF01FC008F020C009F02E0ECB
:103518000A6ECCEC26F008C025F009C026F021C0C0
:10352800D9FF22C0DAFF010EDBBE9FEF1AF09DEF34
:103538001AF0A7EF1AF021C0D9FF22C0DAFF040E53
:10354800DE6E000EDD6E21C0D9FF22C0DAFFDECFAD
:1035580023F0DDCF24F02550232626502422010E07
:1035680023242B6E000E24202C6E2B50295C2D6EEC
:103578002C502A582E6E2EBECAEF1AF02E5008E193
:103588002D04D8A0CAEF1AF0CCEF1AF021EF1BF0E7
:103598001FC00EF020C00FF029C010F02AC011F093
:1035A8002BC012F02CC013F0C0EC12F021C0D9FFD0
:1035B80022C0DAFFDE50DE10D8A4E5EF1AF0E7EFFC
:1035C8001AF0F4EF1AF05A50D8A4EDEF1AF0EFEF12
:1035D8001AF0F4EF1AF02B06D8A02C062D4A2E2A42
:1035E8002BC02FF02CC030F010EF1BF02F501F24F1
:1035F800236E30502020246E2D502324D96E2E5057
:103608002420DA6E2F501F24E16E30502020E26E05
:10361800DFCFE7FF2F4A302A27502F5C3050800A2F
:10362800236E2850800A2358D8A01DEF1BF01FEFE7
:103638001BF0FAEF1AF075EF1BF02EBE28EF1BF007
:1036480026EF1BF075EF1BF02D50275C236E2E50D4
:103658002858246EFF0E23242F6EFF0E2420306E70
:1036680066EF1BF02B502F5C3050800A236E2C50D5
:10367800800A2358D8A043EF1BF045EF1BF05BEFFF
:103688001BF02F501F24236E30502020246E2D5005
:103698002324D96E2E502420DA6E2F501F24E16E79
:1036A80030502020E26EDFCFE7FF63EF1BF02F5092
:1036B8001F24D96E30502020DA6E300EDF6E2F06B0
:1036C800D8A0300629502F5C3050800A236E2A502B
:1036D800800A2358D8B073EF1BF075EF1BF036EF54
:1036E8001BF012001FC004F020C005F07EEC29F08A
:1036F80004C02CF005C02DF01FC008F020C009F050
:103708002E0E0A6ECCEC26F008C028F009C029F06D
:1037180021C0D9FF22C0DAFF010EDBBE98EF1BF0F3
:1037280096EF1BF0A0EF1BF021C0D9FF22C0DAFFF3
:10373800040EDE6E000EDD6E21C0D9FF22C0DAFF56
:10374800DECF23F0DDCF24F0285023262950242271
:10375800010E23242A6E000E24202B6E2A502C5C86
:10376800266E2B502D58276E27BEC3EF1BF027500F
:1037780008E12604D8A0C3EF1BF0C5EF1BF020EF2B
:103788001CF01FC00EF020C00FF0FF0E116E106865
:103798002AC012F02BC013F0C0EC12F021C0D9FFE0
:1037A80022C0DAFFDE50DE10D8A4DDEF1BF0DFEF19
:1037B8001BF0E7EF1BF05A50D8B4E5EF1BF0E7EF2A
:1037C8001BF0FBEF1BF021C0D9FF22C0DAFFDECFD0
:1037D80023F0DDCF24F02850232629502422010E7F
:1037E80023242A6E000E24202B6EFFEF1BF028C026
:1037F8002AF029C02BF02AC02EF02BC02FF00FEF93
:103808001CF02E501F24D96E2F502020DA6E000E87
:10381800DF6E2E4A2F2A2C502E5C2F50800A236EE2
:103828002D50800A2358D8A01CEF1CF01EEF1CF066
:1038380005EF1CF05CEF1CF027BE27EF1CF025EF0E
:103848001CF05CEF1CF01FC008F020C009F02E0E21
:103858000A6E5CEC27F00009D8B435EF1CF037EF9E
:103868001CF05CEF1CF02CC02EF02DC02FF047EFA1
:103878001CF02E501F24D96E2F502020DA6E300EE7
:10388800DF6E2E4A2F2A26502C5C236E27502D5887
:10389800246E23502E5C2F50800A256E2450800AF7
:1038A8002558D8A05AEF1CF05CEF1CF03DEF1CF037
:1038B8001200186E1850D8B464EF1CF066EF1CF0B4
:1038C80088EF1CF013BE6DEF1CF06BEF1CF088EF57
:1038D8001CF010C014F011C015F012C016F013C07F
:1038E80017F0141E151E161E171E142A000E152278
:1038F8001622172214C01AF015C01BF016C01CF0AF
:1039080017C01DF090EF1CF010C01AF011C01BF08A
:1039180012C01CF013C01DF010501110121013101B
:10392800D8A499EF1CF09BEF1CF0A5EF1CF0000E3B
:10393800106E000E116E000E126E000E136E36EF32
:103948001DF0960E196EAFEF1CF0192AD8901D3293
:103958001C321B321A32000E1A14146E000E1B147D
:10396800156E000E1C14166EFE0E1D14176E1450E4
:10397800151016101710D8A4C4EF1CF0C6EF1CF0D1
:10398800A9EF1CF0D4EF1CF0192A010E1A26000E1C
:103998001B221C221D22D8901D321C321B321A32C7
:1039A800000E1A14146E000E1B14156E000E1C1453
:1039B800166EFF0E1D14176E1450151016101710E2
:1039C800D8A4E9EF1CF0EBEF1CF0C8EF1CF0F3EF04
:1039D8001CF01906D8901A361B361C361D361CBE2C
:1039E800F8EF1CF0FAEF1CF002EF1DF0020E196060
:1039F80000EF1DF002EF1DF0EDEF1CF019B007EF1E
:103A08001DF009EF1DF00AEF1DF01C9ED890193229
:103A180019C014F0156A166A176A14C017F0166AE6
:103A2800156A146A14501A1215501B1216501C12DB
:103A380017501D121850D8B424EF1DF026EF1DF0B2
:103A48002EEF1DF013BE2DEF1DF02BEF1DF02EEF06
:103A58001DF01D8E1AC010F01BC011F01CC012F012
:103A68001DC013F01200000E216E000E206E000122
:103A7800A651A711A811A911D8A445EF1DF047EF29
:103A88001DF059EF1DF0A4C0D9FFA5C0DAFF300E14
:103A9800DF6E204A212A2050A425D96E2150A52165
:103AA800DA6E000EDF6EF9EF1DF0A9BF60EF1DF0B2
:103AB8005EEF1DF0DFEF1DF00A0EAA19AB11D8A4B6
:103AC80068EF1DF06AEF1DF0DFEF1DF0A91FA81FBA
:103AD800A71FA66D000EA723A823A923DFEF1DF0BB
:103AE800A6C004F0A7C005F0A8C006F0A9C007F05A
:103AF800AAC008F0ABC009F0000E09BEFF0E0A6E9E
:103B08000B6E0AEC22F004C01CF005C01DF006C0C4
:103B18001EF007C01FF01FBE9FEF1DF01F501E10A4
:103B28001D1007E10A0E1C5CD8B09DEF1DF09FEF39
:103B38001DF0ADEF1DF0300E1C24186E000E1D2078
:103B4800196E000E1E201A6E000E1F201B6EB9EF94
:103B58001DF0570E1C24186E000E1D20196E000E45
:103B68001E201A6E000E1F201B6E20500001A42577
:103B7800D96E2150A521DA6E18C0DFFF204A212A0C
:103B8800A6C004F0A7C005F0A8C006F0A9C007F0B9
:103B9800AAC008F0ABC009F0000E09BEFF0E0A6EFD
:103BA8000B6E7EEC20F004C0A6F005C0A7F006C09E
:103BB800A8F007C0A9F00001A651A711A811A911E2
:103BC800D8A4E9EF1DF0EBEF1DF074EF1DF02050C5
:103BD800A425D96E2150A521DA6E000EDF6EA4C08F
:103BE80012F0A5C013F00AEC25F0120008C004F08A
:103BF80009C005F07EEC29F004C00FF005C010F0F4
:103C08005A04D8A40AEF1EF00CEF1EF069EF1EF05C
:103C18000A500B10D8B413EF1EF015EF1EF069EF21
:103C28001EF0780E0C18D8A41CEF1EF01EEF1EF024
:103C380069EF1EF0010E0F24116E000E1020126E97
:103C480012BE32EF1EF0125007E1020E115CD8B01E
:103C580030EF1EF032EF1EF034EF1EF059EF1EF079
:103C6800115008240D6E125009200E6EFE0E0D2400
:103C7800D96EFF0E0E20DA6E11500824E16E125034
:103C88000920E26EDFCFE7FF1106D8A0120612BEA8
:103C980059EF1EF0125007E1020E115CD8B057EF31
:103CA8001EF059EF1EF034EF1EF008C0D9FF09C00E
:103CB800DAFF300EDF6E20EE01F00850D9260950E9
:103CC800DA22780EDF6EB5EF1EF05A04D8A46FEF33
:103CD8001EF071EF1EF0B5EF1EF00A500B10D8B4AD
:103CE80078EF1EF07AEF1EF0B5EF1EF06F0E0C188D
:103CF800D8A481EF1EF083EF1EF0B5EF1EF00FC0C1
:103D080011F010C012F012BE94EF1EF0125006E12E
:103D18001104D8B092EF1EF094EF1EF096EF1EF04B
:103D2800AFEF1EF0115008240D6E125009200E6ED0
:103D3800FF0E0D24D96EFF0E0E20DA6E11500824E6
:103D4800E16E12500920E26EDFCFE7FF1106D8A01E
:103D5800120687EF1EF008C0D9FF09C0DAFF300E3F
:103D6800DF6E12001EC004F01FC005F07EEC29F0C3
:103D780004C026F005C027F00001E805D8B4C7EF55
:103D88001EF0C9EF1EF0D0EF1EF023BED0EF1EF0DC
:103D9800CEEF1EF025EF1FF026C028F027C029F02F
:103DA80029BEE1EF1EF0295006E12804D8B0DFEF64
:103DB8001EF0E1EF1EF0E3EF1EF0FCEF1EF02850BE
:103DC8001E24246E29501F20256EFF0E2424D96E30
:103DD800FF0E2520DA6E28501E24E16E29501F2080
:103DE800E26EDFCFE7FF2806D8A02906D4EF1EF041
:103DF800000E046E000E056E000E066E000E076EB5
:103E080020C008F021C009F022C00AF023C00BF03E
:103E180088EC21F0D8B013EF1FF015EF1FF01DEF5D
:103E28001FF01EC0D9FF1FC0DAFF2B0EDF6E5FEF39
:103E38001FF01EC0D9FF1FC0DAFF2D0EDF6E5FEF27
:103E48001FF0E505D8A42BEF1FF02DEF1FF05FEF53
:103E58001FF026C028F027C029F029BE3EEF1FF02A
:103E6800295006E12804D8B03CEF1FF03EEF1FF0C0
:103E780040EF1FF059EF1FF028501E24246E2950E0
:103E88001F20256EFF0E2424D96EFF0E2520DA6E22
:103E980028501E24E16E29501F20E26EDFCFE7FF75
:103EA8002806D8A0290631EF1FF01EC0D9FF1FC071
:103EB800DAFF200EDF6E1200000E00016E6F000E9A
:103EC8006D6F53C0D9FF54C0DAFFDECF6FF0DECF7D
:103ED80070F0DECF71F0DECF72F090EF1FF06FC0A0
:103EE8001EF070C01FF071C020F072C021F0000EEB
:103EF800226E000E236E200E246E410E256E52ECAB
:103F08000FF01EC06FF01FC070F020C071F021C00C
:103F180072F000016D4B6E2B6FC004F070C005F09D
:103F280071C006F072C007F0000E086E000E096E30
:103F3800800E0A6E3F0E0B6E88EC21F0D8B0A7EF0A
:103F48001FF0A9EF1FF073EF1FF0C9EF1FF06FC04C
:103F580047F070C048F071C049F072C04AF0000ED6
:103F68004B6E000E4C6E200E4D6E410E4E6E63EC85
:103F78000BF047C06FF048C070F049C071F04AC0FC
:103F880072F000016D07D8A06E076FC004F070C012
:103F980005F071C006F072C007F0CD0E086ECC0EA9
:103FA800096ECC0E0A6E3D0E0B6E88EC21F0D8A07F
:103FB800E0EF1FF0E2EF1FF0ABEF1FF053C0D9FFA7
:103FC80054C0DAFF6FC0DEFF70C0DEFF71C0DEFFD5
:103FD80072C0DEFF6DC053F06EC054F0120008C00E
:103FE80004F009C005F07EEC29F004C012F005C009
:103FF80013F00AC0D9FF0BC0DAFFDE2806E1DE287D
:10400800D8A409EF20F00BEF20F015EF20F00AC03C
:10401800D9FF0BC0DAFF010EDE6E000EDD6E18EF61
:1040280020F0010E0001E66F0AC0D9FF0BC0DAFFCD
:10403800DECF0CF0DDCF0DF012500C5C106E13507B
:104048000D58116E12C00EF013C00FF011BE35EFEF
:1040580020F0115008E11004D8A035EF20F037EF18
:1040680020F07DEF20F00AC0D9FF0BC0DAFFDECFC9
:104078000CF0DDCF0DF0FF0E0C24146EFF0E0D209A
:10408800156E15BE4CEF20F04AEF20F04EEF20F0F1
:104098007DEF20F00E06D8A00F061050145C1550C6
:1040A800800A0C6E1150800A0C58D8A05EEF20F0E0
:1040B80060EF20F070EF20F00E500824D96E0F50FA
:1040C8000920DA6E14500824E16E15500920E26EBA
:1040D800DFCFE7FF78EF20F014500824D96E155091
:1040E8000920DA6E300EDF6E1406D8A0150645EFEB
:1040F80020F01200000E0D6E0BBE87EF20F085EF4A
:1041080020F091EF20F00B1E0A1E091E086C000E0D
:1041180009220A220B22010E0D6E07BE98EF20F02D
:1041280096EF20F0A2EF20F0071E061E051E046C75
:10413800000E052206220722010E0D1A000E0E6E31
:10414800000E0F6E000E106E000E116E0850091052
:104158000A100B10D8B4B3EF20F0B5EF20F0EBEF56
:1041680020F0010E0C6EBFEF20F0D890083609360B
:104178000A360B360C2A0BAEC4EF20F0C6EF20F03F
:10418800B9EF20F0D8900E360F3610361136085099
:10419800045C095005580A5006580B500758D8A017
:1041A800D8EF20F0DAEF20F0E3EF20F00850045EBB
:1041B8000950055A0A50065A0B50075A0E80D890D3
:1041C8000B320A32093208320C2EC6EF20F00D509D
:1041D800D8B4F1EF20F0F3EF20F0FBEF20F0111E40
:1041E800101E0F1E0E6C000E0F22102211220EC080
:1041F80004F00FC005F010C006F011C007F012005F
:1042080000018D358E35586E5850D8A40EEF21F028
:1042180010EF21F01AEF21F0000E8B6F000E8C6F5B
:10422800000E8D6F000E8E6F87EF21F08BC08FF020
:104238008CC090F08DC091F08EC092F0200E2AEFC5
:1042480021F0D8909233913390338F33E82E25EFB5
:1042580021F08F51576E8D8FFF0E8B17FF0E8C1725
:10426800FF0E8D17000E8E17960E585E58BE41EF42
:1042780021F03FEF21F057EF21F05850800A970FB7
:10428800D8B049EF21F04BEF21F04DEF21F010EFBE
:1042980021F0D8908E338D338C338B33583E4DEFCD
:1042A80021F06FEF21F01F0E58645DEF21F05FEFF2
:1042B80021F067EF21F010EF21F0D8908B378C3781
:1042C8008D378E3758065850D8A46DEF21F06FEF10
:1042D80021F061EF21F05750D8B475EF21F077EF56
:1042E80021F07FEF21F08E1F8D1F8C1F8B6D000E2C
:1042F8008C238D238E238BC08BF08CC08CF08DC0CB
:104308008DF08EC08EF01200000E04140C6E000E9C
:1043180005140D6E800E06140E6E7F0E07140F6EB8
:104328000C500D100E100F10D8A49DEF21F09FEF28
:1043380021F0A7EF21F0000E046E000E056E000EAE
:10434800066E000E076E000E08140C6E000E09149F
:104358000D6E800E0A140E6E7F0E0B140F6E0C502D
:104368000D100E100F10D8A4BCEF21F0BEEF21F0F5
:10437800C6EF21F0000E086E000E096E000E0A6EE0
:10438800000E0B6E07AECBEF21F0CDEF21F0D6EF8C
:1043980021F0046C051ED8B0052A061ED8B0062ADE
:1043A800800E07560BAEDBEF21F0DDEF21F0E6EFD4
:1043B80021F0086C091ED8B0092A0A1ED8B00A2AAA
:1043C800800E0B56000E041A000E051A000E061A6F
:1043D800800E071A000E081A000E091A000E0A1A93
:1043E800800E0B1A0850045C095005580A500658EC
:1043F8000B500758D8B003EF22F005EF22F008EF72
:1044080022F0D89009EF22F0D8801200000E0D6E2D
:1044180007BE13EF22F011EF22F01DEF22F0071E66
:10442800061E051E046C000E052206220722010E38
:104438000D6E0BBE24EF22F022EF22F02CEF22F0BB
:104448000B1E0A1E091E086C000E09220A220B22E6
:10445800085009100A100B10D8B435EF22F037EFC6
:1044680022F067EF22F0010E0C6E41EF22F0D89097
:10447800083609360A360B360C2A0BAE46EF22F000
:1044880048EF22F03BEF22F00850045C0950055831
:104498000A5006580B500758D8A055EF22F057EF8E
:1044A80022F05FEF22F00850045E0950055A0A50C6
:1044B800065A0B50075AD8900B320A320932083282
:1044C8000C2E48EF22F00D50D8B46DEF22F06FEFAC
:1044D80022F077EF22F0071E061E051E046C000E60
:1044E80005220622072204C004F005C005F006C014
:1044F80006F007C007F0120005EC17F00009D8A471
:1045080088EF22F08AEF22F0D0EF22F027EC2AF091
:1045180004C0F4F105C0F5F106C0F6F107C0F7F1E3
:1045280030EC2AF004C0F8F105C0F9F106C0FAF140
:1045380007C0FBF199EC29F0D30E0101E86F7E0E5C
:10454800E96FF4C1EAF1F5C1EBF1F6C1ECF1F7C19D
:10455800EDF1F8C1EEF1F9C1EFF1FAC1F0F1FBC1EB
:10456800F1F163EC29F0A00E0101E86F7E0EE96F0E
:10457800F4C1EAF1F5C1EBF1F6C1ECF1F7C1EDF1E7
:10458800F8C1EEF1F9C1EFF1FAC1F0F1FBC1F1F1B7
:1045980048EC29F0E0EF22F099EC29F0F00E010147
:1045A800E86F7F0EE96F63EC29F0E00E0101E86F18
:1045B8007F0EE96F48EC29F07A0E0101F36FC10E06
:1045C800F26F810EE82EFED7F22FFCD7F32FFAD721
:1045D80000D01200000E0E6E000E0D6E000E106E52
:1045E800010E0F6E000E126E000E116E40EF23F0DA
:1045F80011500A24D96E12500B20DA6E2F0EDF6488
:1046080008EF23F00AEF23F051EF23F011500A24AA
:10461800D96E12500B20DA6E3A0EDF6016EF23F0D7
:1046280018EF23F051EF23F011500A24D96E1250DD
:104638000B20DA6EDF500C6ED00E0C24046E056A67
:10464800FF0E05220FC006F010C007F0D6EC29F0C7
:1046580004500D2605500E220FC004F010C005F0BE
:10466800000E076E0A0E066ED6EC29F004C00FF095
:1046780005C010F0114A122A0AC004F00BC005F058
:104688007EEC29F00450115C05501258D8A04FEF69
:1046980023F051EF23F0FCEF22F00DC00AF00EC01A
:1046A8000BF01200086EA1EF23F00450D8A45FEFBE
:1046B80023F063EF23F0066A062A64EF23F0066A04
:1046C80006468D500618FD0B06188D6E0550D8A4A9
:1046D80070EF23F074EF23F0066A062A75EF23F0D3
:1046E800066A8D500618FE0B06188D6EB6EF23F07D
:1046F8000450D8A482EF23F086EF23F0066A062A36
:1047080087EF23F0066A064606468B500618FB0B11
:1047180006188B6E0550D8A494EF23F098EF23F079
:10472800066A062A99EF23F0066A06468B50061891
:10473800FD0B06188B6EB6EF23F00850066E076A5D
:104748000750000AD8B4ABEF23F0B6EF23F00650B9
:10475800000AD8B459EF23F0010AD8B47CEF23F04B
:10476800B6EF23F01200066EE2EF23F0D590D59253
:10477800D5940FEF24F0D580D592D5940FEF24F07F
:10478800D590D582D5940FEF24F0D580D582D594D5
:104798000FEF24F0D590D592D5840FEF24F0D58073
:1047A800D592D5840FEF24F0D590D582D5840FEF1C
:1047B80024F0D580D582D5840FEF24F00650046EFE
:1047C800056A0550000AD8B4ECEF23F00FEF24F087
:1047D8000450010AD8B4BAEF23F0020AD8B4BFEFE4
:1047E80023F0040AD8B4C4EF23F0080AD8B4C9EFF8
:1047F80023F0100AD8B4CEEF23F0200AD8B4D3EFB0
:1048080023F0400AD8B4D8EF23F0800AD8B4DDEFFB
:1048180023F00FEF24F006C0EAF01200000E041493
:104828000C6E000E05140D6E800E06140E6E7F0EB3
:1048380007140F6E0C500D100E100F10D8A427EF90
:1048480024F029EF24F031EF24F0000E046E000E5E
:10485800056E000E066E000E076E000E08140C6E34
:10486800000E09140D6E800E0A140E6E7F0E0B14C6
:104878000F6E0C500D100E100F10D8A446EF24F038
:1048880048EF24F050EF24F0000E086E000E096E79
:10489800000E0A6E000E0B6E085004180FE1095046
:1048A80005180CE10A50061809E10B500718D8B48E
:1048B80060EF24F062EF24F065EF24F0D89066EF03
:1048C80024F0D8801200000E956E8C948C908C92F7
:1048D800EA0E086EC30EE82EFED7082EFCD700F0AD
:1048E800000E066E030EAEEC29F03F0E086E550E54
:1048F800E82EFED7082EFCD700F0000E066E030E39
:10490800AEEC29F03F0E086E550EE82EFED7082EA5
:10491800FCD700F0000E066E030EAEEC29F0000E78
:10492800066E020EAEEC29F0010E066E280EAEECF5
:1049380029F0010E066E0E0EAEEC29F0010E066E81
:10494800010EAEEC29F0100E086E940EE82EFED77C
:10495800082EFCD700D0010E066E060EAEEC29F02C
:10496800010E066E800EAEEC29F01200000E146ED9
:10497800000E136EFBEF24F0DDC008F0010EDEEC34
:1049880027F0F9EF24F0000E0001DE6F000EDD6F56
:10499800DDC008F05950DEEC27F0F9EF24F0135091
:1049A8000F24D96E14501020DA6EDF50F0EC28F086
:1049B800F9EF24F013500F24D96E14501020DA6E3A
:1049C800DF50116E126A1250000AD8B4EEEF24F0CC
:1049D800D3EF24F011500A0AD8B4C0EF24F0070A24
:1049E800D8B4C7EF24F0D3EF24F0134A142A135095
:1049F8000F24D96E14501020DA6EDF50D8A407EFB8
:104A080025F009EF25F0DEEF24F0120012C004F0C3
:104A180013C005F07EEC29F0FF0E04240001A06FFE
:104A2800FF0E0520A16F22EE84F010EE60F03F0E1D
:104A3800DBCFE3FFE806FCE2000EA36F000EA26FD7
:104A48003CEF25F0A251125C146EA3511358156E59
:104A5800A0511424D96EA1511520DA6E600EA2253A
:104A6800E16E000EA321E26EDFCFE7FFA24BA32B7E
:104A7800A251A05DA151800A146EA351800A145856
:104A8800D8B049EF25F04BEF25F026EF25F012C0FE
:104A980008F013C009F0600E0A6E000E0B6E2EECC3
:104AA80027F01200000E0C6E000E0B6E89EF25F039
:104AB8000B500824D96E0C500920DA6E600EDF64A2
:104AC80068EF25F06AEF25F087EF25F00B500824F2
:104AD800D96E0C500920DA6E7B0EDF6076EF25F078
:104AE80078EF25F087EF25F00B500824D96E0C508D
:104AF8000920DA6E0B500824E16E0C500920E26E92
:104B0800E750E00FDF6E0B4A0C2A08C004F009C01A
:104B180005F07EEC29F00B50045C0C500558D8B019
:104B280098EF25F09AEF25F05CEF25F0120089EC5C
:104B380027F0000E0001996F000E9A6FC80E9B6F48
:104B4800420E9C6FABEC15F00101FC6FFC3B8A50E8
:104B5800FC19EF0BFC198A6E000E046E000E056E30
:104B6800000E56EC23F0000E086E000E096E010EC2
:104B7800E9EC29F0970E0101E86F7F0EE96F63EC0D
:104B880029F0870E0101E86F7F0EE96F48EC29F0E4
:104B98003D0E0101FD6FE10EFC6F3F0EE82EFED7C2
:104BA800FC2FFCD7FD2FFAD700D080EC22F0D9EFEC
:104BB80025F007EF00F012C008F013C009F014C088
:104BC8000AF015C00BF0000E046E6C0E056EDC0EBC
:104BD800066E020E076E7EEC20F004C016F005C0CB
:104BE80017F006C018F007C019F016C004F017C077
:104BF80005F018C006F019C007F0040E086E000E84
:104C0800096E000E0A6E000E0B6E7EEC20F0FF0E91
:104C180004241A6EFF0E05201B6E948C948EAB8EA6
:104C2800AC98AC84B8861B50B06E1AC0AFFFAC9C71
:104C3800AC8AAB9CAB881200200EF66E510EF76E54
:104C4800000EF86E02EE84F010EE40F00900F5CF89
:104C5800EEFFE550E150FAE13A0EF66E540EF76EAB
:104C6800000EF86E00EEEBF010EE14F00900F5CF30
:104C7800EEFFE550E150FAE103EE00F0C00EEE6AF7
:104C8800E806FDE102EEC4F0200EEE6AE806FDE15A
:104C980000EEC2F0290EEE6AE806FDE15B6A5A6A88
:104CA800596A5C905C92000EF86E00019BEF25F04B
:104CB80008C004F009C005F07EEC29F004C00EF02D
:104CC80005C00FF00AC0D9FF0BC0DAFFDE2808E1E3
:104CD800DE28D8B472EF26F074EF26F097EF26F0AE
:104CE8000AC0D9FF0BC0DAFFDECF10F0DDCF11F01C
:104CF80088EF26F010500824D96E11500920DA6E7A
:104D0800000EDF6E104A112A0E50105C1150800AF6
:104D18000C6E0F50800A0C58D8A095EF26F097EF2C
:104D280026F07EEF26F01200066E000E086E000ECA
:104D3800076EB6EF26F00450071807E1055008186B
:104D4800D8A4A9EF26F0ABEF26F0B1EF26F0000EBD
:104D5800056E000E046ECBEF26F0280EE82EFED767
:104D6800074A082A82B0BBEF26F0BEEF26F0010EF4
:104D7800BFEF26F0000E0618D8B4C5EF26F0C7EF2F
:104D880026F09FEF26F007C004F008C005F01200D7
:104D9800000E0D6E000E0C6EE9EF26F00C50082484
:104DA800D96E0D500920DA6E0A50DE18D8A4DFEF4C
:104DB80026F0E1EF26F0E7EF26F00CC008F00DC072
:104DC80009F0FCEF26F00C4A0D2A08C004F009C0CF
:104DD80005F07EEC29F004500C5C05500D58D8A065
:104DE800F8EF26F0FAEF26F0D2EF26F00868096807
:104DF8001200066E10EF27F093988A982DEF27F08F
:104E0800939A8A9A2DEF27F0939C8A9C2DEF27F08E
:104E1800939E8A9E2DEF27F00650046E056A055072
:104E2800000AD8B41AEF27F02DEF27F00450000A33
:104E3800D8B400EF27F0010AD8B404EF27F0030A2A
:104E4800D8B408EF27F0010AD8B40CEF27F02DEFFB
:104E580027F012000AC00EF00BC00FF008C010F0C7
:104E680009C011F00E500C6E0F500D6E0E4A0F2A2D
:104E78000CC0F6FF0DC0F7FFF86A10C0D9FF11C0CB
:104E8800DAFF104A112A070EF76403D00800F5501C
:104E980005D0F6CFE9FFF7CFEAFFEF50DF6EDF501E
:104EA800D8A459EF27F05BEF27F036EF27F0120070
:104EB800000E0D6E000E0C6E76EF27F00C500824D5
:104EC800D96E0D500920DA6E0A50DE18D8A46FEF9B
:104ED80027F071EF27F074EF27F0010E88EF27F025
:104EE8000C4A0D2A08C004F009C005F07EEC29F030
:104EF80004500C5C05500D58D8A085EF27F087EFBB
:104F080027F062EF27F0000E12004FEC2AF067EC52
:104F180024F048EC2AF0000E046E000E056E000E18
:104F2800066E000EB0EC28F07F0EB7EC23F04CECC8
:104F38002AF0000E03EC28F0010E03EC28F0000E16
:104F4800FDEC26F0010EFDEC26F0800E126E250E0B
:104F5800136E000E146E000E156EDFEC25F01200B5
:104F680008C004F009C005F07EEC29F004C00BF07D
:104F780005C00CF0000E0E6E000E0D6ECEEF27F081
:104F88000D500824D96E0E500920DA6E000EDF6E1F
:104F98000D4A0E2A0B500D5C0E50800A0A6E0C50FA
:104FA800800A0A58D8A0DBEF27F0DDEF27F0C4EF1E
:104FB80027F012000D6E100E0860E5EF27F0E7EFFE
:104FC80027F002EF28F00D50400DF3CF09F0F4CF91
:104FD8000AF008500926000E0A22800E09240B6EDA
:104FE800000E0A200C6E010E066E0B50AEEC29F076
:104FF80008C0DDF00001DE6B0DC059F01200066E2E
:1050080012EF28F0969296908D928D9027EF28F0C7
:10501800949494928B948B9227EF28F00650046E08
:10502800056A0550000AD8B41CEF28F027EF28F0CD
:105038000450000AD8B406EF28F0010AD8B40CEFDF
:1050480028F027EF28F01200000E0001711B000E57
:10505800721B000E731B800E741B6DC037F06EC080
:1050680038F06FC039F070C03AF071C03BF072C0D0
:105078003CF073C03DF074C03EF003EC09F037C05B
:105088006DF038C06EF039C06FF03AC070F01200A1
:10509800000E0B6E000E0A6E5DEF28F00A50082411
:1050A800D96E0B500920DA6EDF5007EC2AF00A4A55
:1050B8000B2A08C004F009C005F07EEC29F0045062
:1050C8000A5C05500B58D8A06CEF28F06EEF28F05A
:1050D80052EF28F01200036E7AEF28F08D728D706F
:1050E8008FEF28F08B748B728FEF28F00350016ECE
:1050F800026A0250000AD8B484EF28F08FEF28F033
:105108000150000AD8B472EF28F0010AD8B476EF3B
:1051180028F08FEF28F012002000000000000000A7
:105128000000000000000000000000000000000077
:105138000000000000000000000000000000000067
:105148000000000000000000000000000000000057
:105158000000000000000000076ED58E07B002D0E6
:10516800D59C01D0D58C04B002D0D59A01D0D58A6F
:1051780005B002D0D59801D0D58806B002D0D59612
:1051880001D0D5860450D8B4CCEF28F0CEEF28F063
:10519800CFEF28F0928812000600F2A4D6EF28F08C
:1051A800D8EF28F0EEEF28F00001E34BE42B0A0ECD
:1051B800E319E411D8A4E3EF28F0E5EF28F0EDEFC8
:1051C80028F0000E6FEC28F0000E0001E46F000ECE
:1051D800E36FF2945C9211000E6E0E50FBEC29F016
:1051E8000001DD4BDE2B100EDD19DE11D8A4FFEF18
:1051F80028F001EF29F00EEF29F05950D8A407EF55
:1052080029F009EF29F00EEF29F0000E086E010EC3
:10521800DEEC27F0120093C075F094C076F095C0CC
:1052280077F096C078F079EC0DF075C08BF076C009
:105238008CF077C08DF078C08EF004EC21F08BC034
:1052480093F08CC094F08DC095F08EC096F012004B
:105258000450051006100710D8B435EF29F037EFC1
:1052680029F03FEF29F0000E041A000E051A000E6F
:10527800061A800E071A04C004F005C005F006C01F
:1052880006F007C007F01200EA0E0201826F010E55
:10529800836F000E0001BA6F020EBB6FE8C1BCF04D
:1052A800E9C1BDF0820EBE6F020EBF6F09EC00F0BF
:1052B800000E086E020E096E4CEC28F01200EA0E81
:1052C8000201826F010E836F000E0001BA6F020E99
:1052D800BB6FE8C1BCF0E9C1BDF0820EBE6F020E23
:1052E800BF6F09EC00F0000E0F6E020E106EBAECE4
:1052F80024F0120004C006F005C007F086EF29F07C
:10530800044A052A04C0D9FF05C0DAFFDF50D8A433
:1053180090EF29F092EF29F084EF29F00650045C11
:10532800046E07500558056E1200010E066E010E38
:10533800AEEC29F0100E086E940EE82EFED7082E5B
:10534800FCD700D0000E0001DE6F000EDD6F000EEE
:10535800596E1200076E8C948C920650D8B4B7EF31
:1053680029F0B9EF29F0BCEF29F0075039EC2AF001
:10537800073AF00E0716075039EC2AF0120012C04F
:1053880004F013C005F07EEC29F004501224086ED6
:1053980005501320096E14C00AF015C00BF02EEC4E
:1053A80027F0120004500602F3CF08F0F4CF09F0FA
:1053B80004500702F350092605500602F350092647
:1053C80008C004F009C005F012000A6E080E0B6E42
:1053D8000A44E846FC0B0B12085008240B1209502B
:1053E8000B12010E066E0B50AEEC29F01200066E81
:1053F8008C82065039EC2AF0063AF00E0616065052
:1054080039EC2AF01200046EACA20DEF2AF00FEF6F
:105418002AF008EF2AF004C0ADFF12008C80100EAD
:10542800046E940EE82EFED7042EFCD700D08C9084
:1054380012003132334134353642373839432A3055
:10544800234400000000D9C004F0DAC005F0DBC036
:1054580006F0DCC007F01200D5C004F0D6C005F095
:10546800D7C006F0D8C007F01200056E0F0E8C16D4
:105478000550F00B8C1212EC2AF012000001985122
:10548800D76E97C0CEFF1200D09EF28EF28C12001B
:10549800F28AF294120094908B801200D59E12002A
:107E880000256373646978586F7566674765456E42
:107E98000000004B070006000A54656D70657261AA
:107EA800747572653A20252E316620C2B0430A5295
:107EB800656C61746976652048756D656469747967
:107EC8003A20252E31662025250A000D54656D704F
:107ED8003A20252E316620430A0D52656C204875DC
:107EE8006D3A20252E31662525000A4769726F20D4
:107EF8004465726563686120257320256420252EFA
:107F080032662E2D2E000D4769726F20497A7175E1
:107F18006965726461200A0D252E3266202E2D2E89
:107F2800000D4D6F746F7220646574656E69646FBF
:107F3800200A0D2545202E2D2E000A4D6F746F72D4
:107F480020646574656E69646F202545202E2D2E8A
:107F5800000A4769726F20497A71756965726461B0
:107F6800202566202E2D2E000D4769726F2044654E
:107F78007265636861200A0D2569202E2D2E004246
:107F880049454E56454E49444F203A290A0A000DA4
:107F98004249454E56454E49444F203A29000A5415
:107FA80065636C613A202563202E2D2E000D5465E3
:107FB800636C613A202563202E2D2E000A436F75CD
:107FC8006E74203D202564200A000D436F756E7481
:107FD800203D202564200A000A4552524F520A00CB
:107FE8000D50433A202573000D4552524F52004F11
:077FF8006B6179002000001D
:020000040020DA
:08000000FFFFFFFFFFFFFFFF00
:020000040030CA
:0E000000240E3F1EFF8181FF0FC00FE00F4056
:00000001FF
